S01300007573335F6D736869656C642E73726563B1
S214002000008000202D260000112600002926000052
S21400201000000000000000000000000000000000BB
S2140020200000000000000000000000001126000074
S21400203000000000000000001126000081260000BD
S21400204011260000112600001126000011260000AF
S214002050112600001126000015260000112600009B
S214002060A94F00001126000011260000B94F0000FD
S214002070994F0000112600001126000011260000CE
S214002080112600001126000011260000112600006F
S214002090112600001126000011260000112600005F
S2140020A0112600001126000011260000112600004F
S2140020B00000000010B5064C2378002B07D1054B16
S2140020C0002B02D0044800E000BF0123237010BD9F
S2140020D0100300200000000064300100084B10B51B
S2140020E0002B03D00749084800E000BF07480368F4
S2140020F0002B00D110BD064B002BFBD09847F9E70C
S21400210000000000140300206430010000030020DB
S214002110000000001FB5E1210F48490200F088FCCE
S214002120002002F017FE02F059FB02F003FB0B4CF6
S214002130206002F005FB0A4B0A4A186023680A4929
S214002140029301230193094B09480093094B02F0BF
S214002150C9FB02F00FFC1FBD9803002034030020CB
S2140021603003002071240000BD24000095210000EB
S214002170080F0100DD23000010B502F0B9FE10BD07
S21400218010B502F089F8014B186010BD2C03002032
S2140021907047000010B50B4904000BF00CFF002838
S2140021A003D14322084B1A7010BD084920000BF0DB
S2140021B002FF03000120002BF6D14621024A180038
S2140021C01170F1E70D0F01003C030020130F010012
S2140021D030B5A3B001A801F0F6FF174B01A81968A7
S2140021E001F0CCFF154C164B2268164D9A421ED0B5
S2140021F0052001F0F7FC144B186008F001FD011CE7
S21400220001A801F0FBFF01A802F027F80F4B1968A0
S21400221008F002FA0AF032FB0D4B0E4A09F0CAFC2F
S2140022200AF07EFB2368286001332360DAE7002388
S2140022302868236023B030BD880300208003002078
S21400224010270000840300207C03002004000020E8
S214002250B7984740C66D348070B50024174D2220CD
S21400226001F0C0FC013D2418012000F04DFA002DBD
S214002270F5D10521200007F029FC0AF0C7FA104A1C
S214002280104B09F097FC07F027FE08F009FD0E4BEF
S214002290196808F0C1F9EA21890508F0BDF9FC21A2
S2140022A0890508F0B9F907F0FFFD1423584308F034
S2140022B0F7FC064907F0C0FF70BDC046B80B00002B
S2140022C039B4C876BE9FE63F3803002000007A4443
S2140022D0F0B5384BAFB00293374B6A46039356239C
S2140022E00700138001AC153B0822344907A8238059
S2140022F00AF041FD3249062205A80AF03CFD314AA3
S214002300314B1A60FFF764FF0AF0B8FA2F4D02004F
S2140023100B0007A829000BF01FFEFFF79DFF0AF031
S214002320ADFA0B000200290005A80BF015FE01F01F
S214002330B3FF0600264D0200290009A80BF00CFE8C
S214002340320029000EA80BF007FE02A90EA80BF01B
S21400235025FE07A90EA80BF021FE694604A80BF07F
S21400236034FE04A90EA80BF019FE1A490EA80BF0AD
S21400237015FE09A90EA80BF011FE03A90EA80BF076
S2140023800DFE05A90EA80BF009FE210004A80BF00F
S2140023901CFE04A90EA80BF001FE0EA938000BF0D7
S2140023A014FE0EAA0C49072002F00EF800202FB0EB
S2140023B0F0BDC04633302C0033312C00D00F010066
S2140023C0D80F010000404E4538030020B50F01002D
S2140023D0BB0F0100751B0100BF0F010070B50E009A
S2140023E000210400FFF774FF050020000BF0F5FD48
S2140023F03070280070BD000030B5174B8FB01A7FC4
S214002400050001A80271154A05A901921A6A5B6ABD
S2140024108260C36001F0B3FD0A9C211C201C08F0FA
S214002420B7FB002800D00E4C0E4B1B785BB2462B39
S2140024300DD1201C0AF022FA0B4A0C4B09F0BAFB0D
S2140024400AF06EFA8421C90507F064FD041C00201A
S2140024502C600FB030BDC046440300206C10010055
S2140024600000C8423C030020CDCCCCCCCCCCFC3FFA
S214002470002370B5A2B0060001A80D000193FFF777
S214002480BBFF041E0CD101A902A8FFF721FF02A979
S214002490040030000BF099FD02A80BF09EFD28709A
S2140024A0200022B070BD00000122034B00201A71EC
S2140024B092185A707047C0463C030020F0B546227A
S2140024C00026334B91B01A705E70FFF7EDFF314C6B
S2140024D0200001F0A9FD304802F034F8237F02AA5C
S2140024E013712E4B10000293236A06A90493636AA5
S2140024F00193059301F0CCFD294C200002F022F850
S214002500284F380002F01EF8274802F005F806A803
S21400251002F018F8254801F0FFFF099802F028F8A5
S214002520200002F00FF8224801F0F6FF0A9802F0A9
S2140025301FF8200002F006F81E4801F0EDFF0C9888
S21400254008F03EFB02F014F81B4D280001F0FAFFDD
S2140025501A4801F0E1FF0D9808F032FB02F008F887
S214002560280001F0EFFF164801F0D6FF0E9808F09D
S21400257027FB01F0FDFF280001F0E4FF380001F022
S214002580E1FF200001F0DEFF300011B0F0BDC046D4
S2140025903C03002044030020190F01006C100100CA
S2140025A0A6140100330F0100580F0100670F010049
S2140025B0760F0100850F0100940F0100970F0100B0
S2140025C0A60F0100012313B50B4C5B420193009349
S2140025D00B2207330021200001F00EFD074A0849B0
S2140025E0200006F0B3FF074B0748196807F024FEE3
S2140025F0064B186013BDC0464403002000000020B0
S21400260091210000080000200000204288030020DE
S21400261003BEFEE7034B10B51B68002B00D098479F
S21400262010BDC0468C0300200DBEFEE770B50F49F6
S2140026300F4CA14204D100F0F5F800F0A3F8FEE735
S2140026400C4D00238D42F6D0CA18E818A24205D3D6
S2140026509042F0D0084B0949002204E00068043399
S2140026601060F1E704C38B42FCD3E4E700000020CF
S21400267010030020CC30010010030020D41F0020DF
S21400268010B500F07CF8002801D100F063F810BD0A
S214002690014B18607047C0468C030020014B186839
S2140026A07047C04690030020F7B5134801228446C1
S2140026B01249134C8E68636805689B0E134001929E
S2140026C088686268019F920E3A4067463F68934268
S2140026D00ED1BD420CD186420AD35B19FA25486852
S2140026E0AD00861B07486B437043000DC018FEBD47
S2140026F03D0013000600E3E79003002010E000E032
S21400270000ED00E055550000F7B5041E1CD0EFF3B1
S214002710108372B60D4E0E4F35683A680192DB078D
S21400272000D462B6EB439C4204D964190025019B91
S2140027300133019300F022F83B68019A9342F9D3E3
S21400274033685B1B9C42F5D8F7BDC046900300205B
S21400275094030020074B10B51A6801321A601B68F4
S214002760002B03D1044A13680133136000F038F8D5
S21400277010BDC04690030020940300207047002040
S2140027807047704710B501F015F90AF089FAFFF79F
S214002790F8FF0120FFF7B8FF084C200000F0B2FB5E
S2140027A0200000F00FFCFFF7B5FCFFF7E5FC044B3C
S2140027B0002BFAD000E000BFF7E7C046B4030020C5
S2140027C000000000014B18607047C0460C00002057
S2140027D00122024B52421A607047C0460C0000208D
S2140027E0054A10B51368591C05D0013B1360002B31
S2140027F001D1024B984710BD0C0000206930010043
S2140028000249034B4A681A42FCD170470018004040
S214002810FD0700000E2302490A781A42FCD17047D1
S214002820380C00408422F8B5294B2A4D5A604023C4
S2140028306A69022113436B6180230122DB059A71CA
S21400284098780143997099791142FCD00121224C65
S2140028509A71224B227022780A4202D062681A428B
S214002860F9D11F4B1F4A5A61022259690A435A611D
S2140028700122D9681142FCD01B4B1C4E0227F36282
S214002880FFF7C8FF00231A4A33631370FFF7C2FF2F
S214002890184B1F70FFF7BEFF174A13783B42FCD059
S2140028A001232B71154D2562FFF7AAFF2563FFF75D
S2140028B0A7FF0C22337D93431A000423134333757A
S2140028C00F4BE362FFF79CFF0E4A0F4B1A60F8BDF2
S2140028D0004000410004004000180040FD070000D2
S2140028E0001000401C040000710B0000000C0040AB
S2140028F0340C0040280C00403C0C0040080302004A
S21400290006010100006CDC02840000203F207047B6
S21400291013B56B460268D971073354681900012253
S214002920A04716BD10B50221006900F031FC10BDAD
S21400293010B50321006900F041FC10BD10B513006E
S21400294004000A000069032100F032FD002801D1CE
S2140029500123636010BD000010B5054C23685A1CA7
S21400296004D103685B69984703002060180010BD17
S21400297058000020074B0200186810B5411C03D011
S214002980012252421A6010BD0221106900F002FDB9
S214002990F9E7C0465800002010B503783A22023303
S2140029A003700249024800F0AFFD10BD1C00002075
S2140029B0B403002010B50178030042780020A12956
S2140029C008D1212A05D11A3A1649174800F09CFD6D
S2140029D0012010BD2129FCD1202A11D1193A114914
S2140029E0114800F02FFC96220E4BD2001968914237
S2140029F003D10124D87904400ED0FFF7E9FE0EE09B
S214002A00222A03D19A78074BDA71ECE7232AE0D121
S214002A105A88064B1A60DCE7FA20FFF7D3FE002040
S214002A20D7E7C04614000020B403002010000020A2
S214002A307047000010B5FFF731FEF423FF33002483
S214002A40984207D9044B0A20DC79631E9C41E4B205
S214002A50FFF75AFE200010BD14000020FA220021C5
S214002A60054B92009A60054A596008321A60044A7B
S214002A7019761A617047C04698030020E00F0100DF
S214002A80B403002030B50F25CB1D013902002A40C3
S214002A90140000093034092A01DD373214001C7096
S214002AA0013B8B42F2D130BD70B582291FD1C3B233
S214002AB02C4D5A01AA1891692B4C80010C40C0215C
S214002AC089052143916129490833081880215061FE
S214002AD02A685B01D01804794942214301717020AD
S214002AE0995C8143080030210143995470BD002948
S214002AF0FCD1C024C1B21B4E4B01F3189A681A4D84
S214002B00A4052A4022439A60194A800110180A0038
S214002B1058603068072608325201115CB1430E0037
S214002B2001213143115499690D402C439C61702456
S214002B300E495961115CA1430C0010212143115428
S214002B4099680C4C82180C408021490321439960F7
S214002B509968890B89039960402351790B43537117
S214002B60C4E7C0466C080020FFFFFF8FE00300208C
S214002B70A0050020FF3F00F070B50400012320CC24
S214002B8000212A782000134380222B7052000AF07E
S214002B900DF9AB78DB07FCD46C6270BD1F22144BBA
S214002BA070B51B68590B9C0C9B0111405B0F2240B3
S214002BB01F2900D11A391F2A00D1023A072B00D14B
S214002BC0043B1F2500688E01048D0A492A402140D7
S214002BD031430185018D14000A00AA432243028571
S214002BE0028D1903044B13400B43038570BDC0468A
S214002BF0206080003FF8FFFFFF8FFFFFEFF310839A
S214002C0003600123436072B670470368002B02D14D
S214002C1062B6BFF36F8F704737B505690400684624
S214002C20002D14D1FFF7EAFF019B621D013B02D382
S214002C30D57FEDB2FAE768460193FFF7E6FF002D71
S214002C4001D100203EBD206AE369C01AFAE7FFF70B
S214002C50D5FF22000025019B3432013B02D31578B4
S214002C60EDB2FAE768460193FFF7CFFF002DE8D0F4
S214002C70206BE36AE9E70000F0B501254668037AB1
S214002C8031685A018C18FF34A77AB2183D43A572F2
S214002C90C468094D9068A404284024092043906025
S214002CA090680833800B8003906040225B01CB184D
S214002CB019790A431A71F0BDFF3F00F0F7B50369B2
S214002CC004000E0017006846002B3DD1FFF796FF64
S214002CD0019B611D013B5A1C0CD0CD7F5A1EEDB2E4
S214002CE0002D05D168460193FFF78FFF2800FEBD33
S214002CF01300F0E7684601930025FFF786FFE369B7
S214002D00AF4202D0226A934257D3226A9342EDD151
S214002D100023E361013323616846FFF76FFF22005B
S214002D200021019B671D013B3532581CDAD0F9772C
S214002D3010785E1E002805D0117020000193FFF762
S214002D409BFFECE73300F0E7FFF758FF2100019BFD
S214002D503431013B5A1C06D00D785A1EEDB2002DB8
S214002D60C0D01300F6E7684601930025FFF74DFF35
S214002D70E36ABD4202D0226B934226D3226B934273
S214002D80B4D100236846E3622361FFF737FF2700CC
S214002D9022000021019B3437013B3532581CA1D05C
S214002DA0397010785E1E002805D01170200001933F
S214002DB0FFF762FFEBE73300F0E75A1CE261A26917
S214002DC0D3181B787355013599E75A1CE262A26A3C
S214002DD0D3181B7873550135CAE7F7B5027A4368EE
S214002DE0110004000831186849014118C879C00765
S214002DF027D501255201CD719B189A686169920406
S214002E00920C002921D12262226A002A3ED0A26AB0
S214002E10656168465A60FFF7F1FE27002100019BB6
S214002E20661D013B343735315A1C2BD0F5773A787E
S214002E30581ED2B2002A05D0019368460D70FFF7DF
S214002E40E4FEF7BD0A700300EEE72263226B002A59
S214002E501CD000226261A26968465A60FFF7CEFE67
S214002E6026002100019B3436013B671D35315A1C74
S214002E7008D03570FA7F581ED2B2002ADCD10A700C
S214002E800300F4E768460193FFF7BFFE2000FFF754
S214002E90F3FED6E737B56B46DC1D00230D00200099
S214002EA02370FFF779FD2B681818286002F0F4FCF1
S214002EB0210002F0ADFC2B681818286020783EBD73
S214002EC003290ED180220E4B62311B68FF31585CFD
S214002ED0524202435A5468226339FF39FF329954EA
S214002EE070470129FCD18022054B24311B68FF3135
S214002EF0585C524202435A542339FF392822EDE7E0
S214002F006C08002070B50024264B01210500152012
S214002F101C7000F0B1FE0121152000F0B1FE224B1E
S214002F20012114201C7000F0A7FE0121142000F0DF
S214002F30A7FE01231D4A1820916940340B43936174
S214002F400F2100F007FF0F21192000F003FF184B98
S214002F501C601A682242FCD01648FFF799FB164EF2
S214002F603000FFF709FE3000FFF718FE7F213368B8
S214002F70C1201A7880000A401A70042219780F4E71
S214002F800A430C211A701A898A431A810C4A11586E
S214002F90314011501460022219780A431A70012336
S214002FA02B7070BDD5030020D40300200004004021
S214002FB090180040953900006C080020FFFF00FFC5
S214002FC000E100E00078002810D00121084B1B68C3
S214002FD01A898A431A810822198B0A431A83042203
S214002FE0198B0A431A830022024B1A607047C046A8
S214002FF06C0800206408002010B5104A93699B0BEB
S2140030009B03936113680222FF331A729879823AFF
S21400301002439A711A7A9207FCD582227F24D2053F
S214003020937A2140A343080019008023014391723C
S214003030917A5B420B43937210BDC0466C08002029
S21400304010B50B790C00002B0CD10800FFF7B2FC72
S214003050002801D0012010BD094A93699B0B9B03F1
S2140030609361F7E702F018FC210002F004FC002848
S214003070F0D1034A93699B0B9B039361EBE7C04631
S2140030806C080020F7B50D00832A19D1CBB2324C5C
S2140030905A01A21891693148AD010840C02189053E
S2140030A0014391612E4920684D19702108335561FE
S2140030B05B011A5C8A43110040220A431A54F7BD8A
S2140030C0022A44D18B000193264B8A00D658002E44
S2140030D0F5D1382001F0CCFF234B1F4F036080232F
S2140030E05B00C360431D0662856006614661C6617B
S2140030F004004760DE77C662066380202F331E70AA
S21400310040005E7009F002FE0600A06180204000CC
S21400311009F0FCFDEDB26B01A062FB189A680F493E
S21400312007201140C02292050A439A603A68083583
S2140031306D01A95C8143080003210143A9542000C6
S2140031405E60FFF799FD074B019AD450B7E7110070
S2140031502800FFF7A9FCB2E76C080020FFFFFF8FEE
S214003160E0030020B80300200C10010070B5050035
S2140031700124064BA200D258002A05D021002800C0
S214003180FFF780FF0134F4E770BDC0465C00002006
S214003190084B8A00D05810B5002803D003689B68F7
S2140031A0984710BDC9B2044B490159188868800475
S2140031B0800CF6E7B80300206C08002010B50C0061
S2140031C0FFF7E6FF00280CD0064BE4B21B68083475
S2140031D064011C19802362795B42134363710223E6
S2140031E0E37110BD6C08002070B5134BCCB2134AC7
S2140031F0600189015918131859609968104D0834F0
S2140032000D40802189022943402599609968890BE1
S2140032108903996011686301CB181E7935431D71C7
S2140032209D796D06FCD564010919CB79DB07FCD5C1
S21400323012189068C0B270BDA00500206C0800206F
S214003240FF3F00F070B5140040220B4B0D001B68CA
S214003250FF3359790A435A710021FFF7C5FFA04290
S21400326000D9200000230549A34203D05A5CEA5443
S2140032700133F9E770BDC0466C080020A0050020A9
S21400328010B5C9B20B484901421893689B049B0CC1
S2140032903F2B0BDD9468403B9B04A40B9B0CA403C4
S2140032A02343936041188868C0B210BD93689B0B97
S2140032B09B03F6E76C080020F0B51C00304B85B089
S2140032C01B6806000D000192002B55D02D4F397853
S2140032D0C9B2002902D1142000F0D2FC64233B704E
S2140032E0294BAA00D058002808D0036822005B6843
S2140032F0019998470400200005B0F0BD2900300071
S214003300FFF746FF844204D929003000FFF740FF4C
S214003310040029003000FFF7B3FF0121EBB21B4F7A
S21400332003935B010293029A3B6801989B18FF3354
S2140033305A7A0A4316495A72AB01C918220009F094
S2140033401AFD002CD7D029003000FFF721FF0028F7
S214003350D1D14021039B3A6808335B01D318187912
S214003360014319710121D9710121029BD318FF3342
S2140033709A7A0A439A72BEE701246442BBE7C046C3
S21400338064080020D4030020B80300206C08002046
S214003390A005002013B56B46DC1D22000123FFF7B5
S2140033A08BFF012801D1207816BD01204042FBE7A3
S2140033B0F0B51E003A4B85B01B680F000192002B3B
S2140033C03FD08023DB019E423BD8364C2178C9B2E1
S2140033D0002902D1152000F053FC64230025324A50
S2140033E02370BB01D3180293002E2CD02F4B1B68E2
S2140033F00393FF233B401C0000930834039B6401A7
S2140034001C19A379DB0921D0294B2A49186806F034
S2140034105DFB294B1721584306F058FB274BE279F2
S214003420920713D4DA5D002A01D10138F7D20122BF
S214003430DA55009B5A011D4B9B189A69920B920312
S2140034409A6101256D42280005B0F0BD00221B4B95
S2140034503400DA553F2E00D93F2422000199029805
S21400346009F089FC009BA1045A01104B890C9B189B
S214003470029A2D195A619A69361B920B92030A43D7
S2140034809A61009B039A08335B01D3180222DA7113
S2140034905979823A0A435A71019B1B190193A3E793
S2140034A064080020D5030020E00300206C080020FC
S2140034B08400002040420F0070110100D703002056
S2140034C070B50D001C000D4EAB01F6181100300053
S2140034D0220009F050FCEDB209496D014D196E61EC
S2140034E0AB69084A20001340AB61AB69A2049B0B92
S2140034F0920C9B031343AB6170BDC046E0030020F3
S2140035006C080020FF3F00F0F7B5104B01901B78C9
S2140035100F001500002B0CD10D4B16001C78002C4C
S21400352009D00C4E0C4834880019641909F023FCA5
S21400353034802800FEBD002EFBD03A19330000214F
S2140035400198FFF7BDFF2418361AF4E7600700203D
S214003550610800206208002061070020F8B50020FE
S21400356000AF0E001500012A26DDD31D6A46DB08D3
S214003570DB00D31A9D4608000AF02FFD6C46032395
S214003580002101304000207063705A1ED2B295426E
S2140035900BDD3078002808D00136A0549D4203D0B9
S2140035A0E1540233DBB2F0E72A0021000348FFF7BC
S2140035B0ABFF431E9841C0B2BD46F8BDB403002021
S2140035C0F0B50027012687B01E4B009102A91E7099
S2140035D005000297FFF75EFC03AC01900922390054
S2140035E0200009F0E3FB09232370022363709E3357
S2140035F0E3715A332372029B6671093363806B460C
S2140036001B7923710F4B1F70009B092B07D11A00E3
S21400361021002800FFF778FF012007B0F0BD0A4B15
S21400362009221E70094E2100280002973780FFF7F6
S2140036306BFF02A92800FFF72DFC034B32881F7092
S2140036400349E6E7600700206108002062080020C2
S2140036506107002070B5CE7892B005000C00022EEF
S21400366008D1C9882B48FFF7ABFF431E9841C0B26C
S21400367012B070BD02F010F9210002F0DDF800284B
S21400368003D0C317181AC00FF2E7012E0BD1E28839
S2140036902149112A10DCD2B2002A0DD02800FFF7EB
S2140036A033FF0120E4E7032EE2D1A378002B05D1F7
S2140036B0E2881A49032AEEDD0A78EFE7022B05D1E5
S2140036C0A27917492800FFF749FFD1E7012B02D15D
S2140036D0A2791449F6E7032BCAD1134B01A918683F
S2140036E0FFF7D0F9114B03A91868FFF7CBF9104B79
S2140036F005A91868FFF7C6F90E4B07A91868FFF763
S214003700C1F902F0C9F809A902F0A6F8A27901A940
S214003710D8E7C046B40300203A1001002610010086
S214003720181001002A1001000CA0800040A08000A4
S21400373044A0800048A0800073B5060048780D00BD
S2140037400B2811D806F0B8F9061D102E1043487045
S2140037504C4F696C097801AA002907D10223117021
S21400376051703000FFF7ACFE012076BD00231370C9
S21400377053702E4B1B78012B00D1137002230021AF
S214003780EFE78A780023012A04D101AA1370537048
S214003790274BEFE7254A1370264A93699B0B9B033A
S2140037A09361E1E78C78012C06D10021204B01AA19
S2140037B01C7011702300D4E7002C08D101201B4B8D
S2140037C01C4A187093699B0B9B039361CDE7A978FD
S2140037D03000FFF711FCC7E73000FFF73BFFC4E7F8
S2140037E00123154ACBE70B780020DB06BDD130005D
S2140037F0FFF7BCFC2A200221AA780F4BFF301A6084
S2140038000C4A13681C5C21434A241954FF34195D82
S2140038102938FF3801431955D4E70123074AAEE794
S2140038208A78064B1A60B7E700209EE7D60300208A
S214003830DE0300206C0800206408002068080020D2
S2140038404C4BF7B51C780700002C00D091E04A4E90
S21400385033689B8B1B070ED521002000FFF724F949
S214003860326810231100FF31887A03438B72434B72
S2140038701C600823938333689A8B52071FD5042253
S2140038809A833F4A1378002B0AD01378013BDBB2A9
S21400389013701378002B03D10121152000F0F0F9E6
S2140038A0384A1378002B0AD01378013BDBB213702A
S2140038B01378002B03D10121142000F0E1F93368BE
S2140038C0FF331A7AD20620D510221A72597930326E
S2140038D00A435A7160232C4938000A781A4235D1B7
S2140038E0FFF72AFF002834D0802233685242FF3385
S2140038F099790A439A713368FF331A7A520604D5C7
S21400390040221A72597A0A435A72336807251C8C69
S21400391001239C43E4B20193E9B2002C29D0002D88
S21400392027D023002B41019A13420DD02B0032687A
S21400393008335B01D318DA79D20711D4DB799B07F9
S2140039400ED4019BAB409C43013DE5E7FFF778FBB7
S214003950C8E720220D4BCDE703681B689847F0E7C1
S2140039600B4BAA00D0580028F6D13800FFF7A8FA6B
S214003970E7E7F7BD610800206C0800206408002017
S214003980D5030020D4030020A0050020FF0000413E
S214003990B803002010B50248FFF752FF10BDC0461E
S2140039A0B40300208222024BD2051A607047C0463C
S2140039B06C080020C0201A491A4B1B4A10B54B60F1
S2140039C0136A00061B021B0A034313620024072324
S2140039D08C600B608021136A09061B021B0A0B43CE
S2140039E006211362114BDA69186A0143196208212D
S2140039F0186A01431962D96911430D4A0A43DA610C
S214003A0020001A21013400F037F9242CF8D100F0F8
S214003A109FF8052000F03CF800F016F810BDC046F0
S214003A2010E000E07FBB000000ED00E00004004076
S214003A30FF170000914202D002D98A1AD040704780
S214003A40521A9040FBE700000C490D4B4A681A4298
S214003A50FCD140230B4A536051681942FCD03F22E8
S214003A60094B99681142FCD102225A70C222920078
S214003A709A81DA810122054B1A70704700180040BF
S214003A80FD070000FC1800400030004271090020CD
S214003A9010B52A4B04001B78002B04D10122284BBA
S214003AA01A7000F055F8032C06D10721200000F00C
S214003AB051F9002809D010BD042CF6D0002C2BD1CB
S214003AC0204A2149D3690B40D3610F211F4B0C407C
S214003AD09A788A4314439C701A8C5205FCD1197844
S214003AE002320A431A701A8C5205FCD1197E023231
S214003AF00A431A761A8C5205FCD19A79D207FCD55D
S214003B0002219A8C1A788A431A701A8C5205FCD1B4
S214003B100B4B01321A70CEE7052CD6D9094B0A4951
S214003B20DA69063C0A40F021DA61DA6924040903FE
S214003B300C401443DC610024C7E7C046700900202F
S214003B407209002000140040FFFFF0FF000C004345
S214003B501E4B07211B6810B51A00DB080A4012022C
S214003B600B4013431A4A938513001A8C5205FCD156
S214003B7018490432C8690243CA61402216490A60DD
S214003B8008681042FCD007225A7019325A811A8CE3
S214003B905205FCD13F325A731A8C5205FCD1C02212
S214003BA052011A811A8C5205520DFBD11A731A8CC7
S214003BB05205FCD1094B01321A70094B1B78002BB9
S214003BC002D10520FFF764FF10BDC04620608000CC
S214003BD0000C004300140040F81800407009002054
S214003BE07209002010B51F4B04001B78002B01D172
S214003BF0FFF7AEFF0521200000F0ACF80300002020
S214003C00834228D10C3044431748184B0019417A98
S214003C101F201A89014082430A431A811A8C5205D2
S214003C20FCD1197802320A431A701A8C5205FCD15C
S214003C30197E02320A431A761A8C5205FCD19A79FA
S214003C40D207FCD50221988C1A7880B28A431A7063
S214003C501A8C5205FCD1064B1A68064B1968FFF7FA
S214003C60E9FE10BD70090020E8120100000C0043B8
S214003C708C0000208800002010B500F06BF810BD06
S214003C80F7B50C224243254D0190535D042B2FD0EF
S214003C900027AA185278DB01214ED418A4192678DA
S214003CA0204CF6B21C59BC4204D0013797407C1E0B
S214003CB0A741FFB21B4C1C192469A4460024604689
S214003CC0A04204D001349440601E8441E4B2002F28
S214003CD017D101980C3778432D18686801290DD143
S214003CE0012C06D1410706D4D3180D4A9B181E7026
S214003CF0F7BD0107F8D504210E43F5E704218E43EE
S214003D00F2E7012904D19140064A9B189961EFE732
S214003D1001219140034A9B185961E9E7E812010026
S214003D2040280040002800400C2358430749002341
S214003D30425C042A06D0064BD201D2180918136A30
S214003D404A78D340012018407047C046E812010068
S214003D5000280040F7B50500232800D96BE00C23A7
S214003D6043437F4FDA5DFB18D8785C7801909878EB
S214003D705B68042A5FD019267642B44684446646B9
S214003D80012E01D9884256D1CB40DB0701D41A2830
S214003D9051D1081F172863D805F08EFE3647646495
S214003DA06262626250505D0C0C6262626262629095
S214003DB0924D624D0623002A00D18FE0694DD00156
S214003DC0201840190578042028404D1F022D01D9DF
S214003DD002252843019D2D0701D54025284372B6AC
S214003DE0D201002901D01A293ED10123A3405E4901
S214003DF051184B608B61042398435A4BA218D21873
S214003E00107062B60020FEBD0C235D437F19BB7A9E
S214003E10122B10D00023002A60D0524DD00120185B
S214003E204019057804202840D2E70C235D437F190B
S214003E307B7A162B4FD101204042E4E70C235D43EA
S214003E407F193B7A802BF6D0062301980340581E34
S214003E5083410433AFE70123019803400233DAE7D6
S214003E600923A8E70123A6E78D1E012D0CD8012300
S214003E70A3403D4D55196B60032903D16B610423A4
S214003E801843BAE7AB61FAE7012904D1A140364BE3
S214003E90D3189960AFE76108344D51184919E50702
S214003EA008D50F260D781B0135402B43DBB20B706F
S214003EB00123E5E70F260D78B543F6E70723AAE7C3
S214003EC00823A8E72748D301E3181B18187804230B
S214003ED01840033B7EE7002AF4D10123022C02D0CF
S214003EE0052C00D06AE7062900D167E7651F6842FF
S214003EF045411F48475D002F00D15FE70027022697
S214003F0047551C480778B7430770A027BF00013FF6
S214003F10FDD13F2786683E42FCD1164E2F1DB44683
S214003F207F00BC446646B7880226B7436646B7801D
S214003F300F4F3E78002E03D17F78002F00D13DE74B
S214003F4002270678374307703F2786683E42FCD133
S214003F5001277D1BAF40C5792F42FCD02EE7C04617
S214003F60E8120100402800400028004030280040A9
S214003F70730900200030004270477047704770B5E4
S214003F800C002426050032000021200008F00EFF59
S214003F90EB68266063600D23A360FEF77FFB0022BC
S214003FA020611100A86801F0DFFE6061012070BD8D
S214003FB070B50C002426050032000021200008F011
S214003FC0F5FEEB68266063600C23A360FEF766FBD5
S214003FD000212061A86801F017FF6061012070BD14
S214003FE010B5040001F048F8200010BD10B504001C
S214003FF001F042F8200010BD70B50400150001F075
S214004000FBFD074B25750833A361049B2000636204
S214004010044B24620833A362059B2463636370BD6C
S214004020641001008010010010B501F0F9FD10BD0C
S21400403010B5027D0C00152A07D0162A0DD00849A7
S2140040400B2A04D00B22074901E00B220649200068
S21400405009F0F0FF0023E37210BD0B220349F6E7D8
S2140040604C1001005E1001005210010058100100B3
S214004070037D152B06D0162B04D00B2B02D1024B3A
S2140040804B627047014BFBE740420F0080841E00E6
S21400409070B50C00050028220021200008F086FEDE
S2140040A02100A868FFF7C4FF0123E360EB68210046
S2140040B023610D23A8686361FFF7DAFFAB681A7DFA
S2140040C0152A0BD0162A0FD000230B2A0ED1E36137
S2140040D08023084ADB05A261236270BD064BA361FC
S2140040E0064BE361064BF7E7064BF8E7A361E3618F
S2140040F0F2E7C046000048420000A042000020C28E
S214004100CDCCCC3D0000FA4270B50C00050028224C
S2140041100021200008F04AFE2100A868FFF788FF6B
S2140041200123E360EB68210023610C23A868636128
S214004130FFF79EFFAB681B7D152B0AD0162B08D009
S2140041400B2B0CD1084BA361084BE361084B236291
S21400415070BD084BA3610023E361074BF7E700231C
S214004160A361E361F3E7C0460000A0420000A0415F
S2140041700000A0400000C842CDCCCC3D10B50400E5
S21400418002C001F055FF20002168443001F050FFC6
S21400419010BD70B50D1C04000430161C01F065FF40
S2140041A0291C281C06F038FA311C051C301C06F0A9
S2140041B033FA011C281C05F0ADFE011C200044301B
S2140041C001F053FF70BD70B5FE2600250400B6054D
S2140041D02A1C311C043001F003FF20002A1C311C6D
S2140041E0443001F0FDFE311C2000FFF7C7FF2A1CFB
S2140041F0291C2000FFF7CDFF200070BD70B50D1CF8
S2140042000400043001F024FF291C281C06F004FAE0
S214004210011C2000443001F01BFF70BD70B5040087
S214004220443001F029FF0434051C200001F024FF6F
S214004230061C200001F020FF011C301C06F0ECF9E3
S214004240011C281C06F008FB0021041C05F004FED7
S214004250002800D00024201C70BD10B5FFF7DEFF3C
S21400426005F0FEF910BD000013B50A4C200002F060
S21400427013F86A460123D3701371FA23DB00D38048
S21400428000232000694693705370137001F0ACFF52
S21400429016BDC0467509002010B5024801F05AFF49
S2140042A010BDC0467509002070B50C4CC2B0200089
S2140042B001F0FEFE0600200001F000FF05002000D1
S2140042C001F002FF2B0002000549009602A809F043
S2140042D043FE02A800F036F942B070BD7509002012
S2140042E0D710010070B50C4CC2B0200001F0E0FE03
S2140042F00600200001F0E2FE0500200001F0E4FECA
S2140043002B0002000549009602A809F025FE02A827
S21400431000F002F942B070BD750900209C10010043
S21400432070B50C4CC2B0200001F0E0FE0600200084
S21400433001F0D0FE0500200001F0D2FE2B000200A6
S2140043400549009602A809F007FE02A800F0FAF850
S21400435042B070BD75090020B310010010B50248C8
S21400436001F098FE10BDC04675090020072800DD44
S2140043700720C343DB171840014B18607047C04640
S21400438090000020F8B50E4E17003060FEF750FB88
S214004390002308240B4D2B703068FEF74BFB0028DB
S2140043A00AD1FA20013CC000FEF7AEF9002CF3D18A
S2140043B03800FFF7DBFFF8BD01232B70F8E7C04697
S2140043C078090020760900200EB400B50C4BC2B068
S2140043D01B78002B10D00B4B1B6883420CDBFFF7BF
S2140043E081FF44AA439902A801920AF049F9064BB4
S2140043F002A9186800F096FE42B008BC03B0184741
S214004400760900209000002078090020F0B51F00F3
S214004410164BC1B01B780C001600002B24D0144B92
S2140044201B68834220DBFFF75DFF124D002C08D08F
S21400443011492200684609F08FFD6946286800F099
S2140044404CFE3400A31BBB420ADA22780B496846AE
S21400445009F082FD6946286800F03FFE0134F1E766
S2140044600749286800F05EFE41B0F0BD76090020DE
S2140044709000002078090020361101003A11010052
S214004480A6140100F7B501931E4B06001B78009199
S2140044901400002B34D01C4B1B68062B30DD019B10
S2140044A01A4D002B02D02B68002B12D02B68E71871
S2140044B0FF2F0ED816482200C018009908F05BFCA3
S2140044C0341E2F6005D03F223100124809F0B2FD9D
S2140044D00024019B234313D02B68002B08D00D4FDC
S2140044E00B4A39000720FFF791FF00233B702B6033
S2140044F0002C05D02300009A31000720FFF786FF26
S214004500F7BDC04676090020900000207C0A0020F7
S2140045107C090020800A0020074B10B51B7801009C
S214004520002B07D0054B1B68062B03DD044B1868D1
S21400453000F0D3FD10BDC046760900209000002094
S21400454078090020074B10B51B780100002B07D018
S214004550054B1B68062B03DD044B186800F0E2FDD4
S21400456010BDC04676090020900000207809002083
S214004570074B10B51B780100002B08D0054B1B68B5
S214004580062B04DD044B0A22186800F02AFE10BD34
S2140045907609002090000020780900201B4BF7B514
S2140045A01B7806000F00002B2ED0194B1B68062B1D
S2140045B02ADD002800D1174E002F01D1164B1F8888
S2140045C0164D1749286800F0ADFD00247B1E325DAD
S2140045D09C420ADA1349684609F0BEFC0134694673
S2140045E0286800F07AFDA4B2F0E70F49684609F0A3
S2140045F0B3FC6946286800F095FD0949286800F074
S21400460091FD0022044B1A80F7BDC04676090020B3
S21400461090000020C20A0020C00A0020780900206E
S214004620F9100100301101003B11010013B5002004
S2140046306B46DC1DD87109F0BDFD201A16BD0000C2
S21400464010B50121054802F013F80549041E054877
S21400465000D0054900F066FD200010BDC40E002005
S21400466040110100980300204D110100F0B5C7B0BD
S2140046700C000500144903A801F076F9002306AEE5
S214004680009301332100FF3332001048802701F0E9
S214004690A5FE02247F00315DFF2909D103A9280069
S2140046A001F00CF903A801F017F9280047B0F0BD97
S2140046B003A8013401F009FABC42ECD104492800F1
S2140046C001F052F9EEE7C046A6140100C40E002021
S2140046D0DE120100F0B5144985B00500002401F093
S2140046E043F90327114B1022195D01A801F0B0F918
S2140046F001A9280001F0D6F901A801F0EDF8230081
S214004700661C3B40032B05D10F2C06D00849280019
S21400471001F0CEF93400102EE4D1280001F02AFA78
S214004720280005B0F0BDC046A6140100B112002056
S2140047305B300100014B18687047C046D40F00205C
S214004740014B18687047C046D00F002030B50C00EB
S21400475085B01B49050001F0CFF9002815D019498E
S21400476001A801F001F9210001A801F0B8F9010043
S214004770154800F0CDFC01A801F0AEF8200001F0CD
S21400478006FA124B186005B030BD1149280001F03A
S214004790B3F90028F7D00F4901A801F0E5F8210089
S2140047A001A801F09CF90100074800F0B1FC01A83F
S2140047B001F092F8200001F0EAF9074BE2E7C04664
S2140047C0A8120100B512010098030020D40F0020A3
S2140047D0C5120100D0120100D00F0020F0B5002154
S2140047E095B03B4801F0C8FD3A4C02A8210001F004
S2140047F0BBF8210005A801F0B7F8012108A8FFF7CB
S21400480035FF21000BA801F0AFF80026012532493C
S2140048100BA801F071F900284CD1310008A801F06E
S21400482081F9017811A801F005F911A90BA801F08A
S214004830E8F811A801F050F8284F0BA8390001F04D
S2140048405BF9274901900BA801F056F943425841FD
S214004850019B5A4253410340019308D00BA902A87A
S214004860002D00D105A801F01DF90136CFE739006B
S2140048700BA801F041F9019D0028F6D102A90EA867
S21400488001F0B5F805A911A801F0B1F811A90EA814
S214004890FFF75CFF11A801F01FF80EA801F01CF846
S2140048A0210002A801F0B5F8210005A801F0B1F832
S2140048B00125DAE70BA801F00FF808A801F00CF8BC
S2140048C005A801F009F802A801F006F815B0F0BD39
S2140048D0C40E0020A6140100152201006C11010070
S2140048E0D60F0100F0B587B004930CAB03921C4FB3
S2140048F004CB3D781B781B4C01936B01E4180291A6
S214004900060001002000059209F05FFB029BA360F1
S214004910039BE360049B2361059B63610E9BA3617D
S214004920019B012B0CD0002323773B783200013308
S2140049300D4907203B70FFF747FD280007B0F0BD84
S2140049406B461B790E9A237708492B00300003F03C
S214004950DDF80749020060770720FFF735FDE4E73A
S214004960C20E0020D80F00202C120100814C00003F
S2140049701812010010B543010248C0188368984712
S21400498010BDC046D80F002070B50D0002210400EF
S21400499002F0B7FAC0B2002816D10100200002F0DB
S2140049A088FAC0B200280FD1280009F016FB2900AB
S2140049B00200200002F089FAC0B2002804D10121CA
S2140049C0200002F076FAC0B270BD0000F0B5A7B0C5
S2140049D01F002CAB01911C7806A90500160002A842
S2140049E0802202F055FA1C496401091902A8FFF753
S2140049F0CBFF002803D06323180027B0F0BD31009A
S214004A003A0002A802F061FA061EF4D102A802F0EB
S214004A104CFAC7B2040039B2280003F06FFE032335
S214004A200028E9D0E4B2220006A908F0A4F9019B08
S214004A300A491F700720FFF7C7FC230006AA08498B
S214004A400720FFF7E3FCFFF7F1FD06490200072009
S214004A50FFF7BAFC3300CFE7D80F00205B11010048
S214004A60E21B0100E3190100F0B50600A9B04C36C0
S214004A70059205000F0005AA0B2130001C0002F06D
S214004A80E3FF0390002804D08423BB7000233B641C
S214004A903EE0039A0F21300002F0D6FF0290002875
S214004AA001D18523F1E7AD78012D00D081E06A467B
S214004AB0127B02AB544902989A7502F09BFA039057
S214004AC0002828D102AB1635ED186B461B7B620119
S214004AD02B704E4B29009B181B6908A89847162177
S214004AE02B7802A80094091808AA386DFFF76EFF05
S214004AF00400039D02AB9B7D220045490720FFF77B
S214004B0063FC002C4FD1002D43D043233C64BB7084
S214004B10002029B0F0BD3F49029802F06BFA0290DF
S214004B2000286AD102000621300002F08DFF061E22
S214004B3018D002F095FB002803D0012809D00424E1
S214004B400EE0324B64011C19607F03F02FF804005E
S214004B50D0E72E4B64011C19607F03F03BF804007D
S214004B60029DC7E7172502ABED18284B62019B187C
S214004B7028702900DB6808A8984716212B7802A819
S214004B800094091808AA386DFFF720FF35000400C6
S214004B90B0E702AB9B7D02223B643B003C331A70BD
S214004BA04523BB70B4E7042C01D0142C29D18623EE
S214004BB06BE7032D00D074E71726144B64011C190D
S214004BC0636908AC0493029B20009D7802ABF6183C
S214004BD0029B357059682A0009F02CFA6B461B7B3D
S214004BE0310063552000049B9847002803D14423D6
S214004BF03864BB708CE7012801D1A12345E704285F
S214004C00D5D0A02341E7C046DF110100D80F002011
S214004C10E8110100E3110100F7B5060000244C3648
S214004C2001AA07000D0030000B21019402F00CFFD2
S214004C30300001AA0B2102F007FF0600A04217D0A1
S214004C400D4B1B789C4211DA0C496301C9183000E1
S214004C5002F0D0F9002806D12300019A2900380076
S214004C60FFF702FFFEBD0134E4B2E9E78423AB7030
S214004C7000202864F6E7C046C20E0020D80F0020A9
S214004C80F0B50F25A7B002ABED1800230F001600F5
S214004C900B4C2B705301E41822000390094907209F
S214004CA0FFF792FBE368290006A898472B7806AA28
S214004CB0009639000398FFF789FE27B0F0BDC0467E
S214004CC0D80F00204212010084238B70002363203B
S214004CD00B64704700B591B01549684609F075F940
S214004CE01449684609F05AF96846FFF72BFC124942
S214004CF0684609F06AF91149684609F04FF96846AE
S214004D00FFF720FC0E4B0F4A0F49684609F024F9BE
S214004D106846FFF717FC0D48FFF714FCFFF786FC04
S214004D200B4902000720FFF74FFB11B000BDC0463D
S214004D307A110100981101009E110100AB110100CB
S214004D40B1110100BD110100C6110100A614010039
S214004D50E319010007B50122194B01001A70002261
S214004D60184B19481A70914228D11849103209F088
S214004D7061F908204042FFF777FAE121072249024D
S214004D801348FFF7FFFA01210920FEF775FF0121FE
S214004D900920FEF775FF0023FA2201930D4BD2007F
S214004DA05A2100930C48FF2303F010FB03F0DCFAB3
S214004DB03220FDF7A9FCFFF78DFF07BD1022D6E7CE
S214004DC096000020C20E0020A000002072110100F4
S214004DD098030020A61401001411002010B5034A01
S214004DE00D21034801F076FA10BDC046C41200201B
S214004DF0C40E00207FB50500164901A800F0B4FDDA
S214004E00154E3000FDF7B6FDC4B22E2C15D0FF2C83
S214004E10F7D0210001A800F058FE242C09D10F4934
S214004E20280000F0A1FD01A800F056FD280004B0FF
S214004E3070BD232CE5D10A49F2E7210001A800F055
S214004E4044FE002101A800F040FE01A9280000F061
S214004E5035FDE8E7A6140100980300206E11010056
S214004E607011010010B586B06846FFF7C3FF1A49F7
S214004E70684600F041FE194C00280FD0012103A817
S214004E80FFF7F4FB03A9200000F042F903A800F0A6
S214004E9023FD684600F020FD06B010BD10496846A8
S214004EA000F02AFE002803D003A8FFF713FCE9E76A
S214004EB0FFF7C6FB01236A4619000A4801F0B0FA5C
S214004EC0002804D00849200000F02CF9E1E7074943
S214004ED0200000F002F9DCE76E11010098030020C4
S214004EE070110100C40E00205E120100671201005E
S214004EF0F8B5214B1B78002B3BD0204C2378002B99
S214004F0009D01F491F4800F00DF900211E4801F086
S214004F1033FA002323701D4E3378002B26D11C4C09
S214004F200133236023680A2B10DC164D2800FDF79A
S214004F30F9FC071E0BD02800FDF71CFD154BC1B26F
S214004F402800197000F0F8F801233370F8BD0A2223
S214004F502168280000F045F9FA208000FDF7D4FB10
S214004F6023680A2BDCD1044B1F70EFE7FFF77AFFAC
S214004F70ECE703F02FFBE9E7950000209400002003
S214004F806E12010098030020C40E0020C80F0020F7
S214004F90CC0F0020C90F002010B5024800F016FB09
S214004FA010BDC0465810002010B5024800F00EFB99
S214004FB010BDC0461411002010B5024800F006FBD4
S214004FC010BDC046D0110020F7B584211A4FC90580
S214004FD0380000F00AF91949194800F006F919498D
S214004FE0194800F002F9194D1949280000F0FDF89B
S214004FF0184E1949300000F0F8F81849184800F023
S214005000F4F80124002331000326019322000094C3
S214005010144800F0ADFA3900009601940A230B22DA
S214005020114800F0A5FA00962900019412231322D5
S2140050300E4800F09DFAF7BD8C12002000040042D6
S21400504090120020000800429412002098120020BF
S214005050000C00429C120020001000420004004396
S214005060A01200205810002014110020D01100209B
S21400507010B507F04BFE10BD10B507F051FE10BD81
S214005080F7B506000D000C008B180193019B671BFB
S2140050909C4207D0336821781B683000984701345B
S2140050A00028F3D13800FEBD70B505000C00081EC0
S2140050B007D008F092FF2B6802005B6821002800EA
S2140050C0984770BD10B5FFF7EFFF10BD10B5036829
S2140050D08A685B680968984710BD10B5FFF7E4FF5B
S2140050E010BD10B503681B68984710BD10B502497F
S2140050F0FFF7DAFF10BDC046A414010070B5040027
S214005100FFF7D2FF05002000FFF7F0FF401970BD43
S21400511070B50500FFF7DAFF04002800FFF7E6FF8A
S214005120201870BD70B50400FFF7BEFF0500200014
S214005130FFF7DCFF401970BD70B50500FFF7D1FF23
S21400514004002800FFF7D2FF201870BDF0B5160047
S21400515000228DB002AB053301900D00DA77012EE8
S21400516000DC0A260BAC2800310004F035FD0F00E9
S214005170CBB228003100009304F0A8FCFBB2373312
S2140051800500013CDBB2092F02D8009B3033DBB2AE
S2140051902370002DE7D121000198FFF785FF0DB0A1
S2140051A0F0BDF8B506000C00151E04D10368C9B2A0
S2140051B01B689847F8BDD2B20A2D0DD12A000029E7
S2140051C00ADA2D21FFF78DFF614207002A00300022
S2140051D0FFF7BCFF3818EDE721003000FFF7B6FFF9
S2140051E0E8E710B5FFF7DDFF10BD01607047F0B5CA
S2140051F005AC25780468981E471EB84126689207B5
S214005200000632430243072022600140AD01626877
S21400521029430020022B00D058031143014361604C
S214005220F0BD10B5C0240368A40318681205224018
S2140052300243C020090480020140114319605A68E5
S2140052401043586010BD0122036819680A431A60AB
S2140052501A68D207FCD4DA69D207F9D4704702225A
S214005260036819680A431A60DA699207FCD4704723
S21400527003681A7ED20702D41A7E9207FCD57047BE
S214005280002203685A8370470368187E4007C00FE1
S21400529070470368187EC0097047802302685B4227
S2140052A0117E0B43137670470368187EC007C00F45
S2140052B070470368188DC0B2704703681A7ED2071D
S2140052C0FCD589B2012019857047012203689A75BA
S2140052D07047012203681A757047000070B50125F3
S2140052E004684B082B402940206809075B070B43DE
S2140052F003432360044B5100186804F0E7FB0138B1
S214005300C0B2207370BDC04698000020012203681A
S21400531019680A431A601A68D207FCD4DA69D207F9
S214005320F9D470470222036819680A431A60DA69DA
S2140053309207FCD470470368DA699207FCD402210E
S2140053401A688A431A6070470268936A5B0A5B02AF
S21400535019439162137E5B07FCD5906AC0B2704712
S2140053608422036830B5D205934211D0214A934275
S21400537034D0214A934234D0204A934234D0204A33
S214005380934234D01F4A934227D10D23182201E0BE
S214005390082312220121032599401B48C0240160DE
S2140053A099082B40AB40FC359D4089000918A400A5
S2140053B008599200A843C0259D402B0003430B517B
S2140053C0124BD1184023CB67114908681149086071
S2140053D00E495218D16F1942FCD030BD0923132252
S2140053E0D8E70A231422D5E70B231522D2E70C238D
S2140053F01622CFE70004004200080042000C0042DC
S214005400001000420004004300E100E004180040E1
S2140054108400002098000020F8B516001D000268E1
S214005420184B04000F009A4200D101262000FFF717
S21400543097FF2000FFF707FF1C22BB0013407207F0
S2140054402468120C134323608423A375012F18D1FC
S2140054501021012E00D008390B4B69431868C00094
S21400546004F034FB0722A3890240DB045203DB0C62
S2140054701343A3810304A089DB0C400B40031843AD
S214005480A081F8BD0004004398000020F7B507008F
S214005490019308AB1E780D001400FFF737FF3800A5
S2140054A0FFF75EFFC022240592031440B2070C26C5
S2140054B007211643019A34430A40C0261100802271
S2140054C0B6022D043B683540920225430A431D6010
S2140054D05A60F7BD0120704710B50368014A1B6A81
S2140054E0984710BD1304000010B504000069FFF7CC
S2140054F0AAFE2000143003F083FB20005C3003F08B
S2140055007FFB10BD10B5143003F08EFB10BD10B538
S214005510040020005C3003F087FB0028F9D12069E6
S214005520FFF7A6FE10BD10B55C3003F083FB10BD80
S21400553070B5050004001435280003F065FB230051
S214005540A8331B780600FF2B0AD0280003F072FB56
S2140055500A2805DD2300B434B0331B6822681A60BD
S214005560300070BD10B5143003F072FB10BD0000A3
S214005570F7B51D0008AB1B780400009309AB1B7839
S2140055801600019300234360FA239B0083600E4BB2
S2140055900F0008330360143003F01CFB20005C305F
S2140055A003F018FB6A4623001278A43327619A702A
S2140055B06A4612791E70DA7022005D70FF23A832E8
S2140055C0200013701374FEBDA814010070B504000B
S2140055D00069FFF759FE002819D025002069FFF75B
S2140055E068FE14350100280003F0FFFA2300A833F4
S2140055F01B78FF2B0BD0280003F01CFB092806DCC9
S21400560023002200AC33B4321B6812681A6020698B
S214005610FFF74AFE00280DD025005C35280003F071
S21400562003FB002812D0280003F0EEFAC1B220696E
S214005630FFF743FE2069FFF72CFE002805D02069FF
S214005640FFF72BFE2069FFF71BFE70BD2069FFF7F2
S21400565040FEEFE7F8B5040000690E002500FFF7EE
S21400566023FE5C35002820D13F27280003F0FAFAF5
S21400567000282DD0EFF31083012213420CD1EFF354
S21400568005833B40F1D0103B5BB2002B17DB9B0839
S214005690C033144A9B009B582069FFF705FE00287C
S2140056A0E3D02000FFF792FFDFE7280003F0BCFA04
S2140056B00028D9D131002069FFF7FFFD0FE00F2247
S2140056C01340083B9B08084A9B009B181B68E3E7AF
S2140056D02800310003F089FA2069FFF7F6FD012063
S2140056E0F8BDC04600E100E01CED00E0F0200140FF
S2140056F03039484248417047F0231B011940802347
S21400570006209B0099420AD00133FF3301309942AC
S21400571005D0802302385B00994200D000207047F5
S2140057200F2001400020012903D00239481E814184
S214005730481C70470300F0B50400A43385B0187801
S2140057400F000E211500FEF705FB2300A533187881
S2140057500E21FEF7FFFA2300A73303931B78022BD4
S21400576007D12300B8331878FF2802D00E21FEF7A1
S214005770F1FA2600A8363078FF281AD00121FEF765
S2140057807BFA0C2133781F4A594320008B5C521851
S214005790517801221C4EDB01AC309E1906601B4876
S2140057A08A401B1821002000B431B03003600A6024
S2140057B01A6001223B0011002069FFF72DFE290028
S2140057C02000FFF799FF290006002000FFF7A8FF3A
S2140057D0290007002000FFF789FF3B0000903100FA
S2140057E020690122FFF703FD2300A6331A78039BE6
S2140057F020691978FFF715FD2069FFF730FD05B021
S214005800F0BDC046E81201001828004014280040E9
S21400581070B50E0000254468002C0BD023683100BC
S2140058205B6820009847002802DB2D18E468F3E741
S21400583001256D42280070BD70B50D004468002C2F
S21400584008D0236829009B6820009847002802D1CA
S214005850E468F4E7200070BD70B50D004468002CC5
S21400586007D0236829002000DB689847E4682D18D5
S214005870F5E72C7070BD70B50D004468002C08D09C
S214005880236829001B6820009847002802D1E46896
S214005890F4E7200070BD00000121064A10B5136829
S2140058A005480B4005D10224047024194470436057
S2140058B0116010BDA4120020A8120020002303606F
S2140058C00A68436002604A68836042608A68826051
S2140058D00B604B608B60704710B50400006807F0E3
S2140058E01FFA200010BD10B504000068002801D083
S2140058F007F016FA00232360A360636010BD70B53E
S21400590004000D000068013108F00AFB031E01D0F8
S214005910012028C470BD036810B50400002B04D015
S21400592043688B4201D3012010BD2000FFF7E7FF3C
S2140059300028F9D0A368002BF5D122681370F2E78F
S21400594070B50E00110004001500FFF7E4FF0028F4
S21400595004D12000FFF7C7FF200070BDA56031000E
S214005960206808F032FBF7E7002370B504000D004E
S214005970036043608360994207D0080008F02DFB5F
S214005980290002002000FFF7DBFF200070BD70B585
S214005990050000680C00002804D0096800290BD117
S2140059A007F0BEF923682B6063686B60A368AB6082
S2140059B000232360636008E06B68A2689342EFD31D
S2140059C008F003FBA368AB600023A36070BD10B5AE
S2140059D00B000400884205D00968002904D09A68A4
S2140059E0FFF7AEFF200010BDFFF77DFFFAE70023AC
S2140059F010B50400036043608360FFF7E8FF2000F3
S214005A0010BD10B50400814201D0FFF7C0FF200092
S214005A1010BD70B504000D1E09D0080008F0DDFAB0
S214005A20290002002000FFF78BFF200070BDFFF763
S214005A305AFFFAE7002313B5040001AA11700360A9
S214005A404360836011005370FFF7E3FF200016BD2C
S214005A501FB504000023080023606360A36001A94B
S214005A6003F0B4F801A92000FFF7D3FF200004B02C
S214005A7010BDF8B504000F1E02D100263000F8BD98
S214005A800126002AFAD08368D5182900FFF743FFBD
S214005A900028F2D02368A2683900981808F095FA12
S214005AA0A560EBE710B58A680968FFF7E2FF10BD4E
S214005AB070B505000C00081E06D008F08EFA21000E
S214005AC002002800FFF7D5FF70BD07B5002201AB26
S214005AD019705A7019000132FFF7CBFF0EBD10B5D2
S214005AE08A6809680400FFF7C4FF002802D1200076
S214005AF0FFF7F9FE200010BD836810B5002B07D114
S214005B000120002903D00B7858425841C0B210BD7E
S214005B10002902D103681B78F6E7006808F04BFA04
S214005B200300F1E783688B4203D903685818002BFB
S214005B3002D10023014803707047C046B01200200F
S214005B4070B50D00002A06D0002904D084689C4257
S214005B5002D800230B7070BD013AE41A944200D9B3
S214005B60140001682200C918280008F063FA002310
S214005B702B55F0E710B50468002C07D020780028D5
S214005B8004D008F021FB20700134F7E710BD03684D
S214005B9010B5181E01D006F089FF10BD1FB50E4BBC
S214005BA000221B6800930D4B1B6801930C4B1B686F
S214005BB002930C4B1B680393030069468958043212
S214005BC00C0E1C700C0C5C700C0A9C70D9700433A4
S214005BD0102AF2D104B010BD0CA0800040A08000B6
S214005BE044A0800048A0800010B50248FFF7D6FF0A
S214005BF010BDC046B1120020074B10B5040041711D
S214005C0082710649186803F061FFFA239B00584327
S214005C10E060200010BDC0468400002040420F0017
S214005C2010B5040002214079FEF726F8014BA36068
S214005C3010BDC04630F8FFFF70B505000E0000240A
S214005C406879FEF771F8B04204D1EA68631C9442A2
S214005C5002D30024200070BD1C00F1E770B5D0B060
S214005C600D000400FCF71AFD002D07D1A3683D4A7D
S214005C70C31A934202D8207C50B070BD0025A060A5
S214005C80012160792571E570A57065702570FDF7B6
S214005C90F7FFFA20FCF738FD60790121FDF7ECFFED
S214005CA060792900FDF7ECFF1420FCF72DFD72B695
S214005CB001216079FDF7E4FFA0239B00013BFDD1A5
S214005CC002216079FDF7D8FFA023013BFDD1290012
S214005CD02000FFF7B1FFA84203D10020207462B66F
S214005CE0CAE701212000FFF7A7FF0028F5D0A0266D
S214005CF0760000212000FFF79FFF6B460121E85049
S214005D002000FFF799FF2B0008356B445860B5421A
S214005D10EFD162B6002201216846D300C0586B441A
S214005D205E68002801D0002E02D100202074A3E770
S214005D30D510635D5B00DBB2B04210D30132635511
S214005D40282AE9D16178237822795B18A1785B1834
S214005D50E1785B18DBB29A42E7D10120E6E70B4315
S214005D60ECE7C046CF070000F8B50D0011000400B0
S214005D70FFF774FF002807D0A379DAB20B2A05D004
S214005D8002D3153B012B13D9194810E0A07804F074
S214005D9087FF002D0BD006F071FD164A164B05F056
S214005DA009FF0022154B04F0C1FF06F0B9FDF8BD4F
S214005DB07F20A678304004F023FF8721C90504F031
S214005DC02BFC071CE07804F01BFF391C04F0A2F83B
S214005DD006F054FD0A4A0B4B05F0ECFE76B206F0D0
S214005DE09FFD002ED5DA80231B06C018D1E7C046DB
S214005DF00000C07FCDCCCCCCCCCCFC3F00004040DB
S214005E009A9999999999B93F70B500210400FFF7BE
S214005E1025FF002807D0A379DAB20B2A05D002D3D3
S214005E20153B012B05D90E4802E0207804F038FF18
S214005E3070BD207804F034FF8721C90504F0ECFB20
S214005E40051C607804F0DCFE291C04F063F806F0FC
S214005E5015FD044A044B05F0ADFE06F061FDE7E7CC
S214005E600000C07F9A9999999999B93F10B5040096
S214005E70081C06F003FD084A084B05F09BFE0200CE
S214005E800B000020064905F061FA06F049FD0549B9
S214005E9004F0C2FB606010BD182D4454FB2119406D
S214005EA00000F03F0024744970B504001D1C01700A
S214005EB0111CFFF7DBFFE56025616561FCF7F4FB6D
S214005EC0E06170BDD0B504000078032835D803F033
S214005ED0F3FD1902041EE068D0BD606806F0CEFC33
S214005EE00022174B05F032FA0600E0680F0006F0B5
S214005EF0C5FC02000B003000390005F05BFE06F022
S214005F000FFDE9E7E168606904F0A6FCE4E7E168F4
S214005F10606904F0A1FC06F0B1FC060060680F00A2
S214005F2006F0ACFC0022064B05F010FA02000B004F
S214005F303000390005F00AFAE1E70020CCE7C04659
S214005F4080842E41F8B504000E1CFCF7ADFBE36917
S214005F500500C01A04F054FEE368011C2361A0612A
S214005F60E5616661606804F067F9A06006F086FC8B
S214005F7002000B000020184905F0E8F903F0EEFADD
S214005F8006F0CEFC051C06F079FC02000B00002093
S214005F90124906F08FF8060060690F0006F06EFCE6
S214005FA002000B003000390005F004FE06000F006A
S214005FB0281C216904F030FB06F060FC02000B0090
S214005FC03000390004F0B2FE06F0AAFCE0602000C3
S214005FD0FFF778FFF8BDC0460000F0BF0000F03FB6
S214005FE0F7B5FE2600270400B605151C3B1C321C20
S214005FF001910121FFF758FF20003B1C321C203086
S2140060000121FFF751FF0849019804F015F90749E7
S21400601004F002FB6060606265612561E5606563AF
S2140060202563E5622000FEBD3D0A57400024744902
S21400603010B50400081C044904F0FEF8034904F0F7
S214006040EBFA6060606210BD3D0A57400024744958
S21400605010B50400FFF776FF2034011C2000FFF780
S21400606071FF2000FFF72EFF10BD41610161C16086
S21400607041630163C162704710B52030FFF722FF0D
S21400608010BD0000024B1869431E9841C0B270470D
S21400609000200040002303707047000010B5FFF793
S2140060A0F1FF0028FBD1014B986910BD002000408D
S2140060B010B5FFF7F3FF3F23184010BD10B5FFF7EC
S2140060C0EDFF0005800E10BD10B5FFF7E7FFC0031B
S2140060D0C00E10BD10B5FFF7E1FF8002C00E10BD68
S2140060E010B5FFF7DBFF8001000F10BD10B5FFF7FE
S2140060F0D5FF800E10BD0000C888094BCA78C018AE
S214006100830608795204800510430A7810438A787B
S214006110120310434A789201104318437047C04652
S21400612030F8FFFFFA2010B51F248B0EC0001B1896
S214006130480C2040D0703F20D3808B011B0F13717A
S2140061400B0B234093708B09034001405370117072
S21400615010BD000030B58DB00500FFF79FFF01AC05
S214006160010022002800FFF7DDFFE388094A03A8A4
S2140061709B1808932379013B0793E3780693A3784B
S2140061800593637804932378039306F0E3FE0DB03B
S21400619030BDC04694F8FFFF10B5FFF773FF002828
S2140061A0FBD10221054B064A1A819A811A888A4336
S2140061B01A80FFF767FF0028FBD110BD00200040C3
S2140061C0FF81FFFF10B5FFF75DFF0028FBD102231C
S2140061D0044A11880B431380FFF754FF0028FBD1B5
S2140061E010BDC0460020004070B50500FFF784FFD4
S2140061F00600FFF747FF0028FBD10B4C2800FFF7EF
S214006200CBFFA661FFF73EFF0028FBD18022238844
S214006210120213432380FFF735FF0028FBD1280026
S214006220FFF7D0FF70BDC046002000401FB50E4BE4
S2140062300400994200D2190001A8019106F060FC02
S214006240037B02A9CB700369084A01330B714369CB
S2140062509B18CB80037A8B7003794B700368200001
S2140062600B70FFF7C1FF1FBD80436D386C07000041
S21400627010B5FFF791FFFFF705FF0028FBD10123BC
S214006280044A11880B431380FFF7FCFE0028FBD15D
S21400629010BDC04600200040802310B5094A5B00B0
S2140062A0516904000B4353610422074B1A61FFF740
S2140062B0DFFF064A064B20001A80FFF783FF012304
S2140062C0237010BD0004004000100040088BFFFF44
S2140062D000200040F8B5254B1600FF22036000237F
S2140062E00D00522142748274C2740275421C4371BE
S2140062F00371037243778377C377D3772A3211709B
S2140063000531517000220400194F8367C36702638A
S214006310390012229C3006F02EFD2000390048225B
S2140063201431B03006F027FD2000390009225C3118
S214006330F83006F020FD3900A01C6531FF3003223E
S21400634006F019FD0B4BE6609E420CD10A2328008E
S214006350637525740121FDF78FFC207C0121FDF774
S2140063608FFC2000F8BD0B23F1E7C04600093D0076
S214006370DC140100C412002070B5437D04000D003B
S2140063800B2B02D0C06800F0BFFC237A002B07D18D
S2140063901B226270643A2370A270E37023716371EB
S2140063A02900200000F0E4FB0500200000F0A0FA21
S2140063B000232000A37700F095FB280070BD0000A6
S2140063C010B5054C002901D1207810BD2178012296
S2140063D000F06EFCF8E7C046381A0020F7B51E003D
S2140063E008AB1B78170001930A0033000321040052
S2140063F000F0E2FA051E10D0019B0B21002B00D105
S2140064000321200000F0AAF9200033003A000321FF
S21400641000F0FEF9200000F06BFA2800FEBD000038
S214006420F0B589B09668040010006A4600AF7B603D
S214006430731CFB610733DB08DB00D31A9D467961CA
S214006440FB60721C00236946FFF77AFB200000F011
S21400645061FA051E02D00023BB6174E0042279694C
S214006460200000F02FF90028F5D0721D7969200071
S21400647000F0A4F90028EED07C49200000F058FA7D
S2140064800028E8D00121200000F078FA0028E2D0A9
S2140064900221200000F062F9FA692600EA402C3654
S2140064A0D2B231782000083500F0ACF9202DF3D1B7
S2140064B00121207CFDF7E4FB200000F019FA7B693F
S2140064C0FA69043319002000BB6000F0FBF80028CE
S2140064D0C1D06649200000F02BFA0028BBD001216D
S2140064E0200000F04BFAB8610028B4D080253B7D30
S2140064F06D00ED1AFB69ADB2AB4228D8207C0021B6
S214006500FDF7BEFB31780222200000F07BF9200068
S21400651000F0FCF80025FB69AB420AD9FB682000B6
S2140065205A5D23002C331978013500F06BF9ADB2B3
S214006530F1E7207C0121FDF7A3FB7B68002B4FD100
S214006540200000F0D5F9BD46B86909B0F0BDBB8B98
S2140065507B6100233B617B69AB4200DC1D00207C35
S2140065600021FDF78DFB23002C3319780222200032
S21400657000F048F9200000F0C9F80026AE420CDA18
S2140065803A69FB6820009B189A5D23002C33197823
S214006590013600F037F9B6B2F0E7207C0121FDF7AE
S2140065A06FFBA36F31495B19A3673B6920005B193A
S2140065B09BB23B617B695D1BABB27B6100F0B8F9B7
S2140065C0002800D147E70121200000F0D7F9002875
S2140065D000D140E780257B696D00002BBBD1ACE77E
S2140065E06B46224920007B6100F0A2F9B8610028C2
S2140065F038D06A46BB68207CA367FB690021073356
S214006600DB08DB00D31A9D46FDF73AFB23002C334C
S21400661019780322200000F0F5F820006E4600F0FE
S21400662075F80025FB69AB420AD923002B3319788D
S2140066300022200000F0E6F870550135EDB2F1E7D3
S214006640200000F055F90023FA699A4207D9FA6843
S214006650F15CD25C914205D10133DBB2F4E77B6991
S2140066609D4670E77B699D46F5E6C04600CA9A3BA4
S214006670030070B554331D7804000A00002D05D1C0
S2140066802A000C2100F014FB280070BD8023EF21A7
S2140066905B0200F091F9051EF6D0230055331978F9
S2140066A0200000F05BF8200000F022F9A16D200029
S2140066B000F03EF90500E7E710B5C06800F06CFB97
S2140066C010BD0000F8B50F00002105001600FFF70A
S2140066D077FEF72303400020032B08D0EC6B8442A0
S2140066E006D109482200012102F0DAFA2000F8BD9E
S2140066F0BE19B44204D8361BEE67AF670120F6E732
S2140067000023EB67F9E7C046381A002010B5C37FB0
S2140067100400002B04D003007B331978FFF7CCFF6E
S21400672023007A3319782000FFF7C6FF2300793359
S21400673019782000FFF7C0FF23007833197820006F
S214006740FFF7BAFF012010BD10B5016804004268CB
S214006750C06800F0F1FA0120607710BD70B5437F85
S21400676004000D00002B01D1FFF7EEFF207C002176
S214006770FDF786FA0B2D15D005D8022D09D0032D6E
S21400678007D0290016E0522D03D0D82D01D0202D99
S214006790F7D129002000FFF78FFF2000FFF7B6FF94
S2140067A0012070BD29002000FFF786FF2000FFF7BC
S2140067B0ADFFEE212000FFF77FFFF1E770B5032164
S2140067C0040016000025FFF7C9FFB54212D00021CD
S2140067D0E06800F0E1FAFF280AD0207C0121FDF7EE
S2140067E04FFA07480022072102F05AFA002070BD2F
S2140067F00135EAE7207C0121FDF742FA0120F6E7A1
S214006800381A002010B51100C06800F0C5FA10BD97
S21400681010B50C0011001A00022C01D0032C02D176
S214006820C06800F0BEFA10BD70B504000521FFF781
S21400683095FF0021E06800F0AFFA251DE877207C80
S2140068400121FDF71DFAE87F70BD70B50400152123
S214006850FFF784FF0021E06800F09EFAA51DE877A8
S214006860207C0121FDF70CFAE87F70BD70B50600AC
S2140068700124FFF7EAFF20420ED1B7213000FFF7D0
S2140068806DFF307C2100FDF7FBF93000FFF7DDFFE0
S2140068902040051E02D0F477200070BD02000D21B6
S2140068A0024802F0FDF92C00F6E7C046381A002030
S2140068B070B505000124FFF7C8FF204212D0E92179
S2140068C02800FFF74BFF287C2100FDF7D9F92800A8
S2140068D0FFF7BBFF204007D000220E21034802F03E
S2140068E0DFF90024200070BDE877FBE7381A0020A7
S2140068F010B504000121007CFDF7C2F9E37F002BF0
S21400690002D02000FFF7D4FFE06800F031FA002341
S214006910637710BD10B5847F002C04D000220F21B1
S214006920024802F0BDF9200010BDC046381A00200B
S214006930F8B506000C002023013BFDD1FBF7B4FEA2
S214006940012705003000FFF76FFF331DDB7F3B425A
S21400695001D10120F8BDFBF7A7FE401BA042F1D3F2
S214006960FBF7A2FE401B8442F3D803480022042112
S21400697002F096F90020EDE7381A002070B5040002
S2140069800D000621FFF7EAFE207C0121FDF778F9CD
S2140069902000FFF749FF0224044009D1002D05D04E
S2140069A022000621034802F07BF92500280070BD6E
S2140069B00125FBE7381A0020F8B51E000300373320
S2140069C01B7804000F001500EF2B14D0022F1BD0ED
S2140069D0EF2F37D02000FFF79DFF002812D132009E
S2140069E029002000FFF76EFE00280BD01B49200070
S2140069F0FFF79EFF07E01A4B9A42E7D9FFF736FFEC
S214006A000028E3D10020F8BD2000FFF783FF002810
S214006A10F8D1320029002000FFF754FE0028F1D0FC
S214006A20320029002000FFF7C9FE0028EAD00B49F3
S214006A302000FFF77DFF0028E4D001212000FFF7AB
S214006A409DFFE0E72000FFF765FF0028DAD132005F
S214006A5029002000FFF736FEE7E7C04600CA9A3B4B
S214006A60FFFFFF0010B504000421FFF777FE207C2F
S214006A700121FDF705F9012010BD000070B517498A
S214006A800400FFF755FF051E25D09F212000FFF7C5
S214006A9065FE26000021E06800F07EF9373630708B
S214006AA00021E06800F078F92300383318700021E0
S214006AB0E06800F071F9230039331870207C01215A
S214006AC0FDF7DEF83478002C05D122000B210448AF
S214006AD002F0E6F82500280070BDC04600CA9A3BC2
S214006AE0381A0020030070B538331B780400252BB5
S214006AF01CD1FFF799FE231DDD7F3C23502120008B
S214006B009D43FFF72BFE207C0121FDF7B9F80121FC
S214006B102000FFF723FE29002000FFF7CDFD207C94
S214006B200121FDF7ADF80125280070BD0125262BB3
S214006B30FAD10E49FFF7FCFE051EF5D00121200014
S214006B40FFF71CFFA023013BFDD198212000FFF793
S214006B5005FE207C0121FDF793F8C8239B00013B2E
S214006B60FDD12000FFF77EFFDEE7C04600CA9A3B55
S214006B700200F8B5012364321370103A1370083A15
S214006B801370083A13700300202245331A7032320D
S214006B901A7286321A74414B00228364404B0500F9
S214006BA00365404B6535836503005C331A706023CC
S214006BB02B703D4B04008366030001327233FF32B4
S214006BC01A800E00FFF75AFF2300A21C37331978ED
S214006BD0FF32C1331878884227D12300012235338B
S214006BE01A70230022003833FF321B7890789842C0
S214006BF005D0D078984202D012799A4201D1C723A4
S214006C002B70230035331D78002D32D027003937FE
S214006C10C22911D13B78132B0BD0142B1BD000228A
S214006C200221224802F03CF806E001339342D1D11B
S214006C30D7E78023DB03E36300233A7819009C310F
S214006C40615C91420AD12C339B001B593434A360FB
S214006C500123237012E080231B04ECE70133122B80
S214006C60ECD1E36B002B08D1002E0FD0E663343452
S214006C70EFE736342578002D02D001252800F8BD30
S214006C802A000221094802F00BF8F7E73200032138
S214006C90064802F005F83500F0E7C04600CA9A3B01
S214006CA00050D6DC004059730000DD0E381A002074
S214006CB010B5024801F0F4FF10BDC046381A002097
S214006CC0437A002B04D18372C372C36001334372CC
S214006CD0704730B5040085B002AD0068029103929B
S214006CE0FEF729FB6B79227AE1790093206800236E
S214006CF0FEF7CCFB2979029A2068FEF7EFFA2068A7
S214006D00FEF710FB05B030BD10B50400FFF7D8FF46
S214006D1020790E21FDF71EF8A0790E21FDF71AF84E
S214006D2060790E21FDF716F8024B200006CBFFF720
S214006D30D0FF10BDD412002007B5837A00910192CF
S214006D40002B07D09A070AD5EFF31082534253411F
S214006D50C37272B60099019AFFF7BBFF07BDDB0747
S214006D60F8D58389014AD360F4E7C0460024004082
S214006D70837A002B05D09A0704D5C37A002B00D05F
S214006D8062B67047DB07FCD5C368024A9BB2136144
S214006D90F7E7C0460024004010B50068FEF7D4FAB6
S214006DA010BD70B506000C008D18AC4206D02178D8
S214006DB03000FFF7F1FF20700134F6E770BD0000E9
S214006DC0094B0A4A1A6000225A711A71084B5A7205
S214006DD0084A1A6023221A71023A9A71013A5A71C5
S214006DE01F3ADA711A727047D412002000093D006B
S214006DF0C4120020A0120020F7B584460D000192B0
S214006E0016BAD3B20024172A0AD91300183BE72B68
S214006E1011D9531E1C49FF3B8B420FD8192302245D
S214006E20A96868680F19B8420BD201230124EB60E9
S214006E3064422000FEBD18230124F1E71A2304242F
S214006E40EEE760464F1C1843AF600870002CF0D089
S214006E50022C0ED0042C15D00823012CE6D12200DB
S214006E6001A9A86805F087FFAB681C19AC60002470
S214006E70DFE70649130292B20B40120A1A4392B297
S214006E800192ECE70196EAE7FFFE000000FFFF0034
S214006E9070B505000C0016000021102205F086FFD4
S214006EA02C60AC60A4196C6070BD83680068181A0A
S214006EB07047002310B50A00994201DACA4320330E
S214006EC001001800FFF798FF10BDF8B504000F008A
S214006ED0010060201500FFF78FFF061E07D1A0688F
S214006EE063681B1A9D4204DD0123013EE360300007
S214006EF0F8BD2A00390005F03EFFA3685D19A560BD
S214006F00F5E710B50A000100A020FFF775FF10BDD9
S214006F1042884368012A03D0022A03D0002000E0FA
S214006F20187870475878FCE73F2210B501650B7952
S214006F301D249343402B16D10B1D03610B79303A69
S214006F409B069B0F03700B791A4042704B79837037
S214006F508C79CB7924021B190024838004640831C1
S214006F60063005F008FF200010BD4368186800BA18
S214006F707047000070B5020005000C0007200949A4
S214006F80FDF722FA0C200849084B0A785043C552F0
S214006F901B18043321CC21C3032301321A400020DE
S214006FA00A7070BD6715010014140020E413002059
S214006FB070B5020005000C0007200C49FDF704FA26
S214006FC000220C210A4B1600042A0DD008000132BC
S214006FD050430C38185AA842F5D171435B185A68CA
S214006FE021009868904770BD0C20FCE7441501000E
S214006FF0E413002070B503000C00012000290AD01D
S2140070005D8858682A0007F004F8002803D120009D
S21400701006F0E3FF281A70BDF0B50024124D85B0C7
S214007020019003942C70019803AA0B214C3000F0B9
S2140070300BFD061E12D043881B19FF2B11DC2F23D5
S214007040671C2B55EC1942884168200005F093FE1A
S21400705000227388E2547488E419E4E7280005B037
S214007060F0BD0020FBE7C046DE12002010B5C0B021
S21400707000236A46137003780400294A002B06D0C2
S214007080284A012B03D0284A022B00D0274A284939
S2140070900720FDF799F9A3781F221900914336D1EE
S2140070A0244A012B09D0244A022B06D0234A032B5C
S2140070B003D0234A042B00D0224A23490720FDF799
S2140070C083F92000FFF7A8FF03780100002B02D009
S2140070D0684606F063FF200000224C300F2100F0C7
S2140070E0B3FC041E08D01949684606F057FF6288AC
S2140070F06168684606F078FF6B461B78002B04D064
S2140071006A4613490620FDF75FF940B010BD114AE4
S214007110402903D0104A802900D0104A1049CDE7F4
S214007120231701001F1701002B1701002717010066
S2140071306B170100341701002F17010038170100E4
S214007140421701003C1701007C1701006110010086
S2140071509A170100561701005E1701004917010033
S2140071608D17010070B50F260B781D11ACB2334099
S2140071700C2D13DD0D2D06D14C780B3D0D340C2B4C
S2140071800ED89BB211E00E2D24D18C784D780E349B
S2140071902D02FF346419A4B20325F0E70125EEE7BB
S2140071A00D2B0DD14B5D01350D33954212DC5E196A
S2140071B0B2420FDB4919048043804160300070BD45
S2140071C00E2C07D14E5D4B195B7836029B190E3399
S2140071D0FF33D6E701267642F0E70000F7B50E004B
S2140071E086210388050049008B4234DC47888F429D
S2140071F031DC01A90C2B12DC1B010B706B465C1DED
S2140072000C2F13DC0B783B430B70641A3F19974224
S21400721015DD03201149FDF7D7F80020FEBD0D3B14
S214007220D0204B706B4608709C1DE9E70D2308784C
S21400723003430B703B000D3B23700134E5E722004F
S214007240300005F098FD6A883019696805F09CFDE5
S21400725068880019E2E701204042DFE78615010052
S21400726010B542880300042A06D92021144B154A7B
S214007270FF31154805F0FCFB013A0020032A06D82A
S214007280100002F019FC02050C195B68187810BD96
S2140072905B681B88180A1B02184380B2F7E75B6816
S2140072A00A491B6818021A040A40000E1043FF22FF
S2140072B0120213401843EAE71800FFF756FEE6E707
S2140072C0AF150100D2170100C915010000FFFF002D
S2140072D010B542880300042A06D93621144B154AF5
S2140072E0FF31154805F0C4FB013A0020032A06D8F2
S2140072F0100002F0E1FB02050C195B68187810BD5F
S2140073005B681B88180A1B02184380B2F7E75B68A5
S2140073100A491B6818021A040A40000E1043FF228E
S214007320120213401843EAE71800FFF71EFEE6E7CE
S214007330AF150100AD170100C915010000FFFF00E1
S21400734010B5054C2388002B02D1FCF7A5FF208042
S2140073502088431C238010BDDC1200200B00F0B5F3
S21400736004338BB005930B880600029345230491E3
S21400737013700392029B059A53490720FDF746F8BF
S21400738004993000FFF7D0FD019000283DD1012779
S2140073907578B3780435B764B561002B35D001F045
S2140073A04BF9029B1038834232DC019C0797059B01
S2140073B008A85F19029B39005A1BFFF7D3FE0690F8
S2140073C0002863DD08AB1B884049E418A4B208AB6C
S2140073D05B8822000720FCF7F7FF08AB5B88099A5A
S2140073E03B490720FDF712F8300008AB19004C3077
S2140073F01C8000F0E7FA071E10D036490120FCF783
S214007400E3FFA023039A0197137001980BB0F0BD19
S2140074108D23039A1370833B0193F6E7069BED18C2
S2140074200F2C20D80E2CC2D2072CC0D010D8032C7C
S214007430BDD0062C22D0079B1C42B8D0220026497D
S2140074400320FCF7C1FF8223039A1370813BE3E716
S2140074500B2CACD00C2CEED108A8FFF759FD33004E
S2140074603C331870A3E7172CA1D002D8112CF3D008
S214007470E1E7232C9BD0272CDDD198E708A8FFF75F
S214007480EFFE002800D092E7B06490E7002C0FD003
S214007490029B9D420CD03B78FF2B08D00F4903205F
S2140074A0FCF792FF8F23039A13707B3BB4E70135FA
S2140074B06A46029B756112895D1B049B3564300029
S2140074C01A80FFF7D3FDA0E713160100231601006C
S2140074D0861A01003B1601005516010073160100BE
S2140074E0F7B50C00260005000021170020005422E6
S2140074F04C3605F05BFC300000F030FA2B78A91D06
S21400750023706B7808226370A01D05F034FC2800F9
S214007510AB884C30A3806B6C00226364AB6C062196
S214007520A36400F091FA002815D0FFF799FEA36C2B
S214007530002B10D100280ED16A4603250633694673
S21400754030001380558000F03DFA002803D0034930
S2140075502800FCF739FF2765F7BDC046F715010080
S214007560F0B506008DB0FFF781FD4023327805ADFB
S214007570120113432B70B378002B1CD104246B70BC
S214007580B3881A12AA70EB702100306D01F0A0F8D3
S21400759007000320002F4BD037653E1D2200290030
S2140075A0300005F0E8FB07203B8832005149FCF725
S2140075B02DFF00203CE03F2B00D899E06B70B3888D
S2140075C01A12AA70EB707478002C33D00420082CA2
S2140075D02EDC2200B11D06A805F0CDFB2B78234338
S2140075E02B70043433004C3300220621180001931C
S2140075F000F02AFA002821D003AF02AB43603B001C
S21400760006C806C300F0C6F802903800FFF760FE12
S2140076101C2206230290121B291938003B80FFF714
S214007620DDFD002808D134490330FCF7CDFE0320E9
S2140076300DB0F0BD0424D5E724180620336C002BCB
S21400764044D00C233200181A03AF38803C3213782B
S214007650002B0FD102AA7A601C222919121B3800AF
S2140076607B800293FFF7BAFD241800280ED1234929
S2140076700320DAE77A601C220123121B291938003E
S2140076807B80FFF7ABFD0028F1D0241800220E21E6
S214007690019800F0D9F900281AD002AB43603B00ED
S2140076A006C806C3164B38001B680293FFF710FE89
S2140076B01C2202230290121B291938003B80FFF778
S2140076C08DFD2418002803DC0E49D1E7002805D0DC
S2140076D0336C002B02D0FF232B5501341C2C00DC0E
S2140076E052E7F021084B094A8900094805F0C0F91D
S2140076F004209DE7161701008F160100B216010040
S214007700E0130020DC160100FF160100F717010049
S214007710C9150100014B18607047C046E0130020F1
S214007720F7B505000F0001921E000420002D2ED094
S2140077302B78002B2BD0089B1C78032C27DC032CE3
S2140077400CDC982149006143114B2800591806F0BB
S21400775032FC002802D00134E4B2F0E70C20042CFE
S21400776015D098235B00634309490198CD182A0079
S214007770FF3252780233FF33C9183A7005F0FBFA2D
S2140077800020FC352B6901343360089B1C70FEBD5D
S21400779018140020054B06491A688A4203D10222B3
S2140077A01A60186870470132FAE7C0469C0000204D
S2140077B0FFFFFF00F0B585B000900E000292142384
S2140077C000282FD006F009FC1423FF282AD8377F7C
S2140077D0002F3FD037001C37380006F0FEFB0500B0
S2140077E0334B344A9C1C9B180193B31DFF34039300
S2140077F0A11EFF392A00380006F00BFC002814D121
S214007800631E71781A788A4200DA0A00210003980B
S21400781005F0A2FA002808D1009A27490630FCF79E
S214007820D3FD0923180005B0F0BD3134019BFF34A9
S214007830A342DDD1042400271D4D98235B007B4323
S2140078400098E918019306F0B6FB002804D1009AC8
S2140078501A49E3E70424EFE7019B5B5D002B02D1A6
S214007860042C00D13C000137042FE6D11423042C4D
S214007870D8D01D33FF335C432F193B007278A01C11
S214007880FF33FF305A70B11D281805F074FA0099BE
S214007890380006F09AFB20003100029B1130FC37BE
S2140078A0FF303B611C31281806F08FFB0023B9E738
S2140078B018140020C105000020180100521801000D
S2140078C0F0B585B007000091019202930420002FC6
