:1020000000800020F5250000D9250000F125000002
:1020100000000000000000000000000000000000C0
:10202000000000000000000000000000D9250000B2
:102030000000000000000000D92500004926000033
:10204000D9250000D9250000D9250000D925000098
:10205000D9250000D9250000DD250000D925000084
:10206000A1490000D9250000D9250000B149000090
:1020700091490000D9250000D9250000D92500008C
:10208000D9250000D9250000D9250000D925000058
:10209000D9250000D9250000D9250000D925000048
:1020A000D9250000D9250000D9250000D925000038
:1020B0000000000010B5064C2378002B07D1054B1B
:1020C000002B02D0044800E000BF0123237010BDA4
:1020D000F0020020000000000C130100084B10B5B6
:1020E000002B03D00749084800E000BF07480368F9
:1020F000002B00D110BD064B002BFBD09847F9E711
:1021000000000000F40200200C130100EC0200208B
:10211000000000001FB5002002F0F6FB3C230293F4
:102120003B3B0193054B064A00930649064B074883
:1021300002F0B2F902F0F8F905B000BD5D2100002F
:102140003924000085240000A5230000CCF80000FD
:1021500010B502F09CF910BD7047000010B50B4996
:1021600004000AF02CFC002803D14322084B1A700B
:1021700010BD084920000AF022FC03000120002BBA
:10218000F6D14621024A18001170F1E7D1F800009B
:1021900010030020D7F8000030B5A3B001A801F06B
:1021A0003AFF174B01A8196801F010FF154C164BA8
:1021B0002268164D9A421ED0052001F03BFC144BBC
:1021C000186007F031FA011C01A801F03FFF01A8D7
:1021D00001F06BFF0F4B196806F032FF09F062F84F
:1021E0000D4B0E4A08F0FAF909F0AEF823682860A2
:1021F00001332360DAE700232868236023B030BD71
:102200005C03002054030020102700005803002026
:102210005003002004000020B7984740C66D34806A
:1022200070B50024174D222001F004FC013D241854
:10223000012000F04DFA002DF5D10521200006F017
:1022400059F908F0F7FF104A104B08F0C7F906F0EB
:1022500057FB07F039FA0E4B196806F0F1FEEA2138
:10226000890506F0EDFEFC21890506F0E9FE06F081
:102270002FFB1423584307F027FA064906F0F0FC19
:1022800070BDC046B80B000039B4C876BE9FE63FAB
:102290000C03002000007A44F0B5384B9FB0029345
:1022A000374B6A46039356230700138001AC153B56
:1022B0000822344907A8238009F06BFA3249062224
:1022C00005A809F066FA314A314B1A60FFF764FF3E
:1022D00008F0E8FF2F4D02000B0007A829000AF0C4
:1022E0003FFBFFF79DFF08F0DDFF0B000200290018
:1022F00005A80AF035FB01F0F7FE0600264D0200A6
:10230000290009A80AF02CFB320029000EA80AF0C7
:1023100027FB02A90EA80AF045FB07A90EA80AF0A0
:1023200041FB694604A80AF054FB04A90EA80AF070
:1023300039FB1A490EA80AF035FB09A90EA80AF0C4
:1023400031FB03A90EA80AF02DFB05A90EA80AF07F
:1023500029FB210004A80AF03CFB04A90EA80AF0FE
:1023600021FB0EA938000AF034FB0EAA0C49072005
:1023700001F052FF00201FB0F0BDC04633302C00EA
:1023800033312C0094F900009CF9000000404E45C8
:102390000C03002079F900007FF900001D04010002
:1023A00083F9000070B50E0000210400FFF774FFF0
:1023B000050020000AF015FB3070280070BD0000F9
:1023C00030B5174B8FB01A7F050001A80271154A6E
:1023D00005A901921A6A5B6A8260C36001F0F7FC8A
:1023E0000A9C211C201C07F0E7F8002800D00E4CA6
:1023F0000E4B1B785BB2462B0DD1201C08F052FF10
:102400000B4A0C4B08F0EAF808F09EFF8421C9053E
:1024100006F094FA041C00202C600FB030BDC046BA
:10242000180300200CFA00000000C842100300202E
:10243000CDCCCCCCCCCCFC3F002370B592B0060008
:1024400001A80D000193FFF7BBFF041E0CD101A9E9
:1024500002A8FFF721FF02A9040030000AF0B9FA30
:1024600002A80AF0BEFA2870200012B070BD000069
:102470000122034B00201A7192185A707047C0460F
:1024800010030020F0B546220026334B91B01A709D
:102490005E70FFF7EDFF314C200001F0EDFC30489D
:1024A00001F078FF237F02AA13712E4B10000293D4
:1024B000236A06A90493636A0193059301F010FD52
:1024C000294C200001F066FF284F380001F062FF20
:1024D000274801F049FF06A801F05CFF254801F0FC
:1024E00043FF099801F06CFF200001F053FF2248E0
:1024F00001F03AFF0A9801F063FF200001F04AFF63
:102500001E4801F031FF0C9807F06EF801F058FFFB
:102510001B4D280001F03EFF1A4801F025FF0D98E1
:1025200007F062F801F04CFF280001F033FF164875
:1025300001F01AFF0E9807F057F801F041FF28004C
:1025400001F028FF380001F025FF200001F022FFF4
:10255000300011B0F0BDC046100300201803002069
:10256000DDF800000CFA000092FD0000F7F8000012
:102570001CF900002BF900003AF9000049F90000AD
:1025800058F900005BF900006AF90000012313B557
:102590000B4C5B42019300930B2207330021200078
:1025A00001F052FC074A0849200005F0E3FC074B04
:1025B0000748196806F054FB064B186013BDC04667
:1025C000180300200000002059210000080000200E
:1025D000000020425C03002003BEFEE7034B10B561
:1025E0001B68002B00D0984710BDC0466003002038
:1025F0000DBEFEE770B50F490F4CA14204D100F0AB
:10260000F5F800F0A3F8FEE70C4D00238D42F6D05C
:10261000CA18E818A24205D39042F0D0084B0949E5
:10262000002204E0006804331060F1E704C38B4229
:10263000FCD3E4E700000020F00200207413010046
:10264000F0020020641E002010B500F07CF8002885
:1026500001D100F063F810BD014B18607047C0460F
:1026600060030020014B18687047C04664030020D7
:10267000F7B51348012284461249134C8E686368EB
:1026800005689B0E1340019288686268019F920E54
:102690003A4067463F6893420ED1BD420CD1864214
:1026A0000AD35B19FA254868AD00861B07486B43BF
:1026B0007043000DC018FEBD3D0013000600E3E7A7
:1026C0006403002010E000E000ED00E0555500003C
:1026D000F7B5041E1CD0EFF3108372B60D4E0E4FEB
:1026E00035683A680192DB0700D462B6EB439C423E
:1026F00004D964190025019B0133019300F022F8ED
:102700003B68019A9342F9D333685B1B9C42F5D82E
:10271000F7BDC0466403002068030020074B10B5D6
:102720001A6801321A601B68002B03D1044A13682F
:102730000133136000F038F810BDC0466403002078
:1027400068030020704700207047704710B501F003
:1027500059F808F0B3FFFFF7F8FF0120FFF7B8FFC3
:10276000084C200000F0F6FA200000F053FBFFF7C1
:10277000D1FCFFF7EDFC044B002BFAD000E000BFCA
:10278000F7E7C0466C03002000000000014B186012
:102790007047C0460C0000200122024B52421A60D2
:1027A0007047C0460C000020054A10B51368591C3C
:1027B00005D0013B1360002B01D1024B984710BD9F
:1027C0000C000020111301000249034B4A681A4211
:1027D000FCD1704700180040FD0700000E2302499D
:1027E0000A781A42FCD17047380C00408422F8B5B0
:1027F000294B2A4D5A6040236A69022113436B61B9
:1028000080230122DB059A719878014399709979A8
:102810001142FCD00121224C9A71224B2270227865
:102820000A4202D062681A42F9D11F4B1F4A5A610C
:10283000022259690A435A610122D9681142FCD027
:102840001B4B1C4E0227F362FFF7C8FF00231A4AF6
:1028500033631370FFF7C2FF184B1F70FFF7BEFF03
:10286000174A13783B42FCD001232B71154D25628A
:10287000FFF7AAFF2563FFF7A7FF0C22337D9343E1
:102880001A000423134333750F4BE362FFF79CFFD9
:102890000E4A0F4B1A60F8BD004000410004004092
:1028A00000180040FD070000001000401C0400005C
:1028B000710B0000000C0040340C0040280C00405C
:1028C0003C0C00400803020006010100006CDC0221
:1028D0003800002030B50F25CB1D013902002A40F9
:1028E000140000093034092A01DD373214001C704D
:1028F000013B8B42F2D130BD70B582291FD1C3B2EA
:102900002C4D5A01AA1891692B4C80010C40C02112
:1029100089052143916129490833081880215061B4
:102920002A685B01D0180479494221430171702063
:10293000995C8143080030210143995470BD0029FE
:10294000FCD1C024C1B21B4E4B01F3189A681A4D3A
:10295000A4052A4022439A60194A800110180A00EF
:1029600058603068072608325201115CB1430E00EE
:1029700001213143115499690D402C439C6170240D
:102980000E495961115CA1430C00102121431154DF
:1029900099680C4C82180C408021490321439960AE
:1029A0009968890B89039960402351790B435371CE
:1029B000C4E7C04624080020FFFFFF8F98030020D3
:1029C00058050020FF3F00F070B50400012320CC23
:1029D00000212A782000134380222B70520008F037
:1029E000F3FEAB78DB07FCD46C6270BD1F22144B86
:1029F00070B51B68590B9C0C9B0111405B0F22406A
:102A00001F2900D11A391F2A00D1023A072B00D101
:102A1000043B1F2500688E01048D0A492A4021408D
:102A200031430185018D14000A00AA432243028527
:102A3000028D1903044B13400B43038570BDC04640
:102A4000206080003FF8FFFFFF8FFFFFEFF3108350
:102A500003600123436072B670470368002B02D104
:102A600062B6BFF36F8F704737B5056904006846DB
:102A7000002D14D1FFF7EAFF019B621D013B02D339
:102A8000D57FEDB2FAE768460193FFF7E6FF002D28
:102A900001D100203EBD206AE369C01AFAE7FFF7C2
:102AA000D5FF22000025019B3432013B02D315786B
:102AB000EDB2FAE768460193FFF7CFFF002DE8D0AB
:102AC000206BE36AE9E70000F0B501254668037A68
:102AD00031685A018C18FF34A77AB2183D43A572A9
:102AE000C468094D9068A4042840240920439060DC
:102AF00090680833800B8003906040225B01CB1804
:102B000019790A431A71F0BDFF3F00F0F7B5036968
:102B100004000E0017006846002B3DD1FFF796FF1A
:102B2000019B611D013B5A1C0CD0CD7F5A1EEDB29A
:102B3000002D05D168460193FFF78FFF2800FEBDE9
:102B40001300F0E7684601930025FFF786FFE3696D
:102B5000AF4202D0226A934257D3226A9342EDD108
:102B60000023E361013323616846FFF76FFF220012
:102B70000021019B671D013B3532581CDAD0F977E3
:102B800010785E1E002805D0117020000193FFF719
:102B90009BFFECE73300F0E7FFF758FF2100019BB4
:102BA0003431013B5A1C06D00D785A1EEDB2002D6F
:102BB000C0D01300F6E7684601930025FFF74DFFEC
:102BC000E36ABD4202D0226B934226D3226B93422A
:102BD000B4D100236846E3622361FFF737FF270083
:102BE00022000021019B3437013B3532581CA1D013
:102BF000397010785E1E002805D0117020000193F6
:102C0000FFF762FFEBE73300F0E75A1CE261A269CD
:102C1000D3181B787355013599E75A1CE262A26AF2
:102C2000D3181B7873550135CAE7F7B5027A4368A4
:102C3000110004000831186849014118C879C0071B
:102C400027D501255201CD719B189A6861699204BC
:102C5000920C002921D12262226A002A3ED0A26A67
:102C6000656168465A60FFF7F1FE27002100019B6D
:102C7000661D013B343735315A1C2BD0F5773A7835
:102C8000581ED2B2002A05D0019368460D70FFF796
:102C9000E4FEF7BD0A700300EEE72263226B002A10
:102CA0001CD000226261A26968465A60FFF7CEFE1E
:102CB00026002100019B3436013B671D35315A1C2B
:102CC00008D03570FA7F581ED2B2002ADCD10A70C3
:102CD0000300F4E768460193FFF7BFFE2000FFF70B
:102CE000F3FED6E737B56B46DC1D00230D00200050
:102CF000237002F041FA2B681818286002F0F6FAE7
:102D0000210002F0AFFA2B681818286020783EBD29
:102D100003290ED180220E4B62311B68FF31585CB3
:102D2000524202435A5468226339FF39FF329954A0
:102D300070470129FCD18022054B24311B68FF31EB
:102D4000585C524202435A542339FF392822EDE796
:102D50002408002070B50024264B01210500152011
:102D60001C7000F0B1FE0121152000F0B1FE224BD5
:102D7000012114201C7000F0A7FE0121142000F096
:102D8000A7FE01231D4A1820916940340B4393612B
:102D90000F2100F007FF0F21192000F003FF184B4F
:102DA0001C601A682242FCD01648FFF755FC164EEC
:102DB0003000FFF709FE3000FFF718FE7F2133686F
:102DC000C1201A7880000A401A70042219780F4E28
:102DD0000A430C211A701A898A431A810C4A115825
:102DE000314011501460022219780A431A700123ED
:102DF0002B7070BD8D0300208C0300200004004068
:102E000090180040E537000024080020FFFF00FF75
:102E100000E100E00078002810D00121084B1B6879
:102E20001A898A431A810822198B0A431A830422B9
:102E3000198B0A431A830022024B1A607047C0465E
:102E4000240800201C08002010B5104A93699B0B31
:102E50009B03936113680222FF331A729879823AB6
:102E600002439A711A7A9207FCD582227F24D205F6
:102E7000937A2140A34308001900802301439172F3
:102E8000917A5B420B43937210BDC0462408002028
:102E900010B50B790C00002B0CD1080002F07AF968
:102EA000002801D0012010BD094A93699B0B9B03A8
:102EB0009361F7E702F01AFA210002F006FA0028FF
:102EC000F0D1034A93699B0B9B039361EBE7C046E8
:102ED00024080020F7B50D00832A19D1CBB2324C5B
:102EE0005A01A21891693148AD010840C0218905F5
:102EF000014391612E4920684D19702108335561B5
:102F00005B011A5C8A43110040220A431A54F7BD40
:102F1000022A44D18B000193264B8A00D658002EFA
:102F2000F5D1382001F0A0FD234B1F4F0360802313
:102F30005B00C360431D0662856006614661C66131
:102F400004004760DE77C662066380202F331E7060
:102F500040005E7008F0E8FB0600A06180204000A1
:102F600008F0E2FBEDB26B01A062FB189A680F4912
:102F700007201140C02292050A439A603A6808353A
:102F80006D01A95C8143080003210143A95420007D
:102F90005E60FFF799FD074B019AD450B7E7110027
:102FA0002800FFF7A9FCB2E724080020FFFFFF8FED
:102FB0009803002070030020ACF9000070B50500F4
:102FC0000124064BA200D258002A05D02100280077
:102FD000FFF780FF0134F4E770BDC0461000002009
:102FE000084B8A00D05810B5002803D003689B68AE
:102FF000984710BDC9B2044B49015918886880042C
:10300000800CF6E7700300202408002010B50C00A7
:10301000FFF7E6FF00280CD0064BE4B21B6808342B
:1030200064011C19802362795B421343637102239C
:10303000E37110BD2408002070B5134BCCB2134AC5
:10304000600189015918131859609968104D0834A6
:103050000D40802189022943402599609968890B98
:103060008903996011686301CB181E7935431D717E
:103070009D796D06FCD564010919CB79DB07FCD578
:1030800012189068C0B270BD5805002024080020B6
:10309000FF3F00F070B5140040220B4B0D001B6881
:1030A000FF3359790A435A710021FFF7C5FFA04247
:1030B00000D9200000230549A34203D05A5CEA54FA
:1030C0000133F9E770BDC0462408002058050020F0
:1030D00010B5C9B20B484901421893689B049B0C78
:1030E0003F2B0BDD9468403B9B04A40B9B0CA4037B
:1030F0002343936041188868C0B210BD93689B0B4E
:103100009B03F6E724080020F0B51C00304B85B087
:103110001B6806000D000192002B55D02D4F397809
:10312000C9B2002902D1142000F0D2FC64233B7004
:10313000294BAA00D058002808D0036822005B68F9
:10314000019998470400200005B0F0BD2900300027
:10315000FFF746FF844204D929003000FFF740FF03
:10316000040029003000FFF7B3FF0121EBB21B4F31
:1031700003935B010293029A3B6801989B18FF330B
:103180005A7A0A4316495A72AB01C918220008F04C
:1031900000FB002CD7D029003000FFF721FF0028CA
:1031A000D1D14021039B3A6808335B01D3181879C9
:1031B000014319710121D9710121029BD318FF33F9
:1031C0009A7A0A439A72BEE701246442BBE7C0467A
:1031D0001C0800208C03002070030020240800201D
:1031E0005805002013B56B46DC1D22000123FFF7B4
:1031F0008BFF012801D1207816BD01204042FBE75A
:10320000F0B51E003A4B85B01B680F000192002BF1
:103210003FD08023DB019E423BD8364C2178C9B297
:10322000002902D1152000F053FC64230025324A06
:103230002370BB01D3180293002E2CD02F4B1B6898
:103240000393FF233B401C0000930834039B64015D
:103250001C19A379DB0921D0294B2A49186805F0EC
:1032600049F9294B1721584305F044F9274BE279D6
:10327000920713D4DA5D002A01D10138F7D2012276
:10328000DA55009B5A011D4B9B189A69920B9203C9
:103290009A6101256D42280005B0F0BD00221B4B4C
:1032A0003400DA553F2E00D93F24220001990298BC
:1032B00008F06FFA009BA1045A01104B890C9B186F
:1032C000029A2D195A619A69361B920B92030A438E
:1032D0009A61009B039A08335B01D3180222DA71CA
:1032E0005979823A0A435A71019B1B190193A3E74A
:1032F0001C0800208D0300209803002024080020D3
:103300003800002040420F00701101008F030020A0
:1033100070B50D001C000D4EAB01F6181100300009
:10332000220008F036FAEDB209496D014D196E61BF
:10333000AB69084A20001340AB61AB69A2049B0B48
:10334000920C9B031343AB6170BDC04698030020F1
:1033500024080020FF3F00F0F7B5104B01901B78C8
:103360000F001500002B0CD10D4B16001C78002C03
:1033700009D00C4E0C4834880019641908F009FA79
:1033800034802800FEBD002EFBD03A193300002106
:103390000198FFF7BDFF2418361AF4E7180700203C
:1033A000190800201A08002019070020F8B500208D
:1033B00000AF0E001500012A26DDD31D6A46DB088A
:1033C000DB00D31A9D46080009F00BFB6C46032373
:1033D000002101304000207063705A1ED2B2954225
:1033E0000BDD3078002808D00136A0549D4203D070
:1033F000E1540233DBB2F0E72A0021000348FFF773
:10340000ABFF431E9841C0B2BD46F8BD6C0300201F
:10341000F0B50027012687B01E4B009102A91E704F
:1034200005000297FFF75EFC03AC0190092239000A
:10343000200008F0C9F909232370022363709E332A
:10344000E3715A332372029B6671093363806B46C2
:103450001B7923710F4B1F70009B092B07D11A009A
:1034600021002800FFF778FF012007B0F0BD0A4BCC
:1034700009221E70094E2100280002973780FFF7AD
:103480006BFF02A92800FFF72DFC034B32881F7049
:103490000349E6E718070020190800201A08002051
:1034A0001907002070B5CE7892B005000C00022EEE
:1034B00008D1C9882B48FFF7ABFF431E9841C0B223
:1034C00012B070BD01F012FF210001F0DFFE0028F4
:1034D00003D0C317181AC00FF2E7012E0BD1E288F0
:1034E0002149112A10DCD2B2002A0DD02800FFF7A2
:1034F00033FF0120E4E7032EE2D1A378002B05D1AE
:10350000E2881A49032AEEDD0A78EFE7022B05D19B
:10351000A27917492800FFF749FFD1E7012B02D113
:10352000A2791449F6E7032BCAD1134B01A91868F5
:10353000FFF7D0F9114B03A91868FFF7CBF9104B2F
:1035400005A91868FFF7C6F90E4B07A91868FFF719
:10355000C1F901F0CBFE09A901F0A8FEA27901A9E9
:10356000D8E7C0466C030020DAF90000C6F9000075
:10357000B8F90000CAF900000CA0800040A080004B
:1035800044A0800048A0800073B5060048780D0074
:103590000B2811D804F0A4FF061D102E104348700C
:1035A0004C4F696C097801AA002907D102231170D8
:1035B00051703000FFF7ACFE012076BD0023137080
:1035C00053702E4B1B78012B00D113700223002166
:1035D000EFE78A780023012A04D101AA13705370FF
:1035E000274BEFE7254A1370264A93699B0B9B03F1
:1035F0009361E1E78C78012C06D10021204B01AAD0
:103600001C7011702300D4E7002C08D101201B4B43
:103610001C4A187093699B0B9B039361CDE7A978B3
:103620003000FFF711FCC7E73000FFF73BFFC4E7AE
:103630000123154ACBE70B780020DB06BDD1300013
:10364000FFF7BCFC2A200221AA780F4BFF301A603A
:103650000C4A13681C5C21434A241954FF34195D39
:103660002938FF3801431955D4E70123074AAEE74B
:103670008A78064B1A60B7E700209EE78E03002089
:1036800096030020240800201C08002020080020A9
:103690004C4BF7B51C780700002C00D091E04A4E47
:1036A00033689B8B1B070ED521002000FFF724F900
:1036B000326810231100FF31887A03438B72434B29
:1036C0001C600823938333689A8B52071FD504220A
:1036D0009A833F4A1378002B0AD01378013BDBB260
:1036E00013701378002B03D10121152000F0F0F99D
:1036F000384A1378002B0AD01378013BDBB21370E1
:103700001378002B03D10121142000F0E1F9336874
:10371000FF331A7AD20620D510221A725979303224
:103720000A435A7160232C4938000A781A4235D16D
:10373000FFF72AFF002834D0802233685242FF333B
:1037400099790A439A713368FF331A7A520604D57D
:1037500040221A72597A0A435A72336807251C8C20
:1037600001239C43E4B20193E9B2002C29D0002D3F
:1037700027D023002B41019A13420DD02B00326831
:1037800008335B01D318DA79D20711D4DB799B07B0
:103790000ED4019BAB409C43013DE5E7FFF778FB6E
:1037A000C8E720220D4BCDE703681B689847F0E778
:1037B0000B4BAA00D0580028F6D13800FFF7A8FA22
:1037C000E7E7F7BD19080020240800201C080020A6
:1037D0008D0300208C03002058050020FF000041CD
:1037E0007003002010B50248FFF752FF10BDC0461D
:1037F0006C0300208222024BD2051A607047C0463B
:1038000024080020C0201A491A4B1B4A10B54B60EF
:10381000136A00061B021B0A0343136200240723DA
:103820008C600B608021136A09061B021B0A0B4384
:1038300006211362114BDA69186A014319620821E3
:10384000186A01431962D96911430D4A0A43DA61C2
:1038500020001A21013400F037F9242CF8D100F0AF
:103860009FF8052000F03CF800F016F810BDC046A7
:1038700010E000E07FBB000000ED00E0000400402D
:10388000FF170000914202D002D98A1AD040704737
:10389000521A9040FBE700000C490D4B4A681A424F
:1038A000FCD140230B4A536051681942FCD03F229F
:1038B000094B99681142FCD102225A70C22292002F
:1038C0009A81DA810122054B1A7070470018004076
:1038D000FD070000FC1800400030004229090020CC
:1038E00010B52A4B04001B78002B04D10122284B71
:1038F0001A7000F055F8032C06D10721200000F0C3
:1039000051F9002809D010BD042CF6D0002C2BD181
:10391000204A2149D3690B40D3610F211F4B0C4032
:103920009A788A4314439C701A8C5205FCD11978FA
:1039300002320A431A701A8C5205FCD1197E0232E7
:103940000A431A761A8C5205FCD19A79D207FCD513
:1039500002219A8C1A788A431A701A8C5205FCD16B
:103960000B4B01321A70CEE7052CD6D9094B0A4908
:10397000DA69063C0A40F021DA61DA6924040903B5
:103980000C401443DC610024C7E7C046280900202E
:103990002A09002000140040FFFFF0FF000C004344
:1039A0001E4B07211B6810B51A00DB080A401202E3
:1039B0000B4013431A4A938513001A8C5205FCD10D
:1039C00018490432C8690243CA61402216490A6094
:1039D00008681042FCD007225A7019325A811A8C9A
:1039E0005205FCD13F325A731A8C5205FCD1C022C9
:1039F00052011A811A8C5205520DFBD11A731A8C7E
:103A00005205FCD1094B01321A70094B1B78002B6F
:103A100002D10520FFF764FF10BDC0462060800082
:103A2000000C004300140040F81800402809002052
:103A30002A09002010B51F4B04001B78002B01D170
:103A4000FFF7AEFF0521200000F0ACF803000020D6
:103A5000834228D10C3044431748184B0019417A4F
:103A60001F201A89014082430A431A811A8C520589
:103A7000FCD1197802320A431A701A8C5205FCD113
:103A8000197E02320A431A761A8C5205FCD19A79B1
:103A9000D207FCD50221988C1A7880B28A431A701A
:103AA0001A8C5205FCD1064B1A68064B1968FFF7B1
:103AB000E9FE10BD28090020E0FB0000000C0043D7
:103AC000400000203C00002010B500F06BF810BD55
:103AD000F7B50C224243254D0190535D042B2FD0A6
:103AE0000027AA185278DB01214ED418A419267891
:103AF000204CF6B21C59BC4204D0013797407C1EC2
:103B0000A741FFB21B4C1C192469A446002460463F
:103B1000A04204D001349440601E8441E4B2002FDE
:103B200017D101980C3778432D18686801290DD1F9
:103B3000012C06D1410706D4D3180D4A9B181E70DC
:103B4000F7BD0107F8D504210E43F5E704218E43A4
:103B5000F2E7012904D19140064A9B189961EFE7E9
:103B600001219140034A9B185961E9E7E0FB0000FD
:103B700040280040002800400C23584307490023F8
:103B8000425C042A06D0064BD201D2180918136AE7
:103B90004A78D340012018407047C046E0FB00003F
:103BA00000280040F7B50500232800D96BE00C235E
:103BB00043437F4FDA5DFB18D8785C7801909878A2
:103BC0005B68042A5FD019267642B4468444664670
:103BD000012E01D9884256D1CB40DB0701D41A28E7
:103BE00051D1081F172863D804F07AFC3647646463
:103BF0006262626250505D0C0C626262626262904C
:103C0000924D624D0623002A00D18FE0694DD0010C
:103C1000201840190578042028404D1F022D01D995
:103C200002252843019D2D0701D54025284372B662
:103C3000D201002901D01A293ED10123A3405E49B7
:103C400051184B608B61042398435A4BA218D21829
:103C5000107062B60020FEBD0C235D437F19BB7A55
:103C6000122B10D00023002A60D0524DD001201812
:103C70004019057804202840D2E70C235D437F19C2
:103C80007B7A162B4FD101204042E4E70C235D43A1
:103C90007F193B7A802BF6D0062301980340581EEB
:103CA00083410433AFE70123019803400233DAE78D
:103CB0000923A8E70123A6E78D1E012D0CD80123B7
:103CC000A3403D4D55196B60032903D16B6104235B
:103CD0001843BAE7AB61FAE7012904D1A140364B9A
:103CE000D3189960AFE76108344D51184919E507B9
:103CF00008D50F260D781B0135402B43DBB20B7026
:103D00000123E5E70F260D78B543F6E70723AAE779
:103D10000823A8E72748D301E3181B1818780423C1
:103D20001840033B7EE7002AF4D10123022C02D085
:103D3000052C00D06AE7062900D167E7651F6842B5
:103D400045411F48475D002F00D15FE7002702264D
:103D500047551C480778B7430770A027BF00013FAD
:103D6000FDD13F2786683E42FCD1164E2F1DB4463A
:103D70007F00BC446646B7880226B7436646B780D4
:103D80000F4F3E78002E03D17F78002F00D13DE702
:103D900002270678374307703F2786683E42FCD1EA
:103DA00001277D1BAF40C5792F42FCD02EE7C046CE
:103DB000E0FB000040280040002800403028004080
:103DC0002B0900200030004270477047704770B5E3
:103DD0000C002426050032000021200007F0F4FC2E
:103DE000EB68266063600D23A360FEF73BFC0022B6
:103DF00020611100A86801F043FB6061012070BDE3
:103E000070B50C002426050032000021200007F0C8
:103E1000DBFCEB68266063600C23A360FEF722FCEA
:103E200000212061A86801F07BFB6061012070BD6A
:103E300010B5040000F01CFE200010BD10B50400F9
:103E400000F016FE200010BD70B50400150001F052
:103E50005FFA074B25750833A361049B200063625A
:103E6000044B24620833A362059B2463636370BD23
:103E700004FA000020FA000010B501F05DFA10BD50
:103E800010B5027D0C00152A07D0162A0DD008495E
:103E90000B2A04D00B22074901E00B22064920001F
:103EA00008F0CCFD0023E37210BD0B220349F6E7B6
:103EB000ECF90000FEF90000F2F90000F8F900004A
:103EC000037D152B06D0162B04D00B2B02D1024BF1
:103ED0004B627047014BFBE740420F0080841E009D
:103EE00070B50C00050028220021200007F06CFCB2
:103EF0002100A868FFF7C4FF0123E360EB682100FD
:103F000023610D23A8686361FFF7DAFFAB681A7DB0
:103F1000152A0BD0162A0FD000230B2A0ED1E361ED
:103F20008023084ADB05A261236270BD064BA361B2
:103F3000064BE361064BF7E7064BF8E7A361E36145
:103F4000F2E7C046000048420000A042000020C244
:103F5000CDCCCC3D0000FA4270B50C000500282203
:103F60000021200007F030FC2100A868FFF788FF3F
:103F70000123E360EB68210023610C23A8686361DF
:103F8000FFF79EFFAB681B7D152B0AD0162B08D0C0
:103F90000B2B0CD1084BA361084BE361084B236248
:103FA00070BD084BA3610023E361074BF7E70023D3
:103FB000A361E361F3E7C0460000A0420000A04116
:103FC0000000A0400000C842CDCCCC3D10B504009C
:103FD00002C001F0B9FB20002168443001F0B4FBBD
:103FE00010BD70B50D1C04000430161C01F0C9FB97
:103FF000291C281C05F024F8311C051C301C05F078
:104000001FF8011C281C04F099FC011C20004430FE
:1040100001F0B7FB70BD70B5FE2600250400B605A3
:104020002A1C311C043001F067FB20002A1C311CC3
:10403000443001F061FB311C2000FFF7C7FF2A1C50
:10404000291C2000FFF7CDFF200070BD70B50D1CAE
:104050000400043001F088FB291C281C04F0F0FF48
:10406000011C2000443001F07FFB70BD70B50400DE
:10407000443001F08DFB0434051C200001F088FB66
:10408000061C200001F084FB011C301C04F0D8FF4A
:10409000011C281C05F0F4F80021041C04F0F0FBBE
:1040A000002800D00024201C70BD10B5FFF7DEFFF3
:1040B00003F0EAFF10BD000013B50A4C200001F028
:1040C00077FC6A460123D3701371FA23DB00D38097
:1040D00000232000694693705370137001F010FCA8
:1040E00016BDC0462D09002010B5024801F0BEFBE8
:1040F00010BDC0462D09002070B50C4CC2B0200088
:1041000001F062FB0600200001F064FB05002000C6
:1041100001F066FB2B0002000549009602A808F09A
:104120001FFC02A800F036F942B070BD2D09002036
:1041300077FA000070B50C4CC2B0200001F044FBCF
:104140000600200001F046FB0500200001F048FBBE
:104150002B0002000549009602A808F001FC02A805
:1041600000F002F942B070BD2D0900203CFA0000B9
:1041700070B50C4CC2B0200001F044FB06002000DA
:1041800001F034FB0500200001F036FB2B0002009B
:104190000549009602A808F0E3FB02A800F0FAF82F
:1041A00042B070BD2D09002053FA000010B502483E
:1041B00001F0FCFA10BDC0462D090020072800DDE3
:1041C0000720C343DB171840014B18607047C046F7
:1041D00044000020F8B50E4E1700306001F018F8CA
:1041E000002308240B4D2B70306801F013F80028D1
:1041F0000AD1FA20013CC000FEF76AFA002CF3D184
:104200003800FFF7DBFFF8BD01232B70F8E7C0464D
:10421000300900202E0900200EB400B50C4BC2B0AE
:104220001B78002B10D00B4B1B6883420CDBFFF775
:1042300081FF44AA439902A8019208F003FF064BAC
:1042400002A9186800F04CFC42B008BC03B0184743
:104250002E0900204400002030090020F0B51F0086
:10426000164BC1B01B780C001600002B24D0144B49
:104270001B68834220DBFFF75DFF124D002C08D046
:1042800011492200684608F06BFB6946286800F077
:1042900015FC3400A31BBB420ADA22780B4968469E
:1042A00008F05EFB6946286800F008FC0134F1E77D
:1042B0000749286800F014FC41B0F0BD2E09002029
:1042C0004400002030090020D6FA0000DAFA00008D
:1042D00092FD0000F7B501931E4B06001B7800917C
:1042E0001400002B34D01C4B1B68062B30DD019BC7
:1042F0001A4D002B02D02B68002B12D02B68E71828
:10430000FF2F0ED816482200C018009907F041FA76
:10431000341E2F6005D03F223100124808F08EFB7A
:104320000024019B234313D02B68002B08D00D4F92
:104330000B4A39000720FFF791FF00233B702B60E9
:10434000002C05D02300009A31000720FFF786FFDC
:10435000F7BDC0462E09002044000020340A00208A
:1043600034090020380A0020074B10B51B780100E3
:10437000002B07D0054B1B68062B03DD044B186888
:1043800000F09CFB10BDC0462E0900204400002018
:1043900030090020074B10B51B780100002B07D017
:1043A000054B1B68062B03DD044B186800F098FBD7
:1043B00010BDC0462E090020440000203009002016
:1043C000074B10B51B780100002B08D0054B1B686C
:1043D000062B04DD044B0A22186800F0D6FB10BD42
:1043E0002E09002044000020300900201B4BF7B5A7
:1043F0001B7806000F00002B2ED0194B1B68062BD4
:104400002ADD002800D1174E002F01D1164B1F883E
:10441000164D1749286800F063FB00247B1E325DAF
:104420009C420ADA1349684608F09AFA0134694650
:10443000286800F043FBA4B2F0E70F49684608F093
:104440008FFA6946286800F04BFB0949286800F09C
:1044500047FB0022044B1A80F7BDC0462E090020FE
:10446000440000207A0A0020780A00203009002049
:1044700099FA0000D0FA0000DBFA000013B5002022
:104480006B46DC1DD87108F085FB201A16BD10B5EF
:1044900002F0A2FE10BD0000F0B587B004930CAB93
:1044A00003921C4F04CB3D781B781B4C01936B018E
:1044B000E4180291060001002000059208F089FA34
:1044C000029BA360039BE360049B2361059B6361E4
:1044D0000E9BA361019B012B0CD0002323773B781B
:1044E000320001330D4907203B70FFF795FE28008D
:1044F00007B0F0BD6B461B790E9A237708492B0055
:10450000300002F005F90749020060770720FFF745
:1045100083FEE4E77A0E00207C0E0020ADFB000055
:104520003548000099FB000010B543010248C0184F
:104530008368984710BDC0467C0E002070B50D0002
:104540000221040001F0DFFAC0B2002816D10100F8
:10455000200001F0B0FAC0B200280FD1280008F006
:1045600040FA29000200200001F0B1FAC0B2002890
:1045700004D10121200001F09EFAC0B270BD0000FC
:10458000F0B5A7B01F002CAB01911C7806A905005F
:10459000160002A8802201F07DFA1C496401091965
:1045A00002A8FFF7CBFF002803D06323180027B031
:1045B000F0BD31003A0002A801F089FA061EF4D1DC
:1045C00002A801F074FAC7B2040039B2280002F060
:1045D00097FE03230028E9D0E4B2220006A907F0E1
:1045E000D8F8019B0A491F700720FFF715FE23002A
:1045F00006AA08490720FFF731FEFFF73FFF0649EB
:1046000002000720FFF708FE3300CFE77C0E0020F2
:10461000E0FA00008A0401008B020100F0B50600F8
:10462000A9B04C36059205000F0005AA0B213000F9
:104630001C0002F00BF80390002804D08423BB7008
:1046400000233B643EE0039A0F21300001F0FEFF9F
:104650000290002801D18523F1E7AD78012D00D02B
:1046600081E06A46127B02AB544902989A7501F0C8
:10467000C3FA0390002828D102AB1635ED186B461B
:104680001B7B62012B704E4B29009B181B6908A8ED
:10469000984716212B7802A80094091808AA386DAB
:1046A000FFF76EFF0400039D02AB9B7D220045498E
:1046B0000720FFF7B1FD002C4FD1002D43D043233D
:1046C0003C64BB70002029B0F0BD3F49029801F066
:1046D00093FA029000286AD102000621300001F00E
:1046E000B5FF061E18D001F0BDFB002803D001283D
:1046F00009D004240EE0324B64011C19607F02F0E3
:1047000057F80400D0E72E4B64011C19607F02F0BB
:1047100063F80400029DC7E7172502ABED18284B8C
:1047200062019B1828702900DB6808A898471621A9
:104730002B7802A80094091808AA386DFFF720FF0B
:1047400035000400B0E702AB9B7D02223B643B00D6
:104750003C331A704523BB70B4E7042C01D0142CF1
:1047600029D186236BE7032D00D074E71726144B5D
:1047700064011C19636908AC0493029B20009D78B6
:1047800002ABF618029B357059682A0008F056F9FA
:104790006B461B7B310063552000049B9847002823
:1047A00003D144233864BB708CE7012801D1A123D5
:1047B00045E70428D5D0A02341E7C04660FB0000B0
:1047C0007C0E002069FB000064FB0000F7B50600CA
:1047D00000244C3601AA07000D0030000B21019483
:1047E00001F034FF300001AA0B2101F02FFF060079
:1047F000A04217D00D4B1B789C4211DA0C49630183
:10480000C918300001F0F8F9002806D12300019AF8
:1048100029003800FFF702FFFEBD0134E4B2E9E7EA
:104820008423AB7000202864F6E7C0467A0E00208F
:104830007C0E0020F0B50F25A7B002ABED180023C9
:104840000F0016000B4C2B705301E418220003904C
:1048500009490720FFF7E0FCE368290006A898470C
:104860002B7806AA009639000398FFF789FE27B037
:10487000F0BDC0467C0E0020C3FB000084238B707B
:10488000002363200B64704700B591B0154968465A
:1048900008F09FF81449684608F084F86846FFF766
:1048A00079FD1249684608F094F81149684608F005
:1048B00079F86846FFF76EFD0E4B0F4A0F496846C0
:1048C00008F04EF86846FFF765FD0D48FFF762FDFA
:1048D000FFF7D4FD0B4902000720FFF79DFC11B044
:1048E00000BDC046FBFA000019FB00001FFB0000E2
:1048F0002CFB000032FB00003EFB000047FB0000E9
:1049000092FD00008B02010007B50122194B010046
:104910001A700022184B19481A70914228D1184970
:10492000103208F08BF808204042FFF7C5FBE12168
:10493000072249021348FFF74DFC01210920FFF728
:10494000C3F801210920FFF7C3F80023FA220193DD
:104950000D4BD2005A2100930C48FF2302F038FB84
:1049600002F004FB3220FDF7B3FEFFF78DFF07BD19
:104970001022D6E7480000207A0E0020A000002078
:10498000F3FA00004811002092FD0000B80F00204B
:1049900010B5024800F088FA10BDC046FC0E002099
:1049A00010B5024800F080FA10BDC046B80F0020D4
:1049B00010B5024800F078FA10BDC046741000200F
:1049C000F7B584211A4FC905380000F0E2F81949FB
:1049D000194800F0DEF81949194800F0DAF8194DC5
:1049E0001949280000F0D5F8184E1949300000F098
:1049F000D0F81849184800F0CCF801240023310001
:104A00000326019322000094144800F01FFA390095
:104A1000009601940A230B22114800F017FA009621
:104A200029000194122313220E4800F00FFAF7BD5B
:104A30003011002000040042341100200008004220
:104A4000381100203C110020000C004240110020D1
:104A5000001000420004004344110020FC0E00201E
:104A6000B80F00207410002010B506F05DFE10BDD8
:104A700010B506F063FE10BDF7B506000D000C0082
:104A80008B180193019B671B9C4207D033682178E8
:104A90001B683000984701340028F3D13800FEBD70
:104AA00070B505000C00081E07D007F09AFF2B68B0
:104AB00002005B6821002800984770BD10B5FFF721
:104AC000EFFF10BD10B503681B68984710BD0000CC
:104AD00010B50249FFF7E4FF10BDC04690FD00008D
:104AE00070B50400FFF7DCFF05002000FFF7F0FFC2
:104AF000401970BDF0B5160000228DB002AB053331
:104B000001900D00DA77012E00DC0A260BAC28009C
:104B1000310003F075FD0F00CBB228003100009387
:104B200003F0E8FCFBB237330500013CDBB2092F90
:104B300002D8009B3033DBB22370002DE7D1210077
:104B40000198FFF7ADFF0DB0F0BDF8B506000C0001
:104B5000151E04D10368C9B21B689847F8BDD2B2CC
:104B60000A2D0DD12A0000290ADA2D21FFF7AAFF0C
:104B7000614207002A003000FFF7BCFF3818EDE75C
:104B800021003000FFF7B6FFE8E710B5FFF7DDFFC3
:104B900010BD01607047F0B505AC25780468981E1B
:104BA000471EB84126689207000632430243072099
:104BB00022600140AD01626829430020022B00D031
:104BC0005803114301436160F0BD10B5C024036870
:104BD000A4031868120522400243C0200904800281
:104BE0000140114319605A681043586010BD0122FA
:104BF000036819680A431A601A68D207FCD4DA6994
:104C0000D207F9D470470222036819680A431A6070
:104C1000DA699207FCD4704703681A7ED20702D47F
:104C20001A7E9207FCD57047002203685A837047AA
:104C30000368187E4007C00F70470368187EC009DC
:104C40007047802302685B42117E0B4313767047E6
:104C50000368187EC007C00F70470368188DC0B284
:104C6000704703681A7ED207FCD589B201201985E6
:104C70007047012203689A757047012203681A750C
:104C8000704700008422036830B5D205934211D0EA
:104C9000214A934234D0214A934234D0204A93424D
:104CA00034D0204A934234D01F4A934227D10D2357
:104CB000182201E0082312220121032599401B48F4
:104CC000C024016099082B40AB40FC359D40890011
:104CD0000918A40008599200A843C0259D402B0044
:104CE00003430B51124BD1184023CB67114908687D
:104CF000114908600E495218D16F1942FCD030BDDD
:104D000009231322D8E70A231422D5E70B231522FF
:104D1000D2E70C231622CFE700040042000800422D
:104D2000000C0042001000420004004300E100E0DB
:104D300004180040380000204C000020F8B5160090
:104D40001D000268184B04000F009A4200D1012692
:104D50002000FFF797FF2000FFF749FF1C22BB0050
:104D6000134072072468120C134323608423A37535
:104D7000012F18D11021012E00D008390B4B6943A7
:104D80001868C00003F0B6FB0722A3890240DB04C9
:104D90005203DB0C1343A3810304A089DB0C400BFB
:104DA00040031843A081F8BD000400434C000020DC
:104DB0000120704710B50368014A1B6A984710BD6F
:104DC0001304000010B504000069FFF710FF200075
:104DD000143002F0E1FC20005C3002F0DDFC10BD7C
:104DE00010B5143002F0ECFC10BD10B5040020002A
:104DF0005C3002F0E5FC0028F9D12069FFF70CFFD8
:104E000010BD10B55C3002F0E1FC10BD70B50500BE
:104E100004001435280002F0C3FC2300A8331B78DB
:104E20000600FF2B0AD0280002F0D0FC0A2805DD7E
:104E30002300B434B0331B6822681A60300070BDA0
:104E400010B5143002F0D0FC10BD0000F7B51D0005
:104E500008AB1B780400009309AB1B781600019384
:104E600000234360FA239B0083600E4B0F0008333E
:104E70000360143002F07AFC20005C3002F076FC13
:104E80006A4623001278A43327619A706A46127921
:104E90001E70DA7022005D70FF23A83220001370AC
:104EA0001374FEBD94FD000070B504000069FFF7A7
:104EB000BFFE002819D025002069FFF7CEFE14356B
:104EC0000100280002F05DFC2300A8331B78FF2BB3
:104ED0000BD0280002F07AFC092806DC230022000F
:104EE000AC33B4321B6812681A602069FFF7B0FE59
:104EF00000280DD025005C35280002F061FC002858
:104F000012D0280002F04CFCC1B22069FFF7A9FEC4
:104F10002069FFF792FE002805D02069FFF791FE77
:104F20002069FFF781FE70BD2069FFF7A6FEEFE75D
:104F3000F8B5040000690E002500FFF789FE5C3516
:104F4000002820D13F27280002F058FC00282DD04F
:104F5000EFF31083012213420CD1EFF305833B40A2
:104F6000F1D0103B5BB2002B17DB9B08C033144A17
:104F70009B009B582069FFF76BFE0028E3D02000C0
:104F8000FFF792FFDFE7280002F01AFC0028D9D1D2
:104F900031002069FFF765FE0FE00F221340083B48
:104FA0009B08084A9B009B181B68E3E72800310018
:104FB00002F0E7FB2069FFF75CFE0120F8BDC04668
:104FC00000E100E01CED00E0F020014030394842F3
:104FD00048417047F0231B011940802306209B00A5
:104FE00099420AD00133FF330130994205D0802322
:104FF00002385B00994200D0002070470F2001402A
:105000000020012903D00239481E8141481C704705
:105010000300F0B50400A43385B018780F000E210A
:105020001500FEF7BFFD2300A53318780E21FEF70B
:10503000B9FD2300A73303931B78022B07D123006C
:10504000B8331878FF2802D00E21FEF7ABFD2600FA
:10505000A8363078FF281AD00121FEF735FD0C2143
:1050600033781F4A594320008B5C52185178012233
:105070001C4EDB01AC309E1906601B488A401B1891
:1050800021002000B431B03003600A601A600122B0
:105090003B0011002069FFF751FE29002000FFF7B7
:1050A00099FF290006002000FFF7A8FF290007004C
:1050B0002000FFF789FF3B000090310020690122AA
:1050C000FFF769FD2300A6331A78039B206919783E
:1050D000FFF77BFD2069FFF796FD05B0F0BDC046E8
:1050E000E0FB000018280040142800403F207047D3
:1050F00013B56B460268D971073354681900012251
:10510000A04716BD10B502210069FDF769FF10BD6B
:1051100010B503210069FDF779FF10BD10B513002C
:1051200004000A0000690321FEF76AF8002801D193
:105130000123636010BD000010B5054C23685A1CA4
:1051400004D103685B69984703002060180010BD14
:1051500098000020074B0200186810B5411C03D0CE
:10516000012252421A6010BD02211069FEF73AF87E
:10517000F9E7C0469800002010B503783A220233C0
:10518000037002490248FEF7E7F810BD5C000020FA
:105190006C03002010B50178030042780020A1299B
:1051A00008D1212A05D11A3A16491748FEF7D4F832
:1051B000012010BD2129FCD1202A11D1193A114911
:1051C0001148FDF767FF96220E4BD20019689142F5
:1051D00003D10124D87904400ED0FDF7DDFA0EE0AA
:1051E000222A03D19A78074BDA71ECE7232AE0D11F
:1051F0005A88064B1A60DCE7FA20FDF7C7FA002050
:10520000D7E7C046540000206C0300205000002067
:105210007047000010B5FDF725FAF423FF33002492
:10522000984207D9044B0A20DC79631E9C41E4B202
:10523000FDF74EFA200010BD54000020FA22002194
:10524000054B92009A60054A596008321A60044A78
:1052500019761A617047C04648110020C8FD000049
:105260006C03002070B50E0000254468002C0BD0A4
:10527000236831005B6820009847002802DB2D1866
:10528000E468F3E701256D42280070BD70B50D009C
:105290004468002C08D0236829009B6820009847A8
:1052A000002802D1E468F4E7200070BD70B50D005D
:1052B0004468002C07D0236829002000DB68984749
:1052C000E4682D18F5E72C7070BD70B50D004468CA
:1052D000002C08D0236829001B682000984700286C
:1052E00002D1E468F4E7200070BD00000121064A05
:1052F00010B5136805480B4005D102240470241929
:1053000044704360116010BD6411002068110020DA
:10531000074B10B50400417182710649186803F00B
:10532000E9F8FA239B005843E060200010BDC04616
:105330003800002040420F0010B5040002214079DF
:10534000FEF7C2FB014BA36010BDC04630F8FFFF63
:1053500070B505000E0000246879FEF70DFCB04220
:1053600004D1EA68631C944202D30024200070BD7B
:105370001C00F1E770B5D0B00D000400FDF772F924
:10538000002D07D1A3683D4AC31A934202D8207C5E
:1053900050B070BD0025A060012160792571E570D5
:1053A000A57065702570FEF793FBFA20FDF790F964
:1053B00060790121FEF788FB60792900FEF788FB00
:1053C0001420FDF785F972B601216079FEF780FBA4
:1053D000A0239B00013BFDD102216079FEF774FB05
:1053E000A023013BFDD129002000FFF7B1FFA84217
:1053F00003D10020207462B6CAE701212000FFF724
:10540000A7FF0028F5D0A026760000212000FFF796
:105410009FFF6B460121E8502000FFF799FF2B000A
:1054200008356B445860B542EFD162B600220121C5
:105430006846D300C0586B445E68002801D0002E37
:1054400002D100202074A3E7D510635D5B00DBB2BE
:10545000B04210D301326355282AE9D1617823780C
:1054600022795B18A1785B18E1785B18DBB29A426D
:10547000E7D10120E6E70B43ECE7C046CF07000089
:10548000F8B50D0011000400FFF774FF002807D0E5
:10549000A379DAB20B2A05D002D3153B012B13D91D
:1054A000194810E0A07804F00FF9002D0BD005F09A
:1054B000F9FE164A164B05F091F80022154B04F040
:1054C00049F905F041FFF8BD7F20A678304004F08F
:1054D000ABF88721C90503F0B3FD071CE07804F0A1
:1054E000A3F8391C03F02AFA05F0DCFE0A4A0B4B3C
:1054F00005F074F876B205F027FF002ED5DA802388
:105500001B06C018D1E7C0460000C07FCDCCCCCC74
:10551000CCCCFC3F000040409A9999999999B93FA9
:1055200070B500210400FFF725FF002807D0A379FC
:10553000DAB20B2A05D002D3153B012B05D90E4850
:1055400002E0207804F0C0F870BD207804F0BCF8C8
:105550008721C90503F074FD051C607804F064F828
:10556000291C03F0EBF905F09DFE044A044B05F0FD
:1055700035F805F0E9FEE7E70000C07F9A999999B0
:105580009999B93F10B50400081C05F08BFE084A34
:10559000084B05F023F802000B000020064904F038
:1055A000E9FB05F0D1FE054903F04AFD606010BD3E
:1055B000182D4454FB2119400000F03F0024744989
:1055C00070B504001D1C0170111CFFF7DBFFE560C6
:1055D00025616561FDF74CF8E06170BDD0B5040050
:1055E0000078032835D802F07BFF1902041EE0681A
:1055F000D0BD606805F056FE0022174B04F0BAFBE0
:105600000600E0680F0005F04DFE02000B003000C0
:10561000390004F0E3FF05F097FEE9E7E16860690F
:1056200003F02EFEE4E7E168606903F029FE05F06F
:1056300039FE060060680F0005F034FE0022064BBC
:1056400004F098FB02000B003000390004F092FBDC
:10565000E1E70020CCE7C04680842E41F8B5040085
:105660000E1CFDF705F8E3690500C01A03F0DCFF26
:10567000E368011C2361A061E5616661606803F075
:10568000EFFAA06005F00EFE02000B0000201849A2
:1056900004F070FB02F076FC05F056FE051C05F0E8
:1056A00001FE02000B000020124905F017FA060067
:1056B00060690F0005F0F6FD02000B0030003900B4
:1056C00004F08CFF06000F00281C216903F0B8FCD1
:1056D00005F0E8FD02000B003000390004F03AF854
:1056E00005F032FEE0602000FFF778FFF8BDC0460D
:1056F0000000F0BF0000F03FF7B5FE2600270400D1
:10570000B605151C3B1C321C01910121FFF758FF07
:1057100020003B1C321C20300121FFF751FF0849BB
:10572000019803F09DFA074903F08AFC606060620B
:1057300065612561E56065632563E5622000FEBD66
:105740003D0A57400024744910B50400081C044960
:1057500003F086FA034903F073FC6060606210BDD9
:105760003D0A57400024744910B50400FFF776FF46
:105770002034011C2000FFF771FF2000FFF72EFFEF
:1057800010BD41610161C16041630163C162704745
:1057900010B52030FFF722FF10BD0000024B186942
:1057A000431E9841C0B270470020004000230370A0
:1057B0007047000010B5FFF7F1FF0028FBD1014B47
:1057C000986910BD0020004010B5FFF7F3FF3F239C
:1057D000184010BD10B5FFF7EDFF0005800E10BD9D
:1057E00010B5FFF7E7FFC003C00E10BD10B5FFF7FF
:1057F000E1FF8002C00E10BD10B5FFF7DBFF800196
:10580000000F10BD10B5FFF7D5FF800E10BD0000D2
:10581000C888094BCA78C0188306087952048005E5
:1058200010430A7810438A78120310434A78920191
:10583000104318437047C04630F8FFFFFA2010B5F8
:105840001F248B0EC0001B18480C2040D0703F2036
:10585000D3808B011B0F13710B0B234093708B09AB
:10586000034001405370117010BD000030B58DB081
:105870000500FFF79FFF01AC010022002800FFF7A1
:10588000DDFFE388094A03A89B1808932379013BAD
:105890000793E3780693A3780593637804932378BA
:1058A000039306F065F80DB030BDC04694F8FFFFD5
:1058B00010B5FFF773FF0028FBD10221054B064A04
:1058C0001A819A811A888A431A80FFF767FF002895
:1058D000FBD110BD00200040FF81FFFF10B5FFF796
:1058E0005DFF0028FBD10223044A11880B4313807B
:1058F000FFF754FF0028FBD110BDC0460020004038
:1059000070B50500FFF784FF0600FFF747FF00288A
:10591000FBD10B4C2800FFF7CBFFA661FFF73EFF42
:105920000028FBD180222388120213432380FFF733
:1059300035FF0028FBD12800FFF7D0FF70BDC0461F
:10594000002000401FB50E4B0400994200D2190000
:1059500001A8019105F0E2FD037B02A9CB70036968
:10596000084A01330B7143699B18CB80037A8B7013
:1059700003794B70036820000B70FFF7C1FF1FBD58
:1059800080436D386C07000010B5FFF791FFFFF7FB
:1059900005FF0028FBD10123044A11880B43138023
:1059A000FFF7FCFE0028FBD110BDC04600200040E0
:1059B000802310B50D4A5B00516904000B4353610D
:1059C00004220B4B1A61FFF7DFFFFFF7E7FE002809
:1059D000FBD1084A084B1A80FFF7E0FE0028FBD1F4
:1059E0002000FFF77BFF0123237010BD000400405F
:1059F00000100040088BFFFF00200040F7B58446F0
:105A00000D00019216BAD3B20024172A0AD9130046
:105A1000183BE72B11D9531E1C49FF3B8B420FD873
:105A200019230224A96868680F19B8420BD2012310
:105A30000124EB6064422000FEBD18230124F1E73D
:105A40001A230424EEE760464F1C1843AF60087029
:105A5000002CF0D0022C0ED0042C15D00823012CE1
:105A6000E6D1220001A9A86805F093FEAB681C19D5
:105A7000AC600024DFE70649130292B20B40120A21
:105A80001A4392B20192ECE70196EAE7FFFE0000AA
:105A900000FFFF0070B505000C0016000021102269
:105AA00005F092FE2C60AC60A4196C6070BD836838
:105AB0000068181A7047002310B50A00994201DAED
:105AC000CA43203301001800FFF798FF10BDF8B556
:105AD00004000F00010060201500FFF78FFF061E75
:105AE00007D1A06863681B1A9D4204DD0123013EB3
:105AF000E3603000F8BD2A00390005F04AFEA368D3
:105B00005D19A560F5E710B50A000100A020FFF7B8
:105B100075FF10BD42884368012A03D0022A03D0D2
:105B2000002000E0187870475878FCE73F2210B555
:105B300001650B791D249343402B16D10B1D036186
:105B40000B79303A9B069B0F03700B791A40427019
:105B50004B7983708C79CB7924021B1900248380C4
:105B600004640831063005F014FE200010BD4368BF
:105B7000186800BA7047000070B5020005000C00FC
:105B800007200949FEF748FB0C200849084B0A7812
:105B90005043C5521B18043321CC21C303230132C7
:105BA0001A4000200A7070BD0FFE0000A8120020ED
:105BB0007812002070B5020005000C0007200C4987
:105BC000FEF72AFB00220C210A4B1600042A0DD0F6
:105BD0000800013250430C38185AA842F5D17143DD
:105BE0005B185A6821009868904770BD0C20FCE74C
:105BF000ECFD00007812002070B503000C000120BD
:105C000000290AD05D8858682A0006F006FF00289F
:105C100003D1200006F0E5FE281A70BDF0B500247F
:105C2000124D85B0019003942C70019803AA0B21AA
:105C30004C3000F00BFD061E12D043881B19FF2BC1
:105C400011DC2F23671C2B55EC194288416820007A
:105C500005F09FFD00227388E2547488E419E4E79C
:105C6000280005B0F0BD0020FBE7C04672110020FF
:105C700010B5C0B000236A46137003780400294AA7
:105C8000002B06D0284A012B03D0284A022B00D033
:105C9000274A28490720FEF7BFFAA3781F221900D8
:105CA000914336D1244A012B09D0244A022B06D035
:105CB000234A032B03D0234A042B00D0224A234932
:105CC0000720FEF7A9FA2000FFF7A8FF03780100DC
:105CD000002B02D0684606F065FE200000224C3002
:105CE0000F2100F0B3FC041E08D01949684606F0E5
:105CF00059FE62886168684606F07AFE6B461B783A
:105D0000002B04D06A4613490620FEF785FA40B0FE
:105D100010BD114A402903D0104A802900D0104AF2
:105D20001049CDE7CBFF0000C7FF0000D3FF000004
:105D3000CFFF000013000100DCFF0000D7FF0000D0
:105D4000E0FF0000EAFF0000E4FF00002400010083
:105D500001FA000042000100FEFF00000600010001
:105D6000F1FF00003500010070B50F260B781D1102
:105D7000ACB233400C2D13DD0D2D06D14C780B3D0C
:105D80000D340C2B0ED89BB211E00E2D24D18C7843
:105D90004D780E342D02FF346419A4B20325F0E7C8
:105DA0000125EEE70D2B0DD14B5D01350D339542ED
:105DB00012DC5E19B2420FDB491904804380416056
:105DC000300070BD0E2C07D14E5D4B195B7836024A
:105DD0009B190E33FF33D6E701267642F0E7000029
:105DE000F7B50E0086210388050049008B4234DC9C
:105DF00047888F4231DC01A90C2B12DC1B010B7090
:105E00006B465C1D0C2F13DC0B783B430B70641A44
:105E10003F19974215DD03201149FEF7FDF90020D7
:105E2000FEBD0D3BD0204B706B4608709C1DE9E712
:105E30000D23087803430B703B000D3B23700134A6
:105E4000E5E72200300005F0A4FC6A883019696893
:105E500005F0A8FC68880019E2E701204042DFE76E
:105E60002EFE000010B542880300042A06D9202126
:105E7000144B154AFF31154805F00EFB013A00207E
:105E8000032A06D8100002F02BFB02050C195B68F0
:105E9000187810BD5B681B88180A1B02184380B273
:105EA000F7E75B680A491B6818021A040A40000EEB
:105EB0001043FF22120213401843EAE71800FFF7CD
:105EC00056FEE6E757FE00007A00010071FE000072
:105ED00000FFFF0010B542880300042A06D93621CE
:105EE000144B154AFF31154805F0D6FA013A002047
:105EF000032A06D8100002F0F3FA02050C195B68B9
:105F0000187810BD5B681B88180A1B02184380B202
:105F1000F7E75B680A491B6818021A040A40000E7A
:105F20001043FF22120213401843EAE71800FFF75C
:105F30001EFEE6E757FE00005500010071FE00005E
:105F400000FFFF0010B5054C2388002B02D1FEF79F
:105F5000CBF820802088431C238010BD70110020C6
:105F60000B00F0B504338BB005930B880600029349
:105F70004523049113700392029B059A534907200D
:105F8000FEF76CF904993000FFF7D0FD019000286E
:105F90003DD101277578B3780435B764B561002B1E
:105FA00035D001F04BF9029B1038834232DC019C62
:105FB0000797059B08A85F19029B39005A1BFFF73A
:105FC000D3FE0690002863DD08AB1B884049E41827
:105FD000A4B208AB5B8822000720FEF71DF908ABCE
:105FE0005B88099A3B490720FEF738F9300008AB77
:105FF00019004C301C8000F0E7FA071E10D036491B
:106000000120FEF709F9A023039A01971370019864
:106010000BB0F0BD8D23039A1370833B0193F6E719
:10602000069BED180F2C20D80E2CC2D2072CC0D006
:1060300010D8032CBDD0062C22D0079B1C42B8D010
:10604000220026490320FEF7E7F88223039A137003
:10605000813BE3E70B2CACD00C2CEED108A8FFF76A
:1060600059FD33003C331870A3E7172CA1D002D898
:10607000112CF3D0E1E7232C9BD0272CDDD198E71E
:1060800008A8FFF7EFFE002800D092E7B06490E781
:10609000002C0FD0029B9D420CD03B78FF2B08D0E8
:1060A0000F490320FEF7B8F88F23039A13707B3B48
:1060B000B4E701356A46029B756112895D1B049B3A
:1060C000356430001A80FFF7D3FDA0E7BBFE000067
:1060D000CBFE00002E030100E3FE0000FDFE0000E9
:1060E0001BFF0000F7B50C0026000500002117007B
:1060F000200054224C3605F067FB300000F030FAE7
:106100002B78A91D23706B7808226370A01D05F001
:1061100040FB2800AB884C30A3806B6C002263648A
:10612000AB6C0621A36400F091FA002815D0FFF7AC
:1061300099FEA36C002B10D100280ED16A460325CE
:106140000633694630001380558000F03DFA002880
:1061500003D003492800FEF75FF82765F7BDC04666
:106160009FFE0000F0B506008DB0FFF781FD4023D3
:10617000327805AD120113432B70B378002B1CD17C
:1061800004246B70B3881A12AA70EB702100306D72
:1061900001F0A0F807000320002F4BD037653E1D0B
:1061A00022002900300005F0F4FA07203B88320075
:1061B0005149FEF753F800203CE03F2B00D899E00E
:1061C0006B70B3881A12AA70EB707478002C33D0FD
:1061D0000420082C2EDC2200B11D06A805F0D9FAF7
:1061E0002B7823432B70043433004C3300220621D8
:1061F0001800019300F02AFA002821D003AF02AB67
:1062000043603B0006C806C300F0C6F802903800A1
:10621000FFF760FE1C2206230290121B291938008A
:106220003B80FFF7DDFD002808D134490330FDF73E
:10623000F3FF03200DB0F0BD0424D5E72418062099
:10624000336C002B44D00C233200181A03AF388073
:106250003C321378002B0FD102AA7A601C22291934
:10626000121B38007B800293FFF7BAFD2418002828
:106270000ED123490320DAE77A601C220123121B86
:10628000291938007B80FFF7ABFD0028F1D02418D6
:1062900000220E21019800F0D9F900281AD002AB93
:1062A00043603B0006C806C3164B38001B680293C8
:1062B000FFF710FE1C2202230290121B291938003E
:1062C0003B80FFF78DFD2418002803DC0E49D1E741
:1062D000002805D0336C002B02D0FF232B5501344E
:1062E0001C2C00DC52E7F021084B094A89000948C0
:1062F00005F0D2F804209DE7BEFF000037FF000044
:106300005AFF00007412002084FF0000A7FF000065
:106310009F00010071FE0000014B18607047C046ED
:1063200074120020F7B505000F0001921E00042032
:10633000002D2ED02B78002B2BD0089B1C78032C03
:1063400027DC032C0CDC982149006143114B280009
:10635000591806F034FB002802D00134E4B2F0E70B
:106360000C20042C15D098235B0063430949019845
:10637000CD182A00FF3252780233FF33C9183A7021
:1063800005F007FA0020FC352B6901343360089BC7
:106390001C70FEBDAC120020054B06491A688A42EB
:1063A00003D102221A60186870470132FAE7C0462A
:1063B0009C000020FFFFFF00F0B585B000900E00AC
:1063C0000292142300282FD006F00BFB1423FF2881
:1063D0002AD8377F002F3FD037001C37380006F00F
:1063E00000FB0500334B344A9C1C9B180193B31DE2
:1063F000FF340393A11EFF392A00380006F00DFB7D
:10640000002814D1631E71781A788A4200DA0A00D3
:106410002100039805F0AEF9002808D1009A274919
:106420000630FDF7F9FE0923180005B0F0BD313440
:10643000019BFF34A342DDD1042400271D4D982386
:106440005B007B430098E918019306F0B8FA002836
:1064500004D1009A1A49E3E70424EFE7019B5B5D4E
:10646000002B02D1042C00D13C000137042FE6D1CF
:106470001423042CD8D01D33FF335C432F193B0069
:106480007278A01CFF33FF305A70B11D281805F038
:1064900080F90099380006F09CFA20003100029B38
:1064A0001130FC37FF303B611C31281806F091FA9F
:1064B0000023B9E7AC120020C1050000C8000100AC
:1064C000FA000100F0B585B0070000910192029337
:1064D0000420002F36D00B0000241F4D0633AE1CC5
:1064E000FF360393B11EFF39380006F068FA002822
:1064F0002AD1009A731E51781A788A4200DA0A006B
:106500003100039805F036F9002802D0029B002BD9
:106510001AD098235B0063430024EC54ED182B0041
:10652000FC331969019A30001160FF351C610822A3
:10653000210005F049F906206C743A000749FDF77F
:106540006BFE200005B0F0BD31360134FF36042C5F
:10655000C8D10C20F6E7C046AC1200202201010091
:1065600010B5002805D1044B044A8021044804F0EA
:1065700093FF0023036010BD720101004C02010073
:106580007501010070B5041E05D10C4B0C4A922117
:106590000C4804F081FF006800280ED0236885684D
:1065A000984205D1256005F0C9F82800F4E71300EA
:1065B0009A689042FBD19D60F5E770BD72010100C1
:1065C000C80101007501010070B506000D0000282A
:1065D00005D1A921194B1A4A1A4804F05DFF002978
:1065E00003D1194B164AAF21F6E70C2005F09CF8B1
:1065F00004000320002C12D00C220021200005F002
:10660000E3F823002A0003CA03C33368002B03D036
:106610002A881988914204DDA3603460002070BD8F
:1066200003009868002805D001888A42F8DAA06043
:106630009C60F3E7A0609C60F1E7C0467201010036
:10664000A3010100750101004501010007B5002803
:1066500006D183210E4B0F4A49000F4804F01CFF5E
:10666000006801AB0190002A04D01368002B0AD106
:10667000106013001868002808D002888A4205D0EC
:1066800082681A60F6E79B681360F2E70EBDC046A9
:10669000720101000E02010075010100F8B504004D
:1066A0000F00002806D14C21124B134AFF3113482A
:1066B00004F0F2FE0C250068002812D003888668DA
:1066C000BB4206D12368984206D1266005F036F811
:1066D00000253000F0E713009A689042FBD19E60DD
:1066E000F4E7002D04D03A0005490720FDF794FD9A
:1066F0002800F8BD72010100E201010075010100EE
:10670000510101000368013303600020704700005D
:10671000F7B534248446114D114E28780F0060439C
:106720000092104962463018019306F019F92B784F
:106730006A465C43009B3619B362330012793133E9
:106740001A703200002330323762F3621370FDF7A3
:10675000CBFC70622878431C2B70FEBD6C170020A8
:1067600070170020A7030100F8B534250D4C0E4E1C
:1067700023780F006B4302000C49F01806F0F0F884
:106780003C2324786C4334192200A3620023313265
:106790001370013A27621370E362FDF7A5FC606293
:1067A000F8BDC0466C17002070170020A703010039
:1067B00010B50400FDF798FC34235C43054B012120
:1067C0001B191A00303211700A225862DA62002056
:1067D00010BDC0467017002034214143074B10B54F
:1067E0005B1819000024303102000C705C62DC621E
:1067F00003490720FDF710FD200010BD7017002091
:10680000B3030100F0B50A279FB002AB0B26FF18B7
:10681000002302AAB6183B703370594B0400196864
:10682000002907D057490720FDF7F6FC1024200067
:106830001FB0F0BD09AD5422280004F0C5FF22228C
:10684000342302A952181D2163434F4C02A8E418B7
:106850000293091800961AAB2000FFF763FD03901E
:10686000002806D0220049490320FDF7D5FC0C245E
:10687000DDE71CA8FFF774FE00F0E6FC061E30D032
:106880001C2100F027FD424B1A78236A012A2AD1E5
:1068900031342278390030009847041E37D11C214A
:1068A000300000F03DFD2E65FFF74CFB032706236B
:1068B00007ACA88021001CA823806780FFF784FE16
:1068C000344900280AD10E23210023801CA80A3B4A
:1068D0006380FFF779FE041E07D02F493800FDF7CB
:1068E0009BFC032413E0039AD4E7338802222B6431
:1068F0004523AB7018AB1A70012328002B70FFF7EB
:1069000031FC00280ED025493800FDF785FC1CA875
:10691000FFF738FE22490720FDF77EFC300000F02B
:10692000BDFC84E7029C184B2C341C191D4B0694AB
:106930000593A88805A9FFF71FF9114B18680028CF
:1069400008D000F0ABFC9623174AFF331749072005
:10695000FDF762FC2B6D1CA80293029A084B0024E1
:106960001A60FFF70FFE00210920FDF7B1F80120A2
:10697000FBF7AEFE01210920FDF7AAF857E7C04654
:10698000401800209802010070170020E302010067
:1069900048000020FD020100190301003503010039
:1069A0007903010005670000CB0301005F030100CC
:1069B000F8B5FDF799FB002405003420184B1F782B
:1069C000BC4227DA03006343164AD3181A00303258
:1069D0001278002A20D05A6A002A00D15D62030092
:1069E0006343104AD318996A1E008C465A6A2436AB
:1069F0009444AC4510D80C490720FDF70DFC3560D8
:106A00002000FFF7FFFEFDF739FD084902000720CF
:106A1000FDF702FC0120F8BD0134E4B2D0E7C04626
:106A20006C17002070170020630201007F02010034
:106A3000F0B5060000224C3687B005000C0030008F
:106A400006210392FFF702FE002804D02000062151
:106A50004C30FFF723FE03AA0B213000FFF7F6FDB1
:106A600003AA0B213000FFF7F1FD071E00D194E0CF
:106A70008149FFF7C1F80190002800D07EE0039B18
:106A8000300004AA0B210493FFF7E0FD061E05D099
:106A90008423A370019B2364002517E0AB78012BAE
:106AA00024D1FDF721FB0500020074490720FDF702
:106AB000B3FB2DBA0421206D059500F021FC0028C0
:106AC00007D103256E4A136801331360280007B00D
:106AD000F0BD042505A92A0004F05BFE23002A224C
:106AE0003C3325641A704523A370D5E7032B41D1AD
:106AF0006969286D00F014FC2F6D3B88002B06D0CF
:106B00003B799A1F012A02D87A79082A01D0862374
:106B1000EAE73500062BD9D13A1D0433594907203D
:106B2000FDF79CFBFF21FA79BB7912021A433B7AED
:106B300009021B041A437B7A07201B0613431A061B
:106B40001E0E16431A0A0A401643FF221B021204A5
:106B500013401E4332004C49FDF75EFB31004B48A9
:106B6000FEF7F0FEFDF704FBFDF7C6FA4423A37021
:106B70002564ABE7A1232064A3708DE74449380066
:106B8000FFF73AF8002808D1039B05AA0B21300033
:106B90000593FFF75BFD021E01D084234FE0300018
:106BA0000F21FFF753FDAB780600012B51D1394976
:106BB000FFF722F8051E3BD12821206D00F0A0FB35
:106BC0002F4B002814D11A68033501321A6028238C
:106BD0002A0031490720FDF71FFB002D34D128235F
:106BE000236423002A223C331A704523A3706DE7E7
:106BF000082202701C3242701A6812BA42605A6847
:106C000012BA82609A6812BAC260DA6812BA026175
:106C10001A6912BA42615A6912BA82619A6912BA41
:106C2000C261DA691B6A12BA1BBA02624362CEE71A
:106C30001A493000FEF7E0FF002803D0A123A3701B
:106C4000002595E70425C2E7A023042DF7D186236C
:106C5000F5E7032BF2D10F49FEF7CEFF0028EDD068
:106C60000E493000FEF7C8FF0028E7D104220C4986
:106C70000730FDF7D1FAEAE7570401005C04010090
:106C8000781800207C040100920401002D090020E6
:106C9000AD040100B3040100C4040100BC04010000
:106CA000E3040100F0B5454B87B01B680D0003936A
:106CB000002305938B708278012A00D079E04C3054
:106CC00005AA0B210400FFF7C1FC002800D173E0E6
:106CD00005AA0B212000FFF7B9FC002800D16BE0CA
:106CE0003749FEF789FF002866D105AA0B2120004D
:106CF000FFF7ACFC00285FD10223324E0093183618
:106D0000009B039A93424ADA306805F06AFE040059
:106D1000B068231D002803D005F063FE0534231856
:106D200001936B46286D0421595E00F0E9FA041EB8
:106D300007D1254A136801331360A023AB70632089
:106D400035E00222214904F024FD3768380005F0BF
:106D500048FE0290029AA01C390004F01AFD3E225F
:106D6000029BE3189A70B268002A0CD03B22DA70BA
:106D7000B768380005F035FE02000298390004308B
:106D8000201804F006FD019B0C36E4182C23013C6E
:106D900023701933AB70009B01330093B0E72B00D5
:106DA00028223C331A702B6D1B882B64002007B0FF
:106DB000F0BDA1228A70F9E78423BFE744180020C0
:106DC0004F040100481800207818002054040100E6
:106DD00030B5837891B00C00012B2BD11649684651
:106DE00005F0F7FD1549684605F0DCFD684605F03D
:106DF000F8FD01B2206D00F083FA051E08D1104A9B
:106E0000136801331360A0230020A37011B030BDBC
:106E1000684605F0E6FD69460200280004F0B9FC6A
:106E2000684605F0DEFD230000223C3320641A7022
:106E30004523E9E78323E7E7FBFA000019FB00009D
:106E400078180020032330B5074C25689D4209DCE3
:106E50006B1C23600C246C43044BE0501B195960DD
:106E60009A600023180030BD441800204818002004
:106E700010B500240D4B0E4A0E490F481C60FFF759
:106E8000E1FF22000D490E48FFF7DCFF0D4A0E49D5
:106E90000E48FFF7D7FF0E4B0E4A1B780E480F49DE
:106EA000012B00D00E49FFF7CDFF10BD4418002084
:106EB000DC030100D16D000092FD0000A56C000014
:106EC000EE030100FA030100316A00001F04010013
:106ED0004800002023040100A0000020CD4700004E
:106EE0007D480000F8B5002206000C004C300B2154
:106EF000FFF7ACFB071E10D000250C236B431A4A8A
:106F00003800D158FEF778FE002807D00135042D4F
:106F1000F3D184230DE0012323E005000C235D431E
:106F2000114B21005D196B6830009847002801D093
:106F3000A023A37025004C35002206212800FFF76E
:106F400085FBA3785B09022B01D1002805D106211E
:106F50002800FFF7A3FB0123A3643378002BDAD1C9
:106F6000023300202370F8BD4818002070B500F0EF
:106F70006BF9041E05D10320114A13680133136015
:106F800070BD142100F0BCF914220E4904F001FC7C
:106F90000D4D2868002801D000F080F90B4907202A
:106FA0002C60FDF739F900210920FCF791FD012043
:106FB000FBF78EFB09200121FCF78AFD0020DFE7AB
:106FC000781800201005010040180020F40401008A
:106FD000F8B50F0015001E000400FFF749FF380048
:106FE000FFF79AF907990698FFF7BEFB32002900D0
:106FF000200000F0EBF9002803D002490320FDF740
:107000000BF9F8BD790501000023F0B5B1B003908C
:10701000059300F019F9061E29D006AC5422002170
:10702000200004F0D1FB1BAD19A8FFF799FA5422F8
:107030000021280004F0C8FB2EA8FFF791FA0B23CB
:1070400002AA9B181A0003992000FEF789FF071E69
:1070500000D07BE02378022B1FD13900A088FEF7F7
:10706000A9FDA288030053490620FDF7D5F81A9B15
:107070000393002B08D050490720FDF7CDF81A984C
:1070800000F00CF900231A9319A8FFF77BFA2EA839
:10709000FFF778FA300031B0F0BD3200290020004F
:1070A000FFF720F8A378002B28D12B642378002B3E
:1070B00001D103332B702000FEF7B0FDAA6C07004E
:1070C000002A05D106212EA8FFF7C0FA00285FD1BB
:1070D0000022062119A8FFF7B9FA002823D0FEF7ED
:1070E000C1FE01281FD1002305AA21003800FFF7A7
:1070F000E9F9002817D13A00304958E0290020006A
:10710000FFF7F0FE0028D6D0A0232F64AB70D2E7A3
:1071100006212EA8FFF7C2FA01233A0003202849CE
:10712000AB64FDF779F81BA8FFF71CF8002801D025
:10713000244903E034882449002C98D10720FDF726
:107140006BF8300000F0AAF8002690E71F491D28D0
:10715000F4D0A278039B1E491B88009202000320F2
:10716000FDF75AF8320029002000FEF7BBFF237814
:10717000002B0BD102332B7002ABDB7A2800AB70F3
:10718000FEF7F0FF002800D171E7D1E70123F2E715
:1071900005AA210001233800FFF794F905AA210070
:1071A0003800FFF709F90028B2D13A000949072051
:1071B000B7E7C046950501009206010006060100EA
:1071C000C4050100220601003E060100530601002D
:1071D0006D060100EA05010070B500F0B9F900F094
:1071E0003BF9051E1CD0FFF70FFF041E0AD00188D3
:1071F000043000F05BF907200A49FDF70DF8200084
:1072000000F04CF808490720FDF706F8280000F0C8
:1072100045F8FDF733F9054902000720FCF7FCFFAC
:1072200070BDC04624050100420501006005010053
:10723000014B18607047C0469C180020014B18682D
:107240007047C0469C18002070B50E4D07202B6873
:107250000D491C1D2200FCF7DFFF200004F064FA3A
:10726000002805D1094B0A4A4A210A4804F014F9BA
:107270000023094A03802B6843801368013313609D
:1072800070BDC0469C180020AC060100C806010075
:10729000F5060100CA060100A418002010B504F08C
:1072A0004DFA024A13680133136010BDA018002084
:1072B00070B50500FFF7C8FF041E07D0044B290076
:1072C0001A68043204F065FA2B882380200070BD10
:1072D0009C180020094B02881B6870B50D005118DE
:1072E0000400994208DC011D481904F05BFA21886A
:1072F00049192180200070BD0024FBE79C18002064
:10730000064B10B504881B686118020000209942E2
:1073100002DC101D0019118010BDC0469C18002011
:1073200010B5002811D0028813008A4205DB4C42B8
:10733000A24202DB002909DB0B00D21A92B2191D0E
:1073400002804118043004F02DFA10BD521802805A
:10735000FBE70000022330B5194C93B01949072010
:107360002373FCF759FF0121062000F077FA05ADE1
:10737000010004A8A37B627B01900095002000F02F
:10738000F5FA636803AA0793A3681A2108930123F7
:107390000BA809930A9307AB00F0A4FB039A0BA96F
:1073A000280000F0D1FB084902000720FCF734FF59
:1073B00000202074E073A074607413B030BDC04628
:1073C000AC180020FF08010011090100F7B51C4CA2
:1073D0000191266815006327002E06D1FF2A06D9E1
:1073E000FF2318490720FCF717FF3800FEBD0127CF
:1073F000110000F00FFA144B019A31001A602000BE
:10740000202204F0E1F9280027606560A560277359
:10741000FFF70EFFFFF718FFA061002805D10B4B07
:107420000B4A64210B4804F037F8380000F088FA62
:107430006073380000F084FA3700A073D5E7C046C7
:10744000AC18002003070100A81800205B0701000A
:10745000450901006407010070B50F4DEC69002C6F
:1074600018D0A869FFF724FF041E06D197210B4B03
:107470000B4A49000B4804F00FF80021A86901806D
:10748000E9614288043004F09FF922000649072090
:10749000FCF7C2FE200070BDAC180020FCFF00000D
:1074A00028090100640701009007010070B50D4C28
:1074B00086B005000E00207CE17B012200F0BAF9C5
:1074C000A37B627B01B204AC03A80190009400206E
:1074D00000F04CFA32002900200000F035FB06B025
:1074E00070BDC046AC18002030B5154D87B02C6873
:1074F000002C1AD113490720FCF78EFE124D0121F2
:10750000287C00F0A2F96A7BAB7B01B204AD03A832
:1075100001900095200000F029FA220021002800A7
:1075200000F012FB002007B030BD08490720FCF72F
:1075300073FE286801880430FFF7B8FFF2E7C04601
:1075400040180020A2070100AC180020B807010075
:10755000F0B5724C724BA16993B04A881B68043134
:1075600007A800F05BFB002804DC002303930398CA
:1075700013B0F0BD0BAE072207A9300000F068FA87
:107580000028F2D105AD307C290000F085F9039088
:107590000028EAD13289A36962491A80327C072621
:1075A000237B0720FCF738FEE37BAA7801333340C6
:1075B0009A4207D130005C49FCF72EFEE07B013097
:1075C0003040E073267B012E08D0022E29D03200F5
:1075D00056490720FCF720FE0123C7E72B78042B30
:1075E00007D1FFF7B7FE020051490720FCF714FE50
:1075F000BDE750490420FCF70FFE3100072000F0E2
:107600002DF9627BA37B010009AC06A801900094D0
:10761000002000F0ABF900222000110000F094FAE5
:1076200023E02B78042B04D143490720FCF7F4FD19
:10763000D7E7012B24D141490720FCF7EDFDEA787B
:10764000237C9A4213D03E490320FCF7E5FDA5694F
:1076500007202B882A1D3B49FCF700FE60690028A3
:107660000AD039490320FCF7D7FD0020BBE70723E8
:1076700001321A402274EAE70123A561E361B2E70F
:10768000022B0CD131490720FCF7C6FDE37BAA7819
:107690002F490720FCF7C0FDFFF726FFA3E709AD40
:1076A000052B27D100262B490720FCF7B5FD2A4FD3
:1076B0003868FFF7F3FD02233E600127FF33274AB6
:1076C00027490720FCF7A8FD264907202773FCF768
:1076D000A3FD3900062000F0C1F8010006A8627B76
:1076E000A37B01900095300000F040F9320031009A
:1076F000280093E71C490420FCF78EFD0121082097
:1077000000F0ACF8010006A8627BA37B0190009515
:10771000002000F02BF900221100E9E7AC1800204E
:10772000A8180020C8070100EF070100D4080100D5
:10773000EE080100080801002C08010036080100CD
:107740003D0801006408010071080100870801007C
:107750008F080100A5080100401800203B09010026
:107760005F030100AF080100BD08010010B5402211
:107770000021040004F028F800232000236463643F
:1077800010BD3F22036C01331340426C9A4202D079
:10779000026C8154036470470023036443647047A0
:1077A000426C036C9A4208D03F21436CC25C436C2C
:1077B00001330B4043641000704701204042FBE757
:1077C000036C406C181A00D540307047026C436C53
:1077D0009A4204DB036C406CC01A3F307047436C24
:1077E000006C181A0138F9E7426C036C9A4202D017
:1077F000436CC05C704701204042FBE703003F221E
:10780000006C5B6C01301040C01A43425841C0B25A
:107810007047000010B50C009621044B0902186057
:107820000368DB699847024B1C6010BDD41C002024
:10783000D01C0020102312011A40400110430E22D8
:10784000490011400843C0B2704710230901194094
:107850004001084301210843C0B27047043800B515
:10786000052815D800F03CFE12030A0C0E10432028
:10787000002901D01023184300B200BD6320F7E7B0
:107880000F20F5E78720F3E70320F1E78320EFE7F8
:1078900001204042F1E7000070B50D00042604000D
:1078A00032000021280003F08FFF01222300211164
:1078B00013400FD1600924072A70640F0A40A87092
:1078C0006A70EC7000242A781C490720FCF7A4FC9D
:1078D000200070BD0F232340012B06D10222640932
:1078E0000B402A70AC706B70ECE7052B06D1023BA5
:1078F00064090A402B70AC706A70E3E710230A40F9
:107900006A709C43432C11D006D8032C13D0072354
:107910000F2C0CD00124D6E7832C05D0872C08D05F
:10792000632CF7D1062302E02E70CBE705232B70E2
:10793000C8E70823FBE70923F9E7C046C0090100AF
:10794000430001201843C0B2704770B500240125E0
:107950000600146028001C60A14205DD3178294230
:1079600002D0200011701D6070BD0000F8B5069CAB
:107970001E000D00170001234A1C21D07F2F1FD8A5
:107980007F2E1DD80722079B1A6000281AD10E4BA4
:107990001A4392B20021200000F0B3FAA770E670FB
:1079A000257100F0C1FA079B21001A68023A00F025
:1079B000BFFAC243002192B2601D00F0A7FA002373
:1079C0001800F8BD014BE3E700A0FFFF00A8FFFF90
:1079D000F7B50D000021070001921E0000F08BFAA0
:1079E00044050090640D0120072C30D82200390096
:1079F000280003F0CEFE0020864228DD009BB21C4A
:107A0000DB0ADB02A2181A43010092B22800A71E6B
:107A100000F077FA00F088FA3A00290000F088FABE
:107A2000C243390092B2280000F070FA00F07CFAEC
:107A30002200290000F07CFA3200019900F078FA67
:107A4000C2430021089892B200F060FA0020FEBD07
:107A500073B504000D0016000120062A06DD0B7820
:107A60000F2219009143A02901D0022076BD0822DF
:107A70001340E3600021280000F03DFA2200400599
:107A8000400D023E20606B46A81C14323100FFF707
:107A90005CFF0028E9D100980028E6DD2200311AB9
:107AA0000230281801AB1832FFF74FFF0028DCD155
:107AB000019A002AD9DD009B280002339B18D91CAB
:107AC0006160EB5C237400F045FA0028CDD1626858
:107AD0002368911C8B4203DD9B1A023BA360C5E720
