S01300007573335F6D736869656C642E73726563B1
S2140020000080002005260000E925000001260000CB
S21400201000000000000000000000000000000000BB
S214002020000000000000000000000000E92500009D
S2140020300000000000000000E9250000592600000E
S214002040E9250000E9250000E9250000E925000053
S214002050E9250000E9250000ED250000E92500003F
S214002060B54D0000E9250000E9250000C54D00003B
S214002070A54D0000E9250000E9250000E92500003F
S214002080E9250000E9250000E9250000E925000013
S214002090E9250000E9250000E9250000E925000003
S2140020A0E9250000E9250000E9250000E9250000F3
S2140020B00000000010B5064C2378002B07D1054B16
S2140020C0002B02D0044800E000BF0123237010BD9F
S2140020D00003002000000000FC2C0100084B10B597
S2140020E0002B03D00749084800E000BF07480368F4
S2140020F0002B00D110BD064B002BFBD09847F9E70C
S2140021000000000004030020FC2C0100FC0200205C
S214002110000000001FB5E1210B48490200F074FCE6
S214002120002002F01DFD3C2302933B3B0193074B2E
S214002130074A00930749084B084802F0D9FA02F00C
S2140021401FFB05B000BDC0467C0300206D210000CB
S2140021504924000095240000B5230000FC0B010074
S21400216010B502F0CBFD10BD7047000010B50B494E
S21400217004000BF0AEFD002803D14322084B1A7072
S21400218010BD084920000BF0A4FD03000120002B21
S214002190F6D14621024A18001170F1E7010C010041
S2140021A020030020070C010030B5A3B001A801F001
S2140021B0F6FF174B01A8196801F0CCFF154C164B1B
S2140021C02268164D9A421ED0052001F0F7FC144BEB
S2140021D0186008F0A9FB011C01A801F0FBFF01A88C
S2140021E002F027F80F4B196808F0AAF80AF0DAF997
S2140021F00D4B0E4A09F072FB0AF026FA2368286097
S21400220001332360DAE700232868236023B030BD5B
S2140022106C030020640300201027000068030020E1
S2140022206003002004000020B7984740C66D348045
S21400223070B50024174D222001F0C0FC013D241883
S214002240012000F04DFA002DF5D10521200007F001
S214002250D1FA0AF06FF9104A104B09F03FFB07F06D
S214002260CFFC08F0B1FB0E4B196808F069F8EA21BC
S214002270890508F065F8FC21890508F061F807F083
S214002280A7FC1423584308F09FFB064907F068FE96
S21400229070BDC046B80B000039B4C876BE9FE63F96
S2140022A01C03002000007A44F0B5384B9FB0029320
S2140022B0374B6A46039356230700138001AC153B41
S2140022C00822344907A823800AF0E3FB3249062295
S2140022D005A80AF0DEFB314A314B1A60FFF764FFAF
S2140022E00AF060F92F4D02000B0007A829000BF03A
S2140022F0C1FCFFF79DFF0AF055F90B00020029000C
S21400230005A80BF0B7FC01F0B3FF0600264D02004F
S214002310290009A80BF0AEFC320029000EA80BF02D
S214002320A9FC02A90EA80BF0C7FC07A90EA80BF083
S214002330C3FC694604A80BF0D6FC04A90EA80BF053
S214002340BBFC1A490EA80BF0B7FC09A90EA80BF0A7
S214002350B3FC03A90EA80BF0AFFC05A90EA80BF062
S214002360ABFC210004A80BF0BEFC04A90EA80BF0E1
S214002370A3FC0EA938000BF0B6FC0EAA0C490720E9
S21400238002F00EF800201FB0F0BDC04633302C001F
S21400239033312C00C40C0100CC0C010000404E452B
S2140023A01C030020A90C0100AF0C01000D18010051
S2140023B0B30C010070B50E0000210400FFF774FF97
S2140023C0050020000BF097FC3070280070BD000060
S2140023D030B5174B8FB01A7F050001A80271154A59
S2140023E005A901921A6A5B6A8260C36001F0B3FDB8
S2140023F00A9C211C201C08F05FFA002800D00E4C16
S2140024000E4B1B785BB2462B0DD1201C0AF0CAF887
S2140024100B4A0C4B09F062FA0AF016F98421C9053A
S21400242007F00CFC041C00202C600FB030BDC0462A
S21400243028030020600D01000000C8422003002091
S214002440CDCCCCCCCCCCFC3F002370B592B00600F3
S21400245001A80D000193FFF7BBFF041E0CD101A9D4
S21400246002A8FFF721FF02A9040030000BF03BFC96
S21400247002A80BF040FC2870200012B070BD0000CF
S2140024800122034B00201A7192185A707047C046FA
S21400249020030020F0B546220026334B91B01A7078
S2140024A05E70FFF7EDFF314C200001F0A9FD3048CB
S2140024B002F034F8237F02AA13712E4B1000029309
S2140024C0236A06A90493636A0193059301F0CCFD81
S2140024D0294C200002F022F8284F380002F01EF89F
S2140024E0274802F005F806A802F018F8254801F07B
S2140024F0FFFF099802F028F8200002F00FF82248A3
S21400250001F0F6FF0A9802F01FF8200002F006F825
S2140025101E4801F0EDFF0C9808F0E6F902F014F8FA
S2140025201B4D280001F0FAFF1A4801F0E1FF0D9854
S21400253008F0DAF902F008F8280001F0EFFF164874
S21400254001F0D6FF0E9808F0CFF901F0FDFF280045
S21400255001F0E4FF380001F0E1FF200001F0DEFFAB
S214002560300011B0F0BDC046200300202803002034
S2140025700D0C0100600D01003E110100270C01004A
S2140025804C0C01005B0C01006A0C0100790C010088
S214002590880C01008B0C01009A0C0100012313B576
S2140025A00B4C5B42019300930B2207330021200063
S2140025B001F00EFD074A0849200006F05BFE074BB7
S2140025C00748196807F0CCFC064B186013BDC046D8
S2140025D028030020000000206921000008000020D9
S2140025E0000020426C03002003BEFEE7034B10B53C
S2140025F01B68002B00D0984710BDC0467003002013
S2140026000DBEFEE770B50F490F4CA14204D100F095
S214002610F5F800F0A3F8FEE70C4D00238D42F6D047
S214002620CA18E818A24205D39042F0D0084B0949D0
S214002630002204E0006804331060F1E704C38B4214
S214002640FCD3E4E70000002000030020642D010016
S21400265000030020AC1F002010B500F07CF8002816
S21400266001D100F063F810BD014B18607047C046FA
S21400267070030020014B18687047C04674030020A2
S214002680F7B51348012284461249134C8E686368D6
S21400269005689B0E1340019288686268019F920E3F
S2140026A03A4067463F6893420ED1BD420CD18642FF
S2140026B00AD35B19FA254868AD00861B07486B43AA
S2140026C07043000DC018FEBD3D0013000600E3E792
S2140026D07403002010E000E000ED00E05555000017
S2140026E0F7B5041E1CD0EFF3108372B60D4E0E4FD6
S2140026F035683A680192DB0700D462B6EB439C4229
S21400270004D964190025019B0133019300F022F8D7
S2140027103B68019A9342F9D333685B1B9C42F5D819
S214002720F7BDC0467403002078030020074B10B5A1
S2140027301A6801321A601B68002B03D1044A13681A
S2140027400133136000F038F810BDC0467403002053
S21400275078030020704700207047704710B501F0DE
S21400276015F90AF02BF9FFF7F8FF0120FFF7B8FF7D
S214002770084C200000F0B2FB200000F00FFCFFF732
S214002780C9FCFFF7EDFC044B002BFAD000E000BFBD
S214002790F7E7C0469803002000000000014B1860D1
S2140027A07047C0460C0000200122024B52421A60BD
S2140027B07047C0460C000020054A10B51368591C27
S2140027C005D0013B1360002B01D1024B984710BD8A
S2140027D00C000020012D01000249034B4A681A42F2
S2140027E0FCD1704700180040FD0700000E23024988
S2140027F00A781A42FCD17047380C00408422F8B59B
S214002800294B2A4D5A6040236A69022113436B61A3
S21400281080230122DB059A71987801439970997993
S2140028201142FCD00121224C9A71224B2270227850
S2140028300A4202D062681A42F9D11F4B1F4A5A61F7
S214002840022259690A435A610122D9681142FCD012
S2140028501B4B1C4E0227F362FFF7C8FF00231A4AE1
S21400286033631370FFF7C2FF184B1F70FFF7BEFFEE
S214002870174A13783B42FCD001232B71154D256275
S214002880FFF7AAFF2563FFF7A7FF0C22337D9343CC
S2140028901A000423134333750F4BE362FFF79CFFC4
S2140028A00E4A0F4B1A60F8BD00400041000400407D
S2140028B000180040FD070000001000401C04000047
S2140028C0710B0000000C0040340C0040280C004047
S2140028D03C0C00400803020006010100006CDC020C
S2140028E0840000203F20704713B56B460268D971FC
S2140028F00733546819000122A04716BD10B50221FF
S214002900006900F031FC10BD10B50321006900F02D
S21400291041FC10BD10B5130004000A000069032135
S21400292000F032FD002801D10123636010BD0000D5
S21400293010B5054C23685A1C04D103685B69984798
S21400294003002060180010BD58000020074B02004E
S214002950186810B5411C03D0012252421A6010BDFF
S2140029600221106900F002FDF9E7C0465800002079
S21400297010B503783A22023303700249024800F089
S214002980AFFD10BD1C0000209803002010B5017894
S214002990030042780020A12908D1212A05D11A3A3D
S2140029A01649174800F09CFD012010BD2129FCD1D6
S2140029B0202A11D1193A1149114800F02FFC96220D
S2140029C00E4BD2001968914203D10124D8790440F5
S2140029D00ED0FFF7E9FE0EE0222A03D19A78074BC5
S2140029E0DA71ECE7232AE0D15A88064B1A60DCE756
S2140029F0FA20FFF7D3FE0020D7E7C04614000020D9
S214002A0098030020100000207047000010B5FFF764
S214002A1031FEF423FF330024984207D9044B0A20E2
S214002A20DC79631E9C41E4B2FFF75AFE200010BD1D
S214002A3014000020FA220021054B92009A60054AF5
S214002A40596008321A60044A19761A617047C046FF
S214002A507C030020D40C01009803002030B50F251D
S214002A60CB1D013902002A40140000093034092A1F
S214002A7001DD373214001C70013B8B42F2D130BDB1
S214002A8070B582291FD1C3B22C4D5A01AA1891697C
S214002A902B4C80010C40C0218905214391612949B6
S214002AA008330818802150612A685B01D018047921
S214002AB04942214301717020995C8143080030210E
S214002AC00143995470BD0029FCD1C024C1B21B4EED
S214002AD04B01F3189A681A4DA4052A4022439A60BF
S214002AE0194A800110180A00586030680726083214
S214002AF05201115CB1430E00012131431154996912
S214002B000D402C439C6170240E495961115CA14311
S214002B100C0010212143115499680C4C82180C406B
S214002B2080214903214399609968890B890399603C
S214002B30402351790B435371C4E7C0465008002028
S214002B40FFFFFF8FC403002084050020FF3F00F036
S214002B5070B50400012320CC00212A7820001343FE
S214002B6080222B70520009F0AFFFAB78DB07FCD455
S214002B706C6270BD1F22144B70B51B68590B9C0C01
S214002B809B0111405B0F22401F2900D11A391F2AD2
S214002B9000D1023A072B00D1043B1F2500688E01A6
S214002BA0048D0A492A40214031430185018D1400D5
S214002BB00A00AA4322430285028D1903044B1340E0
S214002BC00B43038570BDC046206080003FF8FFFFC2
S214002BD0FF8FFFFFEFF3108303600123436072B69D
S214002BE070470368002B02D162B6BFF36F8F704741
S214002BF037B5056904006846002D14D1FFF7EAFFD3
S214002C00019B621D013B02D3D57FEDB2FAE7684611
S214002C100193FFF7E6FF002D01D100203EBD206A9C
S214002C20E369C01AFAE7FFF7D5FF22000025019BEB
S214002C303432013B02D31578EDB2FAE768460193C9
S214002C40FFF7CFFF002DE8D0206BE36AE9E700002E
S214002C50F0B501254668037A31685A018C18FF34AE
S214002C60A77AB2183D43A572C468094D9068A404BB
S214002C70284024092043906090680833800B800326
S214002C80906040225B01CB1819790A431A71F0BD97
S214002C90FF3F00F0F7B5036904000E001700684612
S214002CA0002B3DD1FFF796FF019B611D013B5A1C8F
S214002CB00CD0CD7F5A1EEDB2002D05D1684601938B
S214002CC0FFF78FFF2800FEBD1300F0E7684601936C
S214002CD00025FFF786FFE369AF4202D0226A9342DF
S214002CE057D3226A9342EDD10023E3610133236177
S214002CF06846FFF76FFF22000021019B671D013B1E
S214002D003532581CDAD0F97710785E1E002805D0C8
S214002D10117020000193FFF79BFFECE73300F0E70C
S214002D20FFF758FF2100019B3431013B5A1C06D0A7
S214002D300D785A1EEDB2002DC0D01300F6E7684697
S214002D4001930025FFF74DFFE36ABD4202D0226BD8
S214002D50934226D3226B9342B4D100236846E362A3
S214002D602361FFF737FF270022000021019B34373D
S214002D70013B3532581CA1D0397010785E1E0028F1
S214002D8005D0117020000193FFF762FFEBE73300D8
S214002D90F0E75A1CE261A269D3181B787355013517
S214002DA099E75A1CE262A26AD3181B78735501355C
S214002DB0CAE7F7B5027A43681100040008311868BC
S214002DC049014118C879C00727D501255201CD71A0
S214002DD09B189A6861699204920C002921D122629C
S214002DE0226A002A3ED0A26A656168465A60FFF7EA
S214002DF0F1FE27002100019B661D013B343735316B
S214002E005A1C2BD0F5773A78581ED2B2002A05D035
S214002E10019368460D70FFF7E4FEF7BD0A700300E5
S214002E20EEE72263226B002A1CD000226261A269B0
S214002E3068465A60FFF7CEFE26002100019B343616
S214002E40013B671D35315A1C08D03570FA7F581E75
S214002E50D2B2002ADCD10A700300F4E76846019378
S214002E60FFF7BFFE2000FFF7F3FED6E737B56B4649
S214002E70DC1D00230D0020002370FFF779FD2B6872
S214002E801818286002F00EFC210002F0C7FB2B6821
S214002E901818286020783EBD03290ED180220E4BDC
S214002EA062311B68FF31585C524202435A54682212
S214002EB06339FF39FF32995470470129FCD18022CB
S214002EC0054B24311B68FF31585C524202435A546A
S214002ED02339FF392822EDE75008002070B500247A
S214002EE0264B0121050015201C7000F0B1FE0121C3
S214002EF0152000F0B1FE224B012114201C7000F0BA
S214002F00A7FE0121142000F0A7FE01231D4A182069
S214002F10916940340B4393610F2100F007FF0F21A6
S214002F20192000F003FF184B1C601A682242FCD0E0
S214002F301648FFF799FB164E3000FFF709FE3000E3
S214002F40FFF718FE7F213368C1201A7880000A40F8
S214002F501A70042219780F4E0A430C211A701A8927
S214002F608A431A810C4A11583140115014600222CB
S214002F7019780A431A7001232B7070BDB90300201C
S214002F80B803002000040040901800406D3900008F
S214002F9050080020FFFF00FF00E100E00078002856
S214002FA010D00121084B1B681A898A431A8108220F
S214002FB0198B0A431A830422198B0A431A830022A8
S214002FC0024B1A607047C046500800204808002090
S214002FD010B5104A93699B0B9B03936113680222FA
S214002FE0FF331A729879823A02439A711A7A9207D4
S214002FF0FCD582227F24D205937A2140A343080081
S2140030001900802301439172917A5B420B439372BD
S21400301010BDC0465008002010B50B790C00002BE0
S2140030200CD10800FFF7B2FC002801D0012010BD2B
S214003030094A93699B0B9B039361F7E702F032FB07
S214003040210002F01EFB0028F0D1034A93699B0B77
S2140030509B039361EBE7C04650080020F7B50D00D0
S214003060832A19D1CBB2324C5A01A2189169314841
S214003070AD010840C0218905014391612E492068B1
S2140030804D197021083355615B011A5C8A431100A3
S21400309040220A431A54F7BD022A44D18B000193FA
S2140030A0264B8A00D658002EF5D1382001F0E6FED1
S2140030B0234B1F4F036080235B00C360431D0662E3
S2140030C0856006614661C66104004760DE77C662B9
S2140030D0066380202F331E7040005E7009F0A4FC4B
S2140030E00600A0618020400009F09EFCEDB26B0156
S2140030F0A062FB189A680F4907201140C02292056B
S2140031000A439A603A6808356D01A95C8143080055
S21400311003210143A95420005E60FFF799FD074B89
S214003120019AD450B7E711002800FFF7A9FCB2E7D0
S21400313050080020FFFFFF8FC40300209C030020E0
S214003140000D010070B505000124064BA200D25800
S214003150002A05D021002800FFF780FF0134F4E79D
S21400316070BDC0465C000020084B8A00D05810B5E1
S214003170002803D003689B68984710BDC9B2044B6B
S2140031804901591888688004800CF6E79C030020E3
S2140031905008002010B50C00FFF7E6FF00280CD002
S2140031A0064BE4B21B68083464011C19802362795C
S2140031B05B42134363710223E37110BD5008002085
S2140031C070B5134BCCB2134A600189015918131815
S2140031D059609968104D08340D40802189022943B2
S2140031E0402599609968890B890399601168630185
S2140031F0CB181E7935431D719D796D06FCD564018B
S2140032000919CB79DB07FCD512189068C0B270BDDF
S2140032108405002050080020FF3F00F070B5140021
S21400322040220B4B0D001B68FF3359790A435A7135
S2140032300021FFF7C5FFA04200D920000023054962
S214003240A34203D05A5CEA540133F9E770BDC04686
S214003250500800208405002010B5C9B20B4849016B
S214003260421893689B049B0C3F2B0BDD9468403BF5
S2140032709B04A40B9B0CA40323439360411888680B
S214003280C0B210BD93689B0B9B03F6E75008002066
S214003290F0B51C00304B85B01B6806000D0001928F
S2140032A0002B55D02D4F3978C9B2002902D11420F1
S2140032B000F0D2FC64233B70294BAA00D0580028AB
S2140032C008D0036822005B68019998470400200034
S2140032D005B0F0BD29003000FFF746FF844204D950
S2140032E029003000FFF740FF040029003000FFF7F8
S2140032F0B3FF0121EBB21B4F03935B010293029ACB
S2140033003B6801989B18FF335A7A0A4316495A724B
S214003310AB01C918220009F0BCFB002CD7D029004D
S2140033203000FFF721FF0028D1D14021039B3A68E7
S21400333008335B01D3181879014319710121D9713B
S2140033400121029BD318FF339A7A0A439A72BEE78A
S21400335001246442BBE7C04648080020B8030020AA
S2140033609C030020500800208405002013B56B46FF
S214003370DC1D22000123FFF78BFF012801D12078F6
S21400338016BD01204042FBE7F0B51E003A4B85B063
S2140033901B680F000192002B3FD08023DB019E426A
S2140033A03BD8364C2178C9B2002902D1152000F04E
S2140033B053FC64230025324A2370BB01D3180293C2
S2140033C0002E2CD02F4B1B680393FF233B401C0082
S2140033D000930834039B64011C19A379DB0921D0F0
S2140033E0294B2A49186806F005FA294B1721584335
S2140033F006F000FA274BE279920713D4DA5D002A2A
S21400340001D10138F7D20122DA55009B5A011D4B33
S2140034109B189A69920B92039A6101256D422800C7
S21400342005B0F0BD00221B4B3400DA553F2E00D904
S2140034303F2422000199029809F02BFB009BA1046F
S2140034405A01104B890C9B18029A2D195A619A69D9
S214003450361B920B92030A439A61009B039A083329
S2140034605B01D3180222DA715979823A0A435A71FB
S214003470019B1B190193A3E748080020B90300200D
S214003480C4030020500800208400002040420F00A3
S21400349070110100BB03002070B50D001C000D4E1E
S2140034A0AB01F61811003000220009F0F2FAEDB276
S2140034B009496D014D196E61AB69084A2000134039
S2140034C0AB61AB69A2049B0B920C9B031343AB61ED
S2140034D070BDC046C403002050080020FF3F00F027
S2140034E0F7B5104B01901B780F001500002B0CD180
S2140034F00D4B16001C78002C09D00C4E0C48348856
S2140035000019641909F0C5FA34802800FEBD002EA3
S214003510FBD03A19330000210198FFF7BDFF2418AD
S214003520361AF4E744070020450800204608002025
S21400353045070020F8B5002000AF0E001500012A50
S21400354026DDD31D6A46DB08DB00D31A9D4608003D
S2140035500AF0D1FB6C4603230021013040002070A6
S21400356063705A1ED2B295420BDD3078002808D020
S2140035700136A0549D4203D0E1540233DBB2F0E79B
S2140035802A0021000348FFF7ABFF431E9841C0B254
S214003590BD46F8BD98030020F0B50027012687B089
S2140035A01E4B009102A91E7005000297FFF75EFCF5
S2140035B003AC019009223900200009F085FA09239E
S2140035C02370022363709E33E3715A332372029B87
S2140035D06671093363806B461B7923710F4B1F702E
S2140035E0009B092B07D11A0021002800FFF778FF5F
S2140035F0012007B0F0BD0A4B09221E70094E2100BB
S214003600280002973780FFF76BFF02A92800FFF714
S2140036102DFC034B32881F700349E6E74407002061
S21400362045080020460800204507002070B5CE78E3
S21400363092B005000C00022E08D1C9882B48FFF76F
S214003640ABFF431E9841C0B212B070BD02F02AF81C
S214003650210001F0F7FF002803D0C317181AC00F87
S214003660F2E7012E0BD1E2882149112A10DCD2B2F2
S214003670002A0DD02800FFF733FF0120E4E7032ED1
S214003680E2D1A378002B05D1E2881A49032AEEDDA1
S2140036900A78EFE7022B05D1A27917492800FFF731
S2140036A049FFD1E7012B02D1A2791449F6E7032B93
S2140036B0CAD1134B01A91868FFF7D0F9114B03A91B
S2140036C01868FFF7CBF9104B05A91868FFF7C6F97D
S2140036D00E4B07A91868FFF7C1F901F0E3FF09A927
S2140036E001F0C0FFA27901A9D8E7C04698030020E0
S2140036F02E0D01001A0D01000C0D01001E0D01001B
S2140037000CA0800040A0800044A0800048A080005C
S21400371073B5060048780D000B2811D806F060F83F
S214003720061D102E104348704C4F696C097801AA8C
S214003730002907D10223117051703000FFF7ACFE4C
S214003740012076BD0023137053702E4B1B78012B7F
S21400375000D1137002230021EFE78A780023012AA4
S21400376004D101AA13705370274BEFE7254A137054
S214003770264A93699B0B9B039361E1E78C78012CA7
S21400378006D10021204B01AA1C7011702300D4E73B
S214003790002C08D101201B4B1C4A187093699B0B08
S2140037A09B039361CDE7A9783000FFF711FCC7E7CC
S2140037B03000FFF73BFFC4E70123154ACBE70B7841
S2140037C00020DB06BDD13000FFF7BCFC2A2002211A
S2140037D0AA780F4BFF301A600C4A13681C5C214312
S2140037E04A241954FF34195D2938FF380143195506
S2140037F0D4E70123074AAEE78A78064B1A60B7E794
S21400380000209EE7BA030020C203002050080020D4
S214003810480800204C0800204C4BF7B51C780700E1
S214003820002C00D091E04A4E33689B8B1B070ED5C8
S21400383021002000FFF724F9326810231100FF3121
S214003840887A03438B72434B1C6008239383336848
S2140038509A8B52071FD504229A833F4A1378002B6F
S2140038600AD01378013BDBB213701378002B03D118
S2140038700121152000F0F0F9384A1378002B0AD001
S2140038801378013BDBB213701378002B03D10121B0
S214003890142000F0E1F93368FF331A7AD20620D5F7
S2140038A010221A72597930320A435A7160232C4911
S2140038B038000A781A4235D1FFF72AFF002834D09C
S2140038C0802233685242FF3399790A439A713368EB
S2140038D0FF331A7A520604D540221A72597A0A43DE
S2140038E05A72336807251C8C01239C43E4B201936B
S2140038F0E9B2002C29D0002D27D023002B41019AB5
S21400390013420DD02B00326808335B01D318DA79E6
S214003910D20711D4DB799B070ED4019BAB409C43A6
S214003920013DE5E7FFF778FBC8E720220D4BCDE722
S21400393003681B689847F0E70B4BAA00D05800288E
S214003940F6D13800FFF7A8FAE7E7F7BD45080020EC
S2140039505008002048080020B9030020B8030020C3
S21400396084050020FF0000419C03002010B502489B
S214003970FFF752FF10BDC046980300208222024B7C
S214003980D2051A607047C04650080020C0201A4969
S2140039901A4B1B4A10B54B60136A00061B021B0A23
S2140039A003431362002407238C600B608021136A94
S2140039B009061B021B0A0B4306211362114BDA6928
S2140039C0186A014319620821186A01431962D96905
S2140039D011430D4A0A43DA6120001A21013400F02F
S2140039E037F9242CF8D100F09FF8052000F03CF8B9
S2140039F000F016F810BDC04610E000E07FBB0000E7
S214003A0000ED00E000040040FF170000914202D0E5
S214003A1002D98A1AD0407047521A9040FBE700003D
S214003A200C490D4B4A681A42FCD140230B4A53609E
S214003A3051681942FCD03F22094B99681142FCD1CB
S214003A4002225A70C22292009A81DA810122054B24
S214003A501A70704700180040FD070000FC18004070
S214003A60003000425509002010B52A4B04001B7890
S214003A70002B04D10122284B1A7000F055F8032CB5
S214003A8006D10721200000F051F9002809D010BD0A
S214003A90042CF6D0002C2BD1204A2149D3690B40A8
S214003AA0D3610F211F4B0C409A788A4314439C70B5
S214003AB01A8C5205FCD1197802320A431A701A8CF5
S214003AC05205FCD1197E02320A431A761A8C520528
S214003AD0FCD19A79D207FCD502219A8C1A788A43AF
S214003AE01A701A8C5205FCD10B4B01321A70CEE7B5
S214003AF0052CD6D9094B0A49DA69063C0A40F0215A
S214003B00DA61DA69240409030C401443DC610024FA
S214003B10C7E7C0465409002056090020001400409C
S214003B20FFFFF0FF000C00431E4B07211B6810B57B
S214003B301A00DB080A4012020B4013431A4A938508
S214003B4013001A8C5205FCD118490432C869024386
S214003B50CA61402216490A6008681042FCD0072253
S214003B605A7019325A811A8C5205FCD13F325A7358
S214003B701A8C5205FCD1C02252011A811A8C5205A9
S214003B80520DFBD11A731A8C5205FCD1094B013227
S214003B901A70094B1B78002B02D10520FFF764FF33
S214003BA010BDC04620608000000C0043001400409A
S214003BB0F8180040540900205609002010B51F4B85
S214003BC004001B78002B01D1FFF7AEFF0521200073
S214003BD000F0ACF803000020834228D10C304443A8
S214003BE01748184B0019417A1F201A890140824352
S214003BF00A431A811A8C5205FCD1197802320A43FC
S214003C001A701A8C5205FCD1197E02320A431A76B3
S214003C101A8C5205FCD19A79D207FCD50221988CD1
S214003C201A7880B28A431A701A8C5205FCD1064B59
S214003C301A68064B1968FFF7E9FE10BD5409002004
S214003C408C0F0100000C00438C0000208800002030
S214003C5010B500F06BF810BDF7B50C224243254DA9
S214003C600190535D042B2FD00027AA185278DB0151
S214003C70214ED418A4192678204CF6B21C59BC4202
S214003C8004D0013797407C1EA741FFB21B4C1C197D
S214003C902469A44600246046A04204D0013494401F
S214003CA0601E8441E4B2002F17D101980C37784388
S214003CB02D18686801290DD1012C06D1410706D4BC
S214003CC0D3180D4A9B181E70F7BD0107F8D50421BE
S214003CD00E43F5E704218E43F2E7012904D1914013
S214003CE0064A9B189961EFE701219140034A9B1809
S214003CF05961E9E78C0F0100402800400028004089
S214003D000C23584307490023425C042A06D0064B7E
S214003D10D201D2180918136A4A78D34001201840F5
S214003D207047C0468C0F010000280040F7B505001C
S214003D30232800D96BE00C2343437F4FDA5DFB1842
S214003D40D8785C78019098785B68042A5FD019264A
S214003D507642B44684446646012E01D9884256D13E
S214003D60CB40DB0701D41A2851D1081F172863D887
S214003D7005F036FD364764646262626250505D0C40
S214003D800C62626262626290924D624D0623002A65
S214003D9000D18FE0694DD001201840190578042025
S214003DA028404D1F022D01D902252843019D2D07CD
S214003DB001D54025284372B6D201002901D01A2920
S214003DC03ED10123A3405E4951184B608B6104230A
S214003DD098435A4BA218D218107062B60020FEBD47
S214003DE00C235D437F19BB7A122B10D00023002AC8
S214003DF060D0524DD0012018401905780420284084
S214003E00D2E70C235D437F197B7A162B4FD1012016
S214003E104042E4E70C235D437F193B7A802BF6D0C3
S214003E20062301980340581E83410433AFE701235D
S214003E30019803400233DAE70923A8E70123A6E73F
S214003E408D1E012D0CD80123A3403D4D55196B60E6
S214003E50032903D16B6104231843BAE7AB61FAE781
S214003E60012904D1A140364BD3189960AFE7610809
S214003E70344D51184919E50708D50F260D781B0152
S214003E8035402B43DBB20B700123E5E70F260D7898
S214003E90B543F6E70723AAE70823A8E72748D30190
S214003EA0E3181B18187804231840033B7EE7002A03
S214003EB0F4D10123022C02D0052C00D06AE7062993
S214003EC000D167E7651F684245411F48475D002FE0
S214003ED000D15FE70027022647551C480778B743FE
S214003EE00770A027BF00013FFDD13F2786683E42EE
S214003EF0FCD1164E2F1DB4467F00BC446646B788DC
S214003F000226B7436646B7800F4F3E78002E03D191
S214003F107F78002F00D13DE70227067837430770E9
S214003F203F2786683E42FCD101277D1BAF40C579FE
S214003F302F42FCD02EE7C0468C0F010040280040E0
S214003F40002800403028004057090020003000427A
S214003F5070477047704770B50C0024260500320085
S214003F600021200008F0B0FDEB68266063600D239A
S214003F70A360FEF77FFB002220611100A86801F015
S214003F8087FD6061012070BD70B50C002426050019
S214003F9032000021200008F097FDEB682660636081
S214003FA00C23A360FEF766FB00212061A86801F0E1
S214003FB0BFFD6061012070BD10B5040000F062FF17
S214003FC0200010BD10B5040000F05CFF200010BDFE
S214003FD070B50400150001F0A3FC074B25750833E7
S214003FE0A361049B20006362044B24620833A3622F
S214003FF0059B2463636370BD580D0100740D0100BA
S21400400010B501F0A1FC10BD10B5027D0C00152AFC
S21400401007D0162A0DD008490B2A04D00B220749D0
S21400402001E00B220649200009F092FE0023E3720D
S21400403010BD0B220349F6E7400D0100520D0100AA
S214004040460D01004C0D0100037D152B06D0162BE6
S21400405004D00B2B02D1024B4B627047014BFBE79F
S21400406040420F0080841E0070B50C000500282218
S2140040700021200008F028FD2100A868FFF7C4FFF3
S2140040800123E360EB68210023610D23A8686361C8
S214004090FFF7DAFFAB681A7D152A0BD0162A0FD069
S2140040A000230B2A0ED1E3618023084ADB05A261B8
S2140040B0236270BD064BA361064BE361064BF7E730
S2140040C0064BF8E7A361E361F2E7C046000048420A
S2140040D00000A042000020C2CDCCCC3D0000FA4239
S2140040E070B50C00050028220021200008F0ECFC2A
S2140040F02100A868FFF788FF0123E360EB68210032
S21400410023610C23A8686361FFF79EFFAB681B7DE5
S214004110152B0AD0162B08D00B2B0CD1084BA361FD
S214004120084BE361084B236270BD084BA361002374
S214004130E361074BF7E70023A361E361F3E7C046BB
S2140041400000A0420000A0410000A0400000C842BD
S214004150CDCCCC3D10B5040002C001F0FDFD200022
S2140041602168443001F0F8FD10BD70B50D1C040048
S2140041700430161C01F00DFE291C281C06F0E0F881
S214004180311C051C301C06F0DBF8011C281C05F051
S21400419055FD011C2000443001F0FBFD70BD70B5DC
S2140041A0FE2600250400B6052A1C311C043001F04A
S2140041B0ABFD20002A1C311C443001F0A5FD311C4B
S2140041C02000FFF7C7FF2A1C291C2000FFF7CDFFA1
S2140041D0200070BD70B50D1C0400043001F0CCFD4D
S2140041E0291C281C06F0ACF8011C2000443001F005
S2140041F0C3FD70BD70B50400443001F0D1FD043439
S214004200051C200001F0CCFD061C200001F0C8FDB6
S214004210011C301C06F094F8011C281C06F0B0F9AE
S2140042200021041C05F0ACFC002800D00024201C53
S21400423070BD10B5FFF7DEFF05F0A6F810BD000054
S21400424013B50A4C200001F0BBFE6A460123D3706A
S2140042501371FA23DB00D380002320006946937095
S2140042605370137001F054FE16BDC0465909002065
S21400427010B5024801F002FE10BDC04659090020E4
S21400428070B50C4CC2B0200001F0A6FD0600200060
S21400429001F0A8FD0500200001F0AAFD2B00020099
S2140042A00549009602A809F0E5FC02A800F036F9D8
S2140042B042B070BD59090020CB0D010070B50C4C02
S2140042C0C2B0200001F088FD0600200001F08AFD43
S2140042D00500200001F08CFD2B0002000549009629
S2140042E002A809F0C7FC02A800F002F942B070BDAF
S2140042F059090020900D010070B50C4CC2B020008A
S21400430001F088FD0600200001F078FD0500200081
S21400431001F07AFD2B0002000549009602A809F07C
S214004320A9FC02A800F0FAF842B070BD59090020B6
S214004330A70D010010B5024801F040FD10BDC046B3
S21400434059090020072800DD0720C343DB17184063
S214004350014B18607047C04690000020F8B50E4E1E
S21400436017003060FEF750FB002308240B4D2B701F
S2140043703068FEF74BFB00280AD1FA20013CC0004B
S214004380FEF7AEF9002CF3D13800FFF7DBFFF8BDDF
S21400439001232B70F8E7C0465C0900205A0900206C
S2140043A00EB400B50C4BC2B01B78002B10D00B4BD4
S2140043B01B6883420CDBFFF781FF44AA439902A8DF
S2140043C0019209F0D7FF064B02A9186800F0B0FD6D
S2140043D042B008BC03B018475A09002090000020DD
S2140043E05C090020F0B51F00164BC1B01B780C000E
S2140043F01600002B24D0144B1B68834220DBFFF7EB
S2140044005DFF124D002C08D011492200684609F0C5
S21400441031FC6946286800F066FD3400A31BBB42E9
S2140044200ADA22780B49684609F024FC69462868AF
S21400443000F059FD0134F1E70749286800F078FDDF
S21400444041B0F0BD5A090020900000205C09002011
S2140044502A0E01002E0E01003E110100F7B5019351
S2140044601E4B06001B7800911400002B34D01C4B0A
S2140044701B68062B30DD019B1A4D002B02D02B68E3
S214004480002B12D02B68E718FF2F0ED816482200F4
S214004490C018009908F0FDFA341E2F6005D03F22A0
S2140044A03100124809F054FC0024019B234313D02A
S2140044B02B68002B08D00D4F0B4A39000720FFF75A
S2140044C091FF00233B702B60002C05D02300009A40
S2140044D031000720FFF786FFF7BDC0465A090020C7
S2140044E090000020600A002060090020640A002076
S2140044F0074B10B51B780100002B07D0054B1B6837
S214004500062B03DD044B186800F0EDFC10BDC0461A
S2140045105A090020900000205C090020074B10B5C7
S2140045201B780100002B07D0054B1B68062B03DD0C
S214004530044B186800F0FCFC10BDC0465A09002069
S214004540900000205C090020074B10B51B78010086
S214004550002B08D0054B1B68062B04DD044B0A22F3
S214004560186800F044FD10BD5A0900209000002095
S2140045705C0900201B4BF7B51B7806000F00002BCC
S2140045802ED0194B1B68062B2ADD002800D1174EAB
S214004590002F01D1164B1F88164D1749286800F0CA
S2140045A0C7FC00247B1E325D9C420ADA134968462B
S2140045B009F060FB01346946286800F094FCA4B258
S2140045C0F0E70F49684609F055FB6946286800F091
S2140045D0AFFC0949286800F0ABFC0022044B1A80A7
S2140045E0F7BDC0465A09002090000020A60A002009
S2140045F0A40A00205C090020ED0D0100240E010035
S2140046002F0E010013B500206B46DC1DD87109F093
S2140046104BFC201A16BD000010B50121014801F020
S214004620BBFE10BDA80E0020F0B5C7B00C000500FC
S214004630144903A801F09EF8002306AE0093013348
S2140046402100FF3332001048802701F05BFD022472
S2140046507F00315DFF2909D103A9280001F034F855
S21400466003A801F03FF8280047B0F0BD03A80134C6
S21400467001F0E1F8BC42ECD10449280001F07AF8D8
S214004680EEE7C0463E110100A80E0020810F010093
S214004690F0B5144985B00500002401F06BF8032737
S2140046A0114B1022195D01A801F088F801A9280015
S2140046B001F0AEF801A801F015F82300661C3B4097
S2140046C0032B05D10F2C06D00849280001F0A6F8C8
S2140046D03400102EE4D1280001F0E7F8280005B0D9
S2140046E0F0BDC0463E1101008C120020F32C0100E4
S2140046F0F0B587B004930CAB03921C4F04CB3D7807
S2140047001B781B4C01936B01E41802910600010014
S2140047102000059209F0E7FA029BA360039BE36082
S214004720049B2361059B63610E9BA361019B012B88
S2140047300CD0002323773B78320001330D49072045
S2140047403B70FFF72DFE280007B0F0BD6B461B79C7
S2140047500E9A237708492B00300003F06BF80749C0
S214004760020060770720FFF71BFEE4E7A60E002096
S214004770B40F0020050F01008D4A0000F10E010065
S21400478010B543010248C0188368984710BDC0465C
S214004790B40F002070B50D000221040002F045FAA7
S2140047A0C0B2002816D10100200002F016FAC0B2EE
S2140047B000280FD1280009F09EFA290002002000E8
S2140047C002F017FAC0B2002804D10121200002F03E
S2140047D004FAC0B270BD0000F0B5A7B01F002CAB45
S2140047E001911C7806A90500160002A8802202F096
S2140047F0E3F91C496401091902A8FFF7CBFF00285A
S21400480003D06323180027B0F0BD31003A0002A899
S21400481002F0EFF9061EF4D102A802F0DAF9C7B2E8
S214004820040039B2280003F0FDFD03230028E9D078
S214004830E4B2220006A908F02CF9019B0A491F7071
S2140048400720FFF7ADFD230006AA08490720FFF75B
S214004850C9FDFFF7D7FE064902000720FFF7A0FDB7
S2140048603300CFE7B40F0020340E01007A180100A1
S2140048707B160100F0B50600A9B04C36059205007F
S2140048800F0005AA0B2130001C0002F071FF0390F8
S214004890002804D08423BB7000233B643EE0039AC8
S2140048A00F21300002F064FF0290002801D185231A
S2140048B0F1E7AD78012D00D081E06A46127B02ABAD
S2140048C0544902989A7502F029FA0390002828D1D4
S2140048D002AB1635ED186B461B7B62012B704E4BF8
S2140048E029009B181B6908A8984716212B7802A850
S2140048F00094091808AA386DFFF76EFF0400039DA0
S21400490002AB9B7D220045490720FFF749FD002C9E
S2140049104FD1002D43D043233C64BB70002029B008
S214004920F0BD3F49029802F0F9F9029000286AD1DA
S21400493002000621300002F01BFF061E18D002F00F
S21400494023FB002803D0012809D004240EE0324BB4
S21400495064011C19607F02F0BDFF0400D0E72E4BF7
S21400496064011C19607F02F0C9FF0400029DC7E7BE
S214004970172502ABED18284B62019B1828702900FA
S214004980DB6808A8984716212B7802A80094091817
S21400499008AA386DFFF720FF35000400B0E702AB29
S2140049A09B7D02223B643B003C331A704523BB7060
S2140049B0B4E7042C01D0142C29D186236BE7032DF1
S2140049C000D074E71726144B64011C19636908AC01
S2140049D00493029B20009D7802ABF618029B35706C
S2140049E059682A0009F0B4F96B461B7B3100635501
S2140049F02000049B9847002803D144233864BB70EA
S214004A008CE7012801D1A12345E70428D5D0A023AF
S214004A1041E7C046B80E0100B40F0020C10E0100E9
S214004A20BC0E0100F7B5060000244C3601AA0700AC
S214004A300D0030000B21019402F09AFE300001AA0E
S214004A400B2102F095FE0600A04217D00D4B1B78F6
S214004A509C4211DA0C496301C918300002F05EF975
S214004A60002806D12300019A29003800FFF702FF2C
S214004A70FEBD0134E4B2E9E78423AB70002028646D
S214004A80F6E7C046A60E0020B40F0020F0B50F25AE
S214004A90A7B002ABED1800230F0016000B4C2B70CE
S214004AA05301E4182200039009490720FFF778FC19
S214004AB0E368290006A898472B7806AA00963900CE
S214004AC00398FFF789FE27B0F0BDC046B40F00205C
S214004AD01B0F010084238B70002363200B64704738
S214004AE000B591B01549684609F0FDF814496846C6
S214004AF009F0E2F86846FFF711FD1249684609F02A
S214004B00F2F81149684609F0D7F86846FFF706FD3F
S214004B100E4B0F4A0F49684609F0ACF86846FFF797
S214004B20FDFC0D48FFF7FAFCFFF76CFD0B49020091
S214004B300720FFF735FC11B000BDC046530E01003C
S214004B40710E0100770E0100840E01008A0E01002E
S214004B50960E01009F0E01003E1101007B1601001B
S214004B6007B50122194B01001A700022184B19488C
S214004B701A70914228D11849103209F0E9F8082035
S214004B804042FFF75DFBE121072249021348FFF789
S214004B90E5FB01210920FFF75BF801210920FFF75B
S214004BA05BF80023FA2201930D4BD2005A210093A2
S214004BB00C48FF2303F09EFA03F06AFA3220FDF752
S214004BC08FFDFFF78DFF07BD1022D6E79600002069
S214004BD0A60E0020A00000204B0E01007C03002043
S214004BE03E110100F010002010B5034A0D210348C5
S214004BF001F004FA10BDC0469C120020A80E00204A
S214004C007FB50500164901A800F0B4FD154E30002A
S214004C10FDF79CFEC4B22E2C15D0FF2CF7D0210039
S214004C2001A800F008FE242C09D10F49280000F046
S214004C30A1FD01A800F056FD280004B070BD232C8D
S214004C40E5D10A49F2E7210001A800F0F4FD0021B1
S214004C5001A800F0F0FD01A9280000F035FDE8E706
S214004C603E1101007C030020470E0100490E0100A2
S214004C7010B586B06846FFF7C3FF1A49684600F0CD
S214004C80E4FD194C00280FD0012103A8FFF7CCFC47
S214004C9003A9200000F042F903A800F023FD6846AF
S214004CA000F020FD06B010BD1049684600F0CDFDAE
S214004CB0002803D003A8FFF7EBFCE9E7FFF7ACFCFE
S214004CC001236A4619000A4801F03EFA002804D07B
S214004CD00849200000F02CF9E1E70749200000F021
S214004CE002F9DCE7470E01007C030020490E0100B4
S214004CF0A80E0020370F0100400F0100F8B5214B29
S214004D001B78002B3BD0204C2378002B09D01F4962
S214004D101F4800F00DF900211E4801F0C1F90023DC
S214004D2023701D4E3378002B26D11C4C0133236094
S214004D3023680A2B10DC164D2800FDF7DFFD071E42
S214004D400BD02800FDF702FE154BC1B228001970E3
S214004D5000F0F8F801233370F8BD0A222168280015
S214004D6000F045F9FA208000FDF7BAFC23680A2B0C
S214004D70DCD1044B1F70EFE7FFF77AFFECE703F098
S214004D80BDFAE9E79500002094000020470F0100D7
S214004D907C030020A80E0020AC0F0020B00F0020DF
S214004DA0AD0F002010B5024800F016FB10BDC0463F
S214004DB03410002010B5024800F00EFB10BDC046AF
S214004DC0F010002010B5024800F006FB10BDC046EB
S214004DD0AC110020F7B584211A4FC905380000F041
S214004DE00AF91949194800F006F91949194800F056
S214004DF002F9194D1949280000F0FDF8184E194916
S214004E00300000F0F8F81849184800F0F4F80124CB
S214004E10002331000326019322000094144800F07A
S214004E20ADFA3900009601940A230B22114800F0CF
S214004E30A5FA009629000194122313220E4800F0CA
S214004E409DFAF7BD68120020000400426C12002094
S214004E50000800427012002074120020000C00426D
S214004E607812002000100042000400437C1200204C
S214004E7034100020F0100020AC11002010B507F010
S214004E80D3FD10BD10B507F0D9FD10BDF7B506006F
S214004E900D000C008B180193019B671B9C4207D0EA
S214004EA0336821781B683000984701340028F3D116
S214004EB03800FEBD70B505000C00081E07D008F0CF
S214004EC01AFF2B6802005B6821002800984770BD17
S214004ED010B5FFF7EFFF10BD10B503688A685B6872
S214004EE00968984710BD10B5FFF7E4FF10BD10B570
S214004EF003681B68984710BD10B50249FFF7DAFF34
S214004F0010BDC0463C11010070B50400FFF7D2FF8B
S214004F1005002000FFF7F0FF401970BD70B50500D2
S214004F20FFF7DAFF04002800FFF7E6FF201870BD41
S214004F3070B50400FFF7BEFF05002000FFF7DCFF9A
S214004F40401970BD70B50500FFF7D1FF04002800BA
S214004F50FFF7D2FF201870BDF0B5160000228DB006
S214004F6002AB053301900D00DA77012E00DC0A262D
S214004F700BAC2800310004F0C3FC0F00CBB22800B5
S214004F803100009304F036FCFBB237330500013CD9
S214004F90DBB2092F02D8009B3033DBB22370002D22
S214004FA0E7D121000198FFF785FF0DB0F0BDF8B5F9
S214004FB006000C00151E04D10368C9B21B6898478A
S214004FC0F8BDD2B20A2D0DD12A0000290ADA2D2109
S214004FD0FFF78DFF614207002A003000FFF7BCFF95
S214004FE03818EDE721003000FFF7B6FFE8E710B508
S214004FF0FFF7DDFF10BD01607047F0B505AC257802
S2140050000468981E471EB841266892070006324379
S2140050100243072022600140AD0162682943002058
S214005020022B00D05803114301436160F0BD10B558
S214005030C0240368A4031868120522400243C02057
S214005040090480020140114319605A6810435860F1
S21400505010BD0122036819680A431A601A68D2074D
S214005060FCD4DA69D207F9D47047022203681968BB
S2140050700A431A60DA699207FCD4704703681A7EFE
S214005080D20702D41A7E9207FCD570470022036826
S2140050905A8370470368187E4007C00F704703683E
S2140050A0187EC0097047802302685B42117E0B435E
S2140050B0137670470368187EC007C00F70470368F2
S2140050C0188DC0B2704703681A7ED207FCD589B225
S2140050D0012019857047012203689A7570470122DE
S2140050E003681A757047000070B5012504684B0800
S2140050F02B402940206809075B070B4303432360C6
S214005100044B5100186804F075FB0138C0B22073D8
S21400511070BDC046980000200122036819680A4343
S2140051201A601A68D207FCD4DA69D207F9D4704735
S2140051300222036819680A431A60DA699207FCD4E7
S21400514070470368DA699207FCD402211A688A431A
S2140051501A6070470268936A5B0A5B0219439162A1
S214005160137E5B07FCD5906AC0B270478422036842
S21400517030B5D205934211D0214A934234D0214A09
S214005180934234D0204A934234D0204A934234D0BB
S2140051901F4A934227D10D23182201E0082312222A
S2140051A00121032599401B48C024016099082B4023
S2140051B0AB40FC359D4089000918A40008599200B0
S2140051C0A843C0259D402B0003430B51124BD1181A
S2140051D04023CB6711490868114908600E495218E8
S2140051E0D16F1942FCD030BD09231322D8E70A2319
S2140051F01422D5E70B231522D2E70C231622CFE77D
S2140052000004004200080042000C00420010004269
S2140052100004004300E100E0041800408400002081
S21400522098000020F8B516001D000268184B040010
S2140052300F009A4200D101262000FFF797FF2000BA
S214005240FFF707FF1C22BB00134072072468120CEE
S214005250134323608423A375012F18D11021012E38
S21400526000D008390B4B69431868C00004F0C2FA36
S2140052700722A3890240DB045203DB0C1343A381FD
S2140052800304A089DB0C400B40031843A081F8BD43
S2140052900004004398000020F7B50700019308AB10
S2140052A01E780D001400FFF737FF3800FFF75EFF8B
S2140052B0C022240592031440B2070C260721164389
S2140052C0019A34430A40C02611008022B6022D04FB
S2140052D03B683540920225430A431D605A60F7BD7D
S2140052E00120704710B50368014A1B6A984710BD35
S2140052F01304000010B504000069FFF7AAFE2000A2
S214005300143003F011FB20005C3003F00DFB10BDE1
S21400531010B5143003F01CFB10BD10B504002000BF
S2140053205C3003F015FB0028F9D12069FFF7A6FED4
S21400533010BD10B55C3003F011FB10BD70B5050054
S21400534004001435280003F0F3FA2300A8331B7872
S2140053500600FF2B0AD0280003F000FB0A2805DD14
S2140053602300B434B0331B6822681A60300070BD66
S21400537010B5143003F000FB10BD0000F7B51D009B
S21400538008AB1B780400009309AB1B78160001934A
S21400539000234360FA239B0083600E4B0F00083304
S2140053A00360143003F0AAFA20005C3003F0A6FA7B
S2140053B06A4623001278A43327619A706A461279E7
S2140053C01E70DA7022005D70FF23A8322000137072
S2140053D01374FEBD4011010070B504000069FFF7AC
S2140053E059FE002819D025002069FFF768FE1435FD
S2140053F00100280003F08DFA2300A8331B78FF2B4A
S2140054000BD0280003F0AAFA092806DC23002200A5
S214005410AC33B4321B6812681A602069FFF74AFE84
S21400542000280DD025005C35280003F091FA0028EE
S21400543012D0280003F07CFAC1B22069FFF743FEC1
S2140054402069FFF72CFE002805D02069FFF72BFE09
S2140054502069FFF71BFE70BD2069FFF740FEEFE7EF
S214005460F8B5040000690E002500FFF723FE5C3542
S214005470002820D13F27280003F088FA00282DD0E6
S214005480EFF31083012213420CD1EFF305833B4068
S214005490F1D0103B5BB2002B17DB9B08C033144ADD
S2140054A09B009B582069FFF705FE0028E3D02000EC
S2140054B0FFF792FFDFE7280003F04AFA0028D9D169
S2140054C031002069FFF7FFFD0FE00F221340083B75
S2140054D09B08084A9B009B181B68E3E728003100DE
S2140054E003F017FA2069FFF7F6FD0120F8BDC04665
S2140054F000E100E01CED00E0F020014030394842B9
S21400550048417047F0231B011940802306209B006A
S21400551099420AD00133FF330130994205D08023E7
S21400552002385B00994200D0002070470F200140EF
S2140055300020012903D00239481E8141481C7047CB
S2140055400300F0B50400A43385B018780F000E21D0
S2140055501500FEF7EBFB2300A53318780E21FEF7A7
S214005560E5FB2300A73303931B78022B07D1230008
S214005570B8331878FF2802D00E21FEF7D7FB260096
S214005580A8363078FF281AD00121FEF761FB0C21DF
S21400559033781F4A594320008B5C521851780122F9
S2140055A01C4EDB01AC309E1906601B488A401B1857
S2140055B021002000B431B03003600A601A60012276
S2140055C03B0011002069FFF72DFE29002000FFF7A1
S2140055D099FF290006002000FFF7A8FF2900070012
S2140055E02000FFF789FF3B00009031002069012270
S2140055F0FFF703FD2300A6331A78039B206919786A
S214005600FFF715FD2069FFF730FD05B0F0BDC04679
S2140056108C0F0100182800401428004070B50E00BA
S21400562000254468002C0BD0236831005B682000FE
S2140056309847002802DB2D18E468F3E701256D4241
S214005640280070BD70B50D004468002C08D0236893
S21400565029009B6820009847002802D1E468F4E7F8
S214005660200070BD70B50D004468002C07D023687C
S21400567029002000DB689847E4682D18F5E72C70B1
S21400568070BD70B50D004468002C08D02368290052
S2140056901B6820009847002802D1E468F4E7200041
S2140056A070BD00000121064A10B5136805480B407E
S2140056B005D102240470241944704360116010BDA3
S2140056C08012002084120020002303600A684360D2
S2140056D002604A68836042608A6882600B604B6042
S2140056E08B60704710B50400006807F0A7F920002B
S2140056F010BD10B504000068002801D007F09EF920
S21400570000232360A360636010BD70B504000D0025
S2140057100068013108F092FA031E01D0012028C467
S21400572070BD036810B50400002B04D043688B429C
S21400573001D3012010BD2000FFF7E7FF0028F9D0B5
S214005740A368002BF5D122681370F2E770B50E003F
S214005750110004001500FFF7E4FF002804D1200024
S214005760FFF7C7FF200070BDA5603100206808F075
S214005770BAFAF7E7002370B504000D000360436033
S2140057808360994207D0080008F0B5FA29000200A5
S2140057902000FFF7DBFF200070BD70B504000D1E73
S2140057A009D0080008F0A7FA290002002000FFF739
S2140057B0CDFF200070BDFFF79CFFFAE71FB5040081
S2140057C00023080023606360A36001A903F092F839
S2140057D001A92000FFF7E1FF200004B010BDF8B5D6
S2140057E004000F1E02D100263000F8BD0126002A54
S2140057F0FAD08368D5182900FFF793FF0028F2D067
S2140058002368A2683900981808F06DFAA560EBE7DF
S21400581010B58A680968FFF7E2FF10BD70B505008D
S2140058200C00081E06D008F066FA210002002800C8
S214005830FFF7D5FF70BD07B5002201AB19705A708F
S21400584019000132FFF7CBFF0EBD836810B5002BA1
S21400585007D10120002903D00B7858425841C0B226
S21400586010BD002902D103681B78F6E7006808F02F
S21400587030FA0300F1E770B50D00002A06D00029C3
S21400588004D084689C4202D800230B7070BD013A95
S214005890E41A944200D9140001682200C9182800AE
S2140058A008F056FA00232B55F0E710B50468002CD4
S2140058B007D02078002804D008F000FB20700134C0
S2140058C0F7E710BD1FB50E4B00221B6800930D4B6B
S2140058D01B6801930C4B1B6802930C4B1B680393CD
S2140058E003006946895804320C0E1C700C0C5C7060
S2140058F00C0A9C70D9700433102AF2D104B010BD83
S2140059000CA0800040A0800044A0800048A080003A
S21400591010B50248FFF7D6FF10BDC0468C12002017
S214005920074B10B50400417182710649186803F0F0
S21400593061FFFA239B005843E060200010BDC0467C
S2140059408400002040420F0010B504000221407978
S214005950FEF77EF9014BA36010BDC04630F8FFFF8E
S21400596070B505000E0000246879FEF7C9F9B0424C
S21400597004D1EA68631C944202D30024200070BD60
S2140059801C00F1E770B5D0B00D000400FCF772FE05
S214005990002D07D1A3683D4AC31A934202D8207C43
S2140059A050B070BD0025A060012160792571E570BA
S2140059B0A57065702570FEF74FF9FA20FCF790FE8B
S2140059C060790121FEF744F960792900FEF744F971
S2140059D01420FCF785FE72B601216079FEF73CF9CB
S2140059E0A0239B00013BFDD102216079FEF730F930
S2140059F0A023013BFDD129002000FFF7B1FFA842FC
S214005A0003D10020207462B6CAE701212000FFF708
S214005A10A7FF0028F5D0A026760000212000FFF77B
S214005A209FFF6B460121E8502000FFF799FF2B00EF
S214005A3008356B445860B542EFD162B600220121AA
S214005A406846D300C0586B445E68002801D0002E1C
S214005A5002D100202074A3E7D510635D5B00DBB2A3
S214005A60B04210D301326355282AE9D161782378F1
S214005A7022795B18A1785B18E1785B18DBB29A4252
S214005A80E7D10120E6E70B43ECE7C046CF0700006E
S214005A90F8B50D0011000400FFF774FF002807D0CA
S214005AA0A379DAB20B2A05D002D3153B012B13D902
S214005AB0194810E0A07804F087FF002D0BD006F000
S214005AC071FD164A164B05F009FF0022154B04F02F
S214005AD0C1FF06F0B9FDF8BD7F20A678304004F07F
S214005AE023FF8721C90504F02BFC071CE07804F08F
S214005AF01BFF391C04F0A2F806F054FD0A4A0B4BB3
S214005B0005F0ECFE76B206F09FFD002ED5DA802377
S214005B101B06C018D1E7C0460000C07FCDCCCCCC59
S214005B20CCCCFC3F000040409A9999999999B93F8E
S214005B3070B500210400FFF725FF002807D0A379E1
S214005B40DAB20B2A05D002D3153B012B05D90E4835
S214005B5002E0207804F038FF70BD207804F034FFAF
S214005B608721C90504F0ECFB051C607804F0DCFE18
S214005B70291C04F063F806F015FD044A044B05F0F2
S214005B80ADFE06F061FDE7E70000C07F9A9999999F
S214005B909999B93F10B50400081C06F003FD084AA1
S214005BA0084B05F09BFE02000B000020064905F09E
S214005BB061FA06F049FD054904F0C2FB606010BDBD
S214005BC0182D4454FB2119400000F03F002474496E
S214005BD070B504001D1C0170111CFFF7DBFFE560AB
S214005BE025616561FCF74CFDE06170BDD0B5040031
S214005BF00078032835D803F0F3FD1902041EE06888
S214005C00D0BD606806F0CEFC0022174B05F032FAD5
S214005C100600E0680F0006F0C5FC02000B0030002E
S214005C20390005F05BFE06F00FFDE9E7E168606904
S214005C3004F0A6FCE4E7E168606904F0A1FC06F065
S214005C40B1FC060060680F0006F0ACFC0022064BB4
S214005C5005F010FA02000B003000390005F00AFAD1
S214005C60E1E70020CCE7C04680842E41F8B504006A
S214005C700E1CFCF705FDE3690500C01A04F054FE8F
S214005C80E368011C2361A061E5616661606804F059
S214005C9067F9A06006F086FC02000B000020184999
S214005CA005F0E8F903F0EEFA06F0CEFC051C06F067
S214005CB079FC02000B000020124906F08FF806005F
S214005CC060690F0006F06EFC02000B003000390021
S214005CD005F004FE06000F00281C216904F030FBC6
S214005CE006F060FC02000B003000390004F0B2FE43
S214005CF006F0AAFCE0602000FFF778FFF8BDC0467B
S214005D000000F0BF0000F03FF7B5FE2600270400B5
S214005D10B605151C3B1C321C01910121FFF758FFEC
S214005D2020003B1C321C20300121FFF751FF0849A0
S214005D30019804F015F9074904F002FB6060606200
S214005D4065612561E56065632563E5622000FEBD4B
S214005D503D0A57400024744910B50400081C044945
S214005D6004F0FEF8034904F0EBFA6060606210BDD0
S214005D703D0A57400024744910B50400FFF776FF2B
S214005D802034011C2000FFF771FF2000FFF72EFFD4
S214005D9010BD41610161C16041630163C16270472A
S214005DA010B52030FFF722FF10BD0000024B186927
S214005DB0431E9841C0B27047002000400023037085
S214005DC07047000010B5FFF7F1FF0028FBD1014B2C
S214005DD0986910BD0020004010B5FFF7F3FF3F2381
S214005DE0184010BD10B5FFF7EDFF0005800E10BD82
S214005DF010B5FFF7E7FFC003C00E10BD10B5FFF7E4
S214005E00E1FF8002C00E10BD10B5FFF7DBFF80017A
S214005E10000F10BD10B5FFF7D5FF800E10BD0000B7
S214005E20C888094BCA78C0188306087952048005CA
S214005E3010430A7810438A78120310434A78920176
S214005E40104318437047C04630F8FFFFFA2010B5DD
S214005E501F248B0EC0001B18480C2040D0703F201B
S214005E60D3808B011B0F13710B0B234093708B0990
S214005E70034001405370117010BD000030B58DB066
S214005E800500FFF79FFF01AC010022002800FFF786
S214005E90DDFFE388094A03A89B1808932379013B92
S214005EA00793E3780693A37805936378049323789F
S214005EB0039306F0DDFE0DB030BDC04694F8FFFF3C
S214005EC010B5FFF773FF0028FBD10221054B064AE9
S214005ED01A819A811A888A431A80FFF767FF00287A
S214005EE0FBD110BD00200040FF81FFFF10B5FFF77B
S214005EF05DFF0028FBD10223044A11880B43138060
S214005F00FFF754FF0028FBD110BDC046002000401C
S214005F1070B50500FFF784FF0600FFF747FF00286F
S214005F20FBD10B4C2800FFF7CBFFA661FFF73EFF27
S214005F300028FBD180222388120213432380FFF718
S214005F4035FF0028FBD12800FFF7D0FF70BDC04604
S214005F50002000401FB50E4B0400994200D21900E5
S214005F6001A8019106F05AFC037B02A9CB700369D5
S214005F70084A01330B7143699B18CB80037A8B70F8
S214005F8003794B70036820000B70FFF7C1FF1FBD3D
S214005F9080436D386C07000010B5FFF791FFFFF7E0
S214005FA005FF0028FBD10123044A11880B43138008
S214005FB0FFF7FCFE0028FBD110BDC04600200040C5
S214005FC0802310B5094A5B00516904000B435361F6
S214005FD00422074B1A61FFF7DFFF064A064B200034
S214005FE01A80FFF783FF0123237010BD00040040D2
S214005FF000100040088BFFFF00200040F8B5254B3E
S2140060001600FF22036000230D00522142748274A2
S214006010C2740275421C437103710372437783771F
S214006020C377D3772A3211700531517000220400ED
S214006030194F8367C3670263390012229C3006F04B
S21400604028FD2000390048221431B03006F021FD2A
S2140060502000390009225C31F83006F01AFD3900BC
S214006060A01C6531FF30032206F013FD0B4BE660E3
S2140060709E420CD10A232800637525740121FDF782
S214006080E7FD207C0121FDF7E7FD2000F8BD0B238E
S214006090F1E7C04600093D00741101009C12002083
S2140060A070B5437D04000D000B2B02D0C06800F0D5
S2140060B0BFFC237A002B07D11B226270643A237040
S2140060C0A270E370237163712900200000F0E4FBE6
S2140060D00500200000F0A0FA00232000A37700F0BF
S2140060E095FB280070BD000010B5054C002901D1B5
S2140060F0207810BD2178012200F06EFCF8E7C0463B
S214006100101A0020F7B51E0008AB1B781700019385
S2140061100A0033000321040000F0E2FA051E10D046
S214006120019B0B21002B00D10321200000F0AAF9CF
S214006130200033003A00032100F0FEF9200000F0B2
S2140061406BFA2800FEBD0000F0B589B09668040022
S21400615010006A4600AF7B60731CFB610733DB08E8
S214006160DB00D31A9D467961FB60721C00236946EA
S214006170FFF781FB200000F061FA051E02D0002325
S214006180BB6174E004227969200000F02FF9002832
S214006190F5D0721D7969200000F0A4F90028EED031
S2140061A07C49200000F058FA0028E8D001212000A1
S2140061B000F078FA0028E2D00221200000F062F910
S2140061C0FA692600EA402C36D2B23178200008352B
S2140061D000F0ACF9202DF3D10121207CFDF73CFD29
S2140061E0200000F019FA7B69FA69043319002000D0
S2140061F0BB6000F0FBF80028C1D06649200000F024
S2140062002BFA0028BBD00121200000F04BFAB86121
S2140062100028B4D080253B7D6D00ED1AFB69ADB239
S214006220AB4228D8207C0021FDF716FD31780222EB
S214006230200000F07BF9200000F0FCF80025FB6948
S214006240AB420AD9FB6820005A5D23002C3319782C
S214006250013500F06BF9ADB2F1E7207C0121FDF7C6
S214006260FBFC7B68002B4FD1200000F0D5F9BD4623
S214006270B86909B0F0BDBB8B7B6100233B617B69CD
S214006280AB4200DC1D00207C0021FDF7E5FC23006E
S2140062902C3319780222200000F048F9200000F084
S2140062A0C9F80026AE420CDA3A69FB6820009B1853
S2140062B09A5D23002C331978013600F037F9B6B210
S2140062C0F0E7207C0121FDF7C7FCA36F31495B197D
S2140062D0A3673B6920005B199BB23B617B695D1B32
S2140062E0ABB27B6100F0B8F9002800D147E7012186
S2140062F0200000F0D7F9002800D140E780257B6910
S2140063006D00002BBBD1ACE76B46224920007B61B9
S21400631000F0A2F9B861002838D06A46BB68207C35
S214006320A367FB6900210733DB08DB00D31A9D4611
S214006330FDF792FC23002C3319780322200000F08E
S214006340F5F820006E4600F075F80025FB69AB42B4
S2140063500AD923002B3319780022200000F0E6F833
S21400636070550135EDB2F1E7200000F055F9002335
S214006370FA699A4207D9FA68F15CD25C914205D173
S2140063800133DBB2F4E77B699D4670E77B699D4687
S214006390F5E6C04600CA9A3B030070B554331D7834
S2140063A004000A00002D05D12A000C2100F014FB81
S2140063B0280070BD8023EF215B0200F091F9051ED6
S2140063C0F6D0230055331978200000F05BF8200043
S2140063D000F022F9A16D200000F03EF90500E7E785
S2140063E010B5C06800F06CFB10BD0000F8B50F00DB
S2140063F0002105001600FFF777FEF7230340002074
S214006400032B08D0EC6B844206D1094822000121F8
S21400641002F0DAFA2000F8BDBE19B44204D8361BE2
S214006420EE67AF670120F6E70023EB67F9E7C046A3
S214006430101A002010B5C37F0400002B04D0030000
S2140064407B331978FFF7CCFF23007A3319782000C6
S214006450FFF7C6FF2300793319782000FFF7C0FF47
S2140064602300783319782000FFF7BAFF012010BD0B
S21400647010B5016804004268C06800F0F1FA012017
S214006480607710BD70B5437F04000D00002B01D16E
S214006490FFF7EEFF207C0021FDF7DEFB0B2D15D06D
S2140064A005D8022D09D0032D07D0290016E0522D5D
S2140064B003D0D82D01D0202DF7D129002000FFF7DA
S2140064C08FFF2000FFF7B6FF012070BD29002000D7
S2140064D0FFF786FF2000FFF7ADFFEE212000FFF755
S2140064E07FFFF1E770B50321040016000025FFF7D3
S2140064F0C9FFB54212D00021E06800F0E1FAFF289B
S2140065000AD0207C0121FDF7A7FB074800220721BF
S21400651002F05AFA002070BD0135EAE7207C01211E
S214006520FDF79AFB0120F6E7101A002010B51100BF
S214006530C06800F0C5FA10BD10B50C0011001A00B6
S214006540022C01D0032C02D1C06800F0BEFA10BDA8
S21400655070B504000521FFF795FF0021E06800F004
S214006560AFFA251DE877207C0121FDF775FBE87F53
S21400657070BD70B504001521FFF784FF0021E068A8
S21400658000F09EFAA51DE877207C0121FDF764FB4C
S214006590E87F70BD70B506000124FFF7EAFF2042D1
S2140065A00ED1B7213000FFF76DFF307C2100FDF7DC
S2140065B053FB3000FFF7DDFF2040051E02D0F477C6
S2140065C0200070BD02000D21024802F0FDF92C00EB
S2140065D0F6E7C046101A002070B505000124FFF744
S2140065E0C8FF204212D0E9212800FFF74BFF287C85
S2140065F02100FDF731FB2800FFF7BBFF204007D046
S21400660000220E21034802F0DFF90024200070BDAE
S214006610E877FBE7101A002010B504000121007C83
S214006620FDF71AFBE37F002B02D02000FFF7D4FF14
S214006630E06800F031FA0023637710BD10B5847F60
S214006640002C04D000220F21024802F0BDF92000E1
S21400665010BDC046101A0020F8B506000C00202316
S214006660013BFDD1FCF70CF8012705003000FFF7D1
S2140066706FFF331DDB7F3B4201D10120F8BDFBF7E6
S214006680FFFF401BA042F1D3FBF7FAFF401B8442FA
S214006690F3D803480022042102F096F90020EDE723
S2140066A0101A002070B504000D000621FFF7EAFE60
S2140066B0207C0121FDF7D0FA2000FFF749FF0224D5
S2140066C0044009D1002D05D022000621034802F01F
S2140066D07BF92500280070BD0125FBE7101A002075
S2140066E0F8B51E00030037331B7804000F001500B2
S2140066F0EF2B14D0022F1BD0EF2F37D02000FFF740
S2140067009DFF002812D1320029002000FFF76EFE00
S21400671000280BD01B492000FFF79EFF07E01A4B0E
S2140067209A42E7D9FFF736FF0028E3D10020F8BDEC
S2140067302000FFF783FF0028F8D132002900200050
S214006740FFF754FE0028F1D0320029002000FFF7A2
S214006750C9FE0028EAD00B492000FFF77DFF00287D
S214006760E4D001212000FFF79DFFE0E72000FFF7BF
S21400677065FF0028DAD1320029002000FFF736FE38
S214006780E7E7C04600CA9A3BFFFFFF0010B50400CB
S2140067900421FFF777FE207C0121FDF75DFA01203A
S2140067A010BD000070B517490400FFF755FF051E21
S2140067B025D09F212000FFF765FE26000021E06817
S2140067C000F07EF9373630700021E06800F078F986
S2140067D02300383318700021E06800F071F92300B8
S2140067E039331870207C0121FDF736FA3478002CF6
S2140067F005D122000B21044802F0E6F82500280007
S21400680070BDC04600CA9A3B101A0020030070B53F
S21400681038331B780400252B1CD1FFF799FE231D67
S214006820DD7F3C23502120009D43FFF72BFE207C7C
S2140068300121FDF711FA01212000FFF723FE2900B0
S2140068402000FFF7CDFD207C0121FDF705FA01258C
S214006850280070BD0125262BFAD10E49FFF7FCFE55
S214006860051EF5D001212000FFF71CFFA023013BE9
S214006870FDD198212000FFF705FE207C0121FDF7C1
S214006880EBF9C8239B00013BFDD12000FFF77EFFFC
S214006890DEE7C04600CA9A3B0200F8B50123643220
S2140068A01370103A1370083A1370083A1370030006
S2140068B0202245331A7032321A7286321A74414BCD
S2140068C000228364404B05000365404B65358365B5
S2140068D003005C331A7060232B703D4B0400836604
S2140068E0030001327233FF321A800E00FFF75AFFA0
S2140068F02300A21C37331978FF32C1331878884238
S21400690027D12300012235331A70230022003833A2
S214006910FF321B789078984205D0D078984202D003
S21400692012799A4201D1C7232B70230035331D7884
S214006930002D32D027003937C22911D13B78132BCE
S2140069400BD0142B1BD000220221224802F03CF868
S21400695006E001339342D1D1D7E78023DB03E3631C
S21400696000233A7819009C31615C91420AD12C339D
S2140069709B001B593434A3600123237012E080234C
S2140069801B04ECE70133122BECD1E36B002B08D190
S214006990002E0FD0E6633434EFE736342578002D2A
S2140069A002D001252800F8BD2A000221094802F07D
S2140069B00BF8F7E732000321064802F005F8350029
S2140069C0F0E7C04600CA9A3B0050D6DC0040597338
S2140069D00000DD0E101A002010B5024801F0F4FF8A
S2140069E010BDC046101A0020437A002B04D18372D3
S2140069F0C372C36001334372704730B5040085B07C
S214006A0002AD006802910392FEF79BFB6B79227A37
S214006A10E179009320680023FEF73EFC2979029A6C
S214006A202068FEF761FB2068FEF782FB05B030BDEC
S214006A3010B50400FFF7D8FF20790E21FDF776F990
S214006A40A0790E21FDF772F960790E21FDF76EF937
S214006A50024B200006CBFFF7D0FF10BDAC12002083
S214006A6007B5837A00910192002B07D09A070AD5C2
S214006A70EFF3108253425341C37272B60099019AE3
S214006A80FFF7BBFF07BDDB07F8D58389014AD36054
S214006A90F4E7C04600240040837A002B05D09A070E
S214006AA004D5C37A002B00D062B67047DB07FCD54E
S214006AB0C368024A9BB21361F7E7C0460024004051
S214006AC010B50068FEF746FB10BD70B506000C005A
S214006AD08D18AC4206D021783000FFF7F1FF207009
S214006AE00134F6E770BD0000094B0A4A1A6000221E
S214006AF05A711A71084B5A72084A1A6023221A7180
S214006B00023A9A71013A5A711F3ADA711A7270474C
S214006B10AC12002000093D009C1200207C120020D0
S214006B20F7B584460D00019216BAD3B20024172A90
S214006B300AD91300183BE72B11D9531E1C49FF3BFB
S214006B408B420FD819230224A96868680F19B84227
S214006B500BD201230124EB6064422000FEBD182303
S214006B600124F1E71A230424EEE760464F1C18437D
S214006B70AF600870002CF0D0022C0ED0042C15D07C
S214006B800823012CE6D1220001A9A86805F081FFA0
S214006B90AB681C19AC600024DFE70649130292B20A
S214006BA00B40120A1A4392B20192ECE70196EAE70A
S214006BB0FFFE000000FFFF0070B505000C00160089
S214006BC00021102205F080FF2C60AC60A4196C60D8
S214006BD070BD83680068181A7047002310B50A0055
S214006BE0994201DACA43203301001800FFF798FFE4
S214006BF010BDF8B504000F00010060201500FFF777
S214006C008FFF061E07D1A06863681B1A9D4204DD2D
S214006C100123013EE3603000F8BD2A00390005F08C
S214006C2038FFA3685D19A560F5E710B50A000100F6
S214006C30A020FFF775FF10BD42884368012A03D0E5
S214006C40022A03D0002000E0187870475878FCE746
S214006C503F2210B501650B791D249343402B16D1B6
S214006C600B1D03610B79303A9B069B0F03700B7963
S214006C701A4042704B7983708C79CB7924021B19A9
S214006C800024838004640831063005F002FF2000EB
S214006C9010BD4368186800BA7047000070B502005F
S214006CA005000C0007200949FDF77AFB0C2008496F
S214006CB0084B0A785043C5521B18043321CC21C315
S214006CC0032301321A4000200A7070BDFF11010034
S214006CD0EC130020BC13002070B5020005000C0069
S214006CE007200C49FDF75CFB00220C210A4B16001E
S214006CF0042A0DD00800013250430C38185AA84216
S214006D00F5D171435B185A6821009868904770BDAA
S214006D100C20FCE7DC110100BC13002070B503005A
S214006D200C00012000290AD05D8858682A0006F069
S214006D30FEFF002803D1200006F0DDFF281A70BDF4
S214006D40F0B50024124D85B0019003942C70019884
S214006D5003AA0B214C3000F00BFD061E12D0438810
S214006D601B19FF2B11DC2F23671C2B55EC194288AF
S214006D704168200005F08DFE00227388E254748876
S214006D80E419E4E7280005B0F0BD0020FBE7C046A4
S214006D90B612002010B5C0B000236A461370037800
S214006DA00400294A002B06D0284A012B03D0284A83
S214006DB0022B00D0274A28490720FDF7F1FAA378CE
S214006DC01F221900914336D1244A012B09D0244AA8
S214006DD0022B06D0234A032B03D0234A042B00D0D1
S214006DE0224A23490720FDF7DBFA2000FFF7A8FF19
S214006DF003780100002B02D0684606F05DFF2000F5
S214006E0000224C300F2100F0B3FC041E08D01949B4
S214006E10684606F051FF62886168684606F072FFB1
S214006E206B461B78002B04D06A4613490620FDF7F4
S214006E30B7FA40B010BD114A402903D0104A802945
S214006E4000D0104A1049CDE7BB130100B71301006C
S214006E50C3130100BF13010003140100CC1301008B
S214006E60C7130100D0130100DA130100D413010088
S214006E7014140100550D010032140100EE13010038
S214006E80F6130100E11301002514010070B50F266A
S214006E900B781D11ACB233400C2D13DD0D2D06D131
S214006EA04C780B3D0D340C2B0ED89BB211E00E2DFA
S214006EB024D18C784D780E342D02FF346419A4B298
S214006EC00325F0E70125EEE70D2B0DD14B5D0135CF
S214006ED00D33954212DC5E19B2420FDB491904806D
S214006EE043804160300070BD0E2C07D14E5D4B19BB
S214006EF05B7836029B190E33FF33D6E701267642BF
S214006F00F0E70000F7B50E0086210388050049006B
S214006F108B4234DC47888F4231DC01A90C2B12DC13
S214006F201B010B706B465C1D0C2F13DC0B783B4370
S214006F300B70641A3F19974215DD03201149FDF7BF
S214006F402FFA0020FEBD0D3BD0204B706B4608701C
S214006F509C1DE9E70D23087803430B703B000D3BAF
S214006F6023700134E5E72200300005F092FD6A88C0
S214006F703019696805F096FD68880019E2E7012077
S214006F804042DFE71E12010010B542880300042AC3
S214006F9006D92021144B154AFF31154805F0FCFB95
S214006FA0013A0020032A06D8100002F019FC020558
S214006FB00C195B68187810BD5B681B88180A1B02E2
S214006FC0184380B2F7E75B680A491B6818021A0480
S214006FD00A40000E1043FF22120213401843EAE74D
S214006FE01800FFF756FEE6E7471201006A14010094
S214006FF06112010000FFFF0010B542880300042A5A
S21400700006D93621144B154AFF31154805F0C4FB46
S214007010013A0020032A06D8100002F0E1FB020520
S2140070200C195B68187810BD5B681B88180A1B0271
S214007030184380B2F7E75B680A491B6818021A040F
S2140070400A40000E1043FF22120213401843EAE7DC
S2140070501800FFF71EFEE6E7471201004514010080
S2140070606112010000FFFF0010B5054C2388002BBD
S21400707002D1FDF7FDF820802088431C238010BD38
S214007080B41200200B00F0B504338BB005930B88C8
S214007090060002934523049113700392029B059AFF
S2140070A053490720FDF79EF904993000FFF7D0FDFD
S2140070B0019000283DD101277578B3780435B76470
S2140070C0B561002B35D001F04BF9029B1038834296
S2140070D032DC019C0797059B08A85F19029B3900C4
S2140070E05A1BFFF7D3FE0690002863DD08AB1B880B
S2140070F04049E418A4B208AB5B8822000720FDF7DD
S2140071004FF908AB5B88099A3B490720FDF76AF9F7
S214007110300008AB19004C301C8000F0E7FA071E60
S21400712010D036490120FDF73BF9A023039A0197BA
S214007130137001980BB0F0BD8D23039A1370833B38
S2140071400193F6E7069BED180F2C20D80E2CC2D222
S214007150072CC0D010D8032CBDD0062C22D0079BFD
S2140071601C42B8D0220026490320FDF719F98223D5
S214007170039A1370813BE3E70B2CACD00C2CEED1BA
S21400718008A8FFF759FD33003C331870A3E7172C07
S214007190A1D002D8112CF3D0E1E7232C9BD0272CCA
S2140071A0DDD198E708A8FFF7EFFE002800D092E7A9
S2140071B0B06490E7002C0FD0029B9D420CD03B7829
S2140071C0FF2B08D00F490320FDF7EAF88F23039A18
S2140071D013707B3BB4E701356A46029B75611289E2
S2140071E05D1B049B356430001A80FFF7D3FDA0E7D3
S2140071F0AB120100BB1201001E170100D3120100E2
S214007200ED1201000B130100F7B50C002600050077
S21400721000211700200054224C3605F055FC3000A3
S21400722000F030FA2B78A91D23706B780822637063
S214007230A01D05F02EFC2800AB884C30A3806B6C9C
S21400724000226364AB6C0621A36400F091FA002868
S21400725015D0FFF799FEA36C002B10D100280ED195
S2140072606A4603250633694630001380558000F0D1
S2140072703DFA002803D003492800FDF791F827655A
S214007280F7BDC0468F120100F0B506008DB0FFF7BF
S21400729081FD4023327805AD120113432B70B3787D
S2140072A0002B1CD104246B70B3881A12AA70EB70E2
S2140072B02100306D01F0A0F807000320002F4BD00E
S2140072C037653E1D22002900300005F0E2FB07204E
S2140072D03B8832005149FDF785F800203CE03F2B03
S2140072E000D899E06B70B3881A12AA70EB707478A5
S2140072F0002C33D00420082C2EDC2200B11D06A85A
S21400730005F0C7FB2B7823432B70043433004C3333
S214007310002206211800019300F02AFA002821D046
S21400732003AF02AB43603B0006C806C300F0C6F8D6
S21400733002903800FFF760FE1C2206230290121B04
S214007340291938003B80FFF7DDFD002808D13449B5
S2140073500330FDF725F803200DB0F0BD0424D5E773
S21400736024180620336C002B44D00C233200181A45
S21400737003AF38803C321378002B0FD102AA7A6014
S2140073801C222919121B38007B800293FFF7BAFDD6
S214007390241800280ED123490320DAE77A601C223D
S2140073A00123121B291938007B80FFF7ABFD00284C
S2140073B0F1D0241800220E21019800F0D9F90028F7
S2140073C01AD002AB43603B0006C806C3164B380013
S2140073D01B680293FFF710FE1C2202230290121B6A
S2140073E0291938003B80FFF78DFD2418002803DCA0
S2140073F00E49D1E7002805D0336C002B02D0FF23BE
S2140074002B5501341C2C00DC52E7F021084B094AAE
S2140074108900094805F0C0F904209DE7AE13010075
S214007420271301004A130100B8130020741301004B
S214007430971301008F14010061120100014B1860C0
S2140074407047C046B8130020F7B505000F0001923C
S2140074501E000420002D2ED02B78002B2BD0089B4E
S2140074601C78032C27DC032C0CDC98214900614394
S214007470114B2800591806F02CFC002802D00134C5
S214007480E4B2F0E70C20042C15D098235B0063438D
S21400749009490198CD182A00FF3252780233FF338B
S2140074A0C9183A7005F0F5FA0020FC352B6901344E
S2140074B03360089B1C70FEBDF0130020054B064988
S2140074C01A688A4203D102221A601868704701328D
S2140074D0FAE7C0469C000020FFFFFF00F0B585B02D
S2140074E000900E000292142300282FD006F003FC12
S2140074F01423FF282AD8377F002F3FD037001C37A9
S214007500380006F0F8FB0500334B344A9C1C9B18E9
S2140075100193B31DFF340393A11EFF392A003800E0
S21400752006F005FC002814D1631E71781A788A428A
S21400753000DA0A002100039805F09CFA002808D11A
S214007540009A27490630FCF72BFF0923180005B0E0
S214007550F0BD3134019BFF34A342DDD10424002763
S2140075601D4D98235B007B430098E918019306F0B5
S214007570B0FB002804D1009A1A49E3E70424EFE799
S214007580019B5B5D002B02D1042C00D13C0001372F
S214007590042FE6D11423042CD8D01D33FF335C43CC
S2140075A02F193B007278A01CFF33FF305A70B11DB4
S2140075B0281805F06EFA0099380006F094FB2000B3
S2140075C03100029B1130FC37FF303B611C3128181C
S2140075D006F089FB0023B9E7F0130020C105000080
S2140075E0B8140100EA140100F0B585B00700009158
S2140075F0019202930420002F36D00B0000241F4D6A
S2140076000633AE1CFF360393B11EFF39380006F072
S21400761060FB00282AD1009A731E51781A788A4295
S21400762000DA0A003100039805F024FA002802D098
S214007630029B002B1AD098235B0063430024EC5473
S214007640ED182B00FC331969019A30001160FF35E4
S2140076501C610822210005F037FA06206C743A00F7
S2140076600749FCF79DFE200005B0F0BD3136013419
S214007670FF36042CC8D10C20F6E7C046F0130020D5
S2140076801215010010B5002805D1044B044A8021CC
S214007690044805F081F80023036010BD6215010060
S2140076A03C1601006515010070B5041E05D10C4B93
S2140076B00C4A92210C4805F06FF8006800280ED09E
S2140076C023688568984205D1256005F0B7F928003B
S2140076D0F4E713009A689042FBD19D60F5E770BD11
S2140076E062150100B81501006515010070B50600A9
S2140076F00D00002805D1A921194B1A4A1A4805F091
S2140077004BF8002903D1194B164AAF21F6E70C2097
S21400771005F08AF904000320002C12D00C22002168
S214007720200005F0D1F923002A0003CA03C33368FA
S214007730002B03D02A881988914204DDA3603460A8
S214007740002070BD03009868002805D001888A4292
S214007750F8DAA0609C60F3E7A0609C60F1E7C046A2
S214007760621501009315010065150100351501002D
S21400777007B5002806D183210E4B0F4A49000F4853
S21400778005F00AF8006801AB0190002A04D01368DF
S214007790002B0AD1106013001868002808D0028851
S2140077A08A4205D082681A60F6E79B681360F2E7A3
S2140077B00EBDC04662150100FE15010065150100EC
S2140077C0F8B504000F00002806D14C21124B134ACE
S2140077D0FF31134804F0E0FF0C250068002812D0A3
S2140077E003888668BB4206D12368984206D1266085
S2140077F005F024F900253000F0E713009A6890425F
S214007800FBD19E60F4E7002D04D03A00054907201E
S214007810FCF7C6FD2800F8BD62150100D215010070
S214007820651501004115010003680133036000205F
S21400783070470000F7B534248446114D114E287861
S2140078400F0060430092104962463018019306F01C
S21400785011FA2B786A465C43009B3619B3623300F4
S214007860127931331A703200002330323762F362F5
S2140078701370FCF7FDFC70622878431C2B70FEBD6D
S214007880B0180020B418002097170100F8B534256A
S2140078900D4C0E4E23780F006B4302000C49F01877
S2140078A006F0E8F93C2324786C4334192200A362DE
S2140078B0002331321370013A27621370E362FCF73B
S2140078C0D7FC6062F8BDC046B0180020B41800208F
