:1020000000800020F5250000D9250000F125000002
:1020100000000000000000000000000000000000C0
:10202000000000000000000000000000D9250000B2
:102030000000000000000000D92500004926000033
:10204000D9250000D9250000D9250000D925000098
:10205000D9250000D9250000DD250000D925000084
:10206000C94A0000D9250000D9250000D94A00003E
:10207000B94A0000D9250000D9250000D925000063
:10208000D9250000D9250000D9250000D925000058
:10209000D9250000D9250000D9250000D925000048
:1020A000D9250000D9250000D9250000D925000038
:1020B0000000000010B5064C2378002B07D1054B1B
:1020C000002B02D0044800E000BF0123237010BDA4
:1020D00000030020000000008C040100084B10B534
:1020E000002B03D00749084800E000BF07480368F9
:1020F000002B00D110BD064B002BFBD09847F9E711
:1021000000000000040300208C040100F8020020FD
:10211000000000001FB5002002F0CCFB3C2302931E
:102120003B3B0193054B064A00930649064B074883
:1021300002F088F902F0CEF905B000BD5D21000083
:102140003924000085240000A5230000A8EF00002A
:1021500010B502F07DFC10BD7047000010B50B49B2
:10216000040009F0A2FF002803D14322084B1A7093
:1021700010BD0849200009F098FF03000120002B42
:10218000F6D14621024A18001170F1E7ADEF0000C8
:1021900020030020B3EF000030B5A3B001A801F088
:1021A0003AFF174B01A8196801F010FF154C164BA8
:1021B0002268164D9A421ED0052001F03BFC144BBC
:1021C000186006F0ABFD011C01A801F03FFF01A85B
:1021D00001F06BFF0F4B196806F0ACFA08F0DCFB5E
:1021E0000D4B0E4A07F074FD08F028FC23682860A8
:1021F00001332360DAE700232868236023B030BD71
:102200006C030020640300201027000068030020F6
:102210006003002004000020B7984740C66D34805A
:1022200070B50024174D222001F004FC013D241854
:10223000012000F04DFA002DF5D10521200005F018
:10224000D3FC08F071FB104A104B07F041FD05F07C
:10225000D1FE06F0B3FD0E4B196806F06BFAEA21C9
:10226000890506F067FAFC21890506F063FA05F096
:10227000A9FE1423584306F0A1FD064906F06AF8AA
:1022800070BDC046B80B000039B4C876BE9FE63FAB
:102290001C03002000007A44F0B5384B9FB0029335
:1022A000374B6A46039356230700138001AC153B56
:1022B0000822344907A8238008F0D6FD32490622B7
:1022C00005A808F0D1FD314A314B1A60FFF764FFD1
:1022D00008F062FB2F4D02000B0007A8290009F04F
:1022E000B5FEFFF79DFF08F057FB0B000200290029
:1022F00005A809F0ABFE01F0F7FE0600264D02002E
:10230000290009A809F0A2FE320029000EA809F050
:102310009DFE02A90EA809F0BBFE07A90EA809F0B0
:10232000B7FE694604A809F0CAFE04A90EA809F080
:10233000AFFE1A490EA809F0ABFE09A90EA809F0D4
:10234000A7FE03A90EA809F0A3FE05A90EA809F08F
:102350009FFE210004A809F0B2FE04A90EA809F00E
:1023600097FE0EA9380009F0AAFE0EAA0C49072014
:1023700001F052FF00201FB0F0BDC04633302C00EA
:1023800033312C0070F0000078F0000000404E4522
:102390001C03002055F000005BF00000D6F60000A2
:1023A0005FF0000070B50E0000210400FFF774FF1D
:1023B0000500200009F08BFE3070280070BD000081
:1023C00030B5174B8FB01A7F050001A80271154A6E
:1023D00005A901921A6A5B6A8260C36001F0F7FC8A
:1023E0000A9C211C201C06F061FC002800D00E4C29
:1023F0000E4B1B785BB2462B0DD1201C08F0CCFA9B
:102400000B4A0C4B07F064FC08F018FB8421C9054B
:1024100005F00EFE041C00202C600FB030BDC0463D
:1024200028030020E8F000000000C842200300203C
:10243000CDCCCCCCCCCCFC3F002370B592B0060008
:1024400001A80D000193FFF7BBFF041E0CD101A9E9
:1024500002A8FFF721FF02A90400300009F02FFEB7
:1024600002A809F034FE2870200012B070BD0000F0
:102470000122034B00201A7192185A707047C0460F
:1024800020030020F0B546220026334B91B01A708D
:102490005E70FFF7EDFF314C200001F0EDFC30489D
:1024A00001F02EFF237F02AA13712E4B100002931E
:1024B000236A06A90493636A0193059301F010FD52
:1024C000294C200001F01CFF284F380001F018FFB4
:1024D000274801F0FFFE06A801F012FF254801F091
:1024E000F9FE099801F022FF200001F009FF2248BF
:1024F00001F0F0FE0A9801F019FF200001F000FF42
:102500001E4801F0E7FE0C9806F0E8FB01F00EFF14
:102510001B4D280001F0F4FE1A4801F0DBFE0D9877
:1025200006F0DCFB01F002FF280001F0E9FE16488E
:1025300001F0D0FE0E9806F0D1FB01F0F7FE280066
:1025400001F0DEFE380001F0DBFE200001F0D8FED5
:10255000300011B0F0BDC046200300202803002049
:10256000B9EF0000E8F000007EF40000D3EF0000B7
:10257000F8EF000007F0000016F0000025F0000062
:1025800034F0000037F0000046F00000012313B5DE
:102590000B4C5B42019300930B2207330021200078
:1025A00001F052FC074A0849200005F05EF8074B8D
:1025B0000748196805F0CEFE064B186013BDC046EB
:1025C00028030020000000205921000008000020FE
:1025D000000020426C03002003BEFEE7034B10B551
:1025E0001B68002B00D0984710BDC0467003002028
:1025F0000DBEFEE770B50F490F4CA14204D100F0AB
:10260000F5F800F0A3F8FEE70C4D00238D42F6D05C
:10261000CA18E818A24205D39042F0D0084B0949E5
:10262000002204E0006804331060F1E704C38B4229
:10263000FCD3E4E70000002000030020F4040100C4
:1026400000030020140F002010B500F07CF80028D3
:1026500001D100F063F810BD014B18607047C0460F
:1026600070030020014B18687047C04674030020B7
:10267000F7B51348012284461249134C8E686368EB
:1026800005689B0E1340019288686268019F920E54
:102690003A4067463F6893420ED1BD420CD1864214
:1026A0000AD35B19FA254868AD00861B07486B43BF
:1026B0007043000DC018FEBD3D0013000600E3E7A7
:1026C0007403002010E000E000ED00E0555500002C
:1026D000F7B5041E1CD0EFF3108372B60D4E0E4FEB
:1026E00035683A680192DB0700D462B6EB439C423E
:1026F00004D964190025019B0133019300F022F8ED
:102700003B68019A9342F9D333685B1B9C42F5D82E
:10271000F7BDC0467403002078030020074B10B5B6
:102720001A6801321A601B68002B03D1044A13682F
:102730000133136000F038F810BDC0467403002068
:1027400078030020704700207047704710B501F0F3
:1027500059F808F02DFBFFF7F8FF0120FFF7B8FF4D
:10276000084C200000F0F6FA200000F053FBFFF7C1
:10277000D1FCFFF7EDFC044B002BFAD000E000BFCA
:10278000F7E7C0467C03002000000000014B186002
:102790007047C0460C0000200122024B52421A60D2
:1027A0007047C0460C000020054A10B51368591C3C
:1027B00005D0013B1360002B01D1024B984710BD9F
:1027C0000C000020910401000249034B4A681A42A0
:1027D000FCD1704700180040FD0700000E2302499D
:1027E0000A781A42FCD17047380C00408422F8B5B0
:1027F000294B2A4D5A6040236A69022113436B61B9
:1028000080230122DB059A719878014399709979A8
:102810001142FCD00121224C9A71224B2270227865
:102820000A4202D062681A42F9D11F4B1F4A5A610C
:10283000022259690A435A610122D9681142FCD027
:102840001B4B1C4E0227F362FFF7C8FF00231A4AF6
:1028500033631370FFF7C2FF184B1F70FFF7BEFF03
:10286000174A13783B42FCD001232B71154D25628A
:10287000FFF7AAFF2563FFF7A7FF0C22337D9343E1
:102880001A000423134333750F4BE362FFF79CFFD9
:102890000E4A0F4B1A60F8BD004000410004004092
:1028A00000180040FD070000001000401C0400005C
:1028B000710B0000000C0040340C0040280C00405C
:1028C0003C0C00400803020006010100006CDC0221
:1028D0003800002030B50F25CB1D013902002A40F9
:1028E000140000093034092A01DD373214001C704D
:1028F000013B8B42F2D130BD70B582291FD1C3B2EA
:102900002C4D5A01AA1891692B4C80010C40C02112
:1029100089052143916129490833081880215061B4
:102920002A685B01D0180479494221430171702063
:10293000995C8143080030210143995470BD0029FE
:10294000FCD1C024C1B21B4E4B01F3189A681A4D3A
:10295000A4052A4022439A60194A800110180A00EF
:1029600058603068072608325201115CB1430E00EE
:1029700001213143115499690D402C439C6170240D
:102980000E495961115CA1430C00102121431154DF
:1029900099680C4C82180C408021490321439960AE
:1029A0009968890B89039960402351790B435371CE
:1029B000C4E7C04634080020FFFFFF8FA8030020B3
:1029C00068050020FF3F00F070B50400012320CC13
:1029D00000212A782000134380222B70520008F037
:1029E0005EFAAB78DB07FCD46C6270BD1F22144B1F
:1029F00070B51B68590B9C0C9B0111405B0F22406A
:102A00001F2900D11A391F2A00D1023A072B00D101
:102A1000043B1F2500688E01048D0A492A4021408D
:102A200031430185018D14000A00AA432243028527
:102A3000028D1903044B13400B43038570BDC04640
:102A4000206080003FF8FFFFFF8FFFFFEFF3108350
:102A500003600123436072B670470368002B02D104
:102A600062B6BFF36F8F704737B5056904006846DB
:102A7000002D14D1FFF7EAFF019B621D013B02D339
:102A8000D57FEDB2FAE768460193FFF7E6FF002D28
:102A900001D100203EBD206AE369C01AFAE7FFF7C2
:102AA000D5FF22000025019B3432013B02D315786B
:102AB000EDB2FAE768460193FFF7CFFF002DE8D0AB
:102AC000206BE36AE9E70000F0B501254668037A68
:102AD00031685A018C18FF34A77AB2183D43A572A9
:102AE000C468094D9068A4042840240920439060DC
:102AF00090680833800B8003906040225B01CB1804
:102B000019790A431A71F0BDFF3F00F0F7B5036968
:102B100004000E0017006846002B3DD1FFF796FF1A
:102B2000019B611D013B5A1C0CD0CD7F5A1EEDB29A
:102B3000002D05D168460193FFF78FFF2800FEBDE9
:102B40001300F0E7684601930025FFF786FFE3696D
:102B5000AF4202D0226A934257D3226A9342EDD108
:102B60000023E361013323616846FFF76FFF220012
:102B70000021019B671D013B3532581CDAD0F977E3
:102B800010785E1E002805D0117020000193FFF719
:102B90009BFFECE73300F0E7FFF758FF2100019BB4
:102BA0003431013B5A1C06D00D785A1EEDB2002D6F
:102BB000C0D01300F6E7684601930025FFF74DFFEC
:102BC000E36ABD4202D0226B934226D3226B93422A
:102BD000B4D100236846E3622361FFF737FF270083
:102BE00022000021019B3437013B3532581CA1D013
:102BF000397010785E1E002805D0117020000193F6
:102C0000FFF762FFEBE73300F0E75A1CE261A269CD
:102C1000D3181B787355013599E75A1CE262A26AF2
:102C2000D3181B7873550135CAE7F7B5027A4368A4
:102C3000110004000831186849014118C879C0071B
:102C400027D501255201CD719B189A6861699204BC
:102C5000920C002921D12262226A002A3ED0A26A67
:102C6000656168465A60FFF7F1FE27002100019B6D
:102C7000661D013B343735315A1C2BD0F5773A7835
:102C8000581ED2B2002A05D0019368460D70FFF796
:102C9000E4FEF7BD0A700300EEE72263226B002A10
:102CA0001CD000226261A26968465A60FFF7CEFE1E
:102CB00026002100019B3436013B671D35315A1C2B
:102CC00008D03570FA7F581ED2B2002ADCD10A70C3
:102CD0000300F4E768460193FFF7BFFE2000FFF70B
:102CE000F3FED6E737B56B46DC1D00230D00200050
:102CF000237002F063FB2B681818286002F018FCA0
:102D0000210002F0D1FB2B681818286020783EBD06
:102D100003290ED180220E4B62311B68FF31585CB3
:102D2000524202435A5468226339FF39FF329954A0
:102D300070470129FCD18022054B24311B68FF31EB
:102D4000585C524202435A542339FF392822EDE796
:102D50003408002070B50024264B01210500152001
:102D60001C7000F0B1FE0121152000F0B1FE224BD5
:102D7000012114201C7000F0A7FE0121142000F096
:102D8000A7FE01231D4A1820916940340B4393612B
:102D90000F2100F007FF0F21192000F003FF184B4F
:102DA0001C601A682242FCD01648FFF755FC164EEC
:102DB0003000FFF709FE3000FFF718FE7F2133686F
:102DC000C1201A7880000A401A70042219780F4E28
:102DD0000A430C211A701A898A431A810C4A115825
:102DE000314011501460022219780A431A700123ED
:102DF0002B7070BD9D0300209C0300200004004048
:102E000090180040E537000034080020FFFF00FF65
:102E100000E100E00078002810D00121084B1B6879
:102E20001A898A431A810822198B0A431A830422B9
:102E3000198B0A431A830022024B1A607047C0465E
:102E4000340800202C08002010B5104A93699B0B11
:102E50009B03936113680222FF331A729879823AB6
:102E600002439A711A7A9207FCD582227F24D205F6
:102E7000937A2140A34308001900802301439172F3
:102E8000917A5B420B43937210BDC0463408002018
:102E900010B50B790C00002B0CD1080002F09CFA45
:102EA000002801D0012010BD094A93699B0B9B03A8
:102EB0009361F7E702F03CFB210002F028FB0028B9
:102EC000F0D1034A93699B0B9B039361EBE7C046E8
:102ED00034080020F7B50D00832A19D1CBB2324C4B
:102EE0005A01A21891693148AD010840C0218905F5
:102EF000014391612E4920684D19702108335561B5
:102F00005B011A5C8A43110040220A431A54F7BD40
:102F1000022A44D18B000193264B8A00D658002EFA
:102F2000F5D1382001F034FE234B1F4F036080237E
:102F30005B00C360431D0662856006614661C66131
:102F400004004760DE77C662066380202F331E7060
:102F500040005E7007F062FF0600A0618020400024
:102F600007F05CFFEDB26B01A062FB189A680F4995
:102F700007201140C02292050A439A603A6808353A
:102F80006D01A95C8143080003210143A95420007D
:102F90005E60FFF799FD074B019AD450B7E7110027
:102FA0002800FFF7A9FCB2E734080020FFFFFF8FDD
:102FB000A80300208003002088F0000070B5050001
:102FC0000124064BA200D258002A05D02100280077
:102FD000FFF780FF0134F4E770BDC0461000002009
:102FE000084B8A00D05810B5002803D003689B68AE
:102FF000984710BDC9B2044B49015918886880042C
:10300000800CF6E7800300203408002010B50C0087
:10301000FFF7E6FF00280CD0064BE4B21B6808342B
:1030200064011C19802362795B421343637102239C
:10303000E37110BD3408002070B5134BCCB2134AB5
:10304000600189015918131859609968104D0834A6
:103050000D40802189022943402599609968890B98
:103060008903996011686301CB181E7935431D717E
:103070009D796D06FCD564010919CB79DB07FCD578
:1030800012189068C0B270BD680500203408002096
:10309000FF3F00F070B5140040220B4B0D001B6881
:1030A000FF3359790A435A710021FFF7C5FFA04247
:1030B00000D9200000230549A34203D05A5CEA54FA
:1030C0000133F9E770BDC0463408002068050020D0
:1030D00010B5C9B20B484901421893689B049B0C78
:1030E0003F2B0BDD9468403B9B04A40B9B0CA4037B
:1030F0002343936041188868C0B210BD93689B0B4E
:103100009B03F6E734080020F0B51C00304B85B077
:103110001B6806000D000192002B55D02D4F397809
:10312000C9B2002902D1142000F0D2FC64233B7004
:10313000294BAA00D058002808D0036822005B68F9
:10314000019998470400200005B0F0BD2900300027
:10315000FFF746FF844204D929003000FFF740FF03
:10316000040029003000FFF7B3FF0121EBB21B4F31
:1031700003935B010293029A3B6801989B18FF330B
:103180005A7A0A4316495A72AB01C918220007F04D
:103190006BFE002CD7D029003000FFF721FF00285C
:1031A000D1D14021039B3A6808335B01D3181879C9
:1031B000014319710121D9710121029BD318FF33F9
:1031C0009A7A0A439A72BEE701246442BBE7C0467A
:1031D0002C0800209C0300208003002034080020DD
:1031E0006805002013B56B46DC1D22000123FFF7A4
:1031F0008BFF012801D1207816BD01204042FBE75A
:10320000F0B51E003A4B85B01B680F000192002BF1
:103210003FD08023DB019E423BD8364C2178C9B297
:10322000002902D1152000F053FC64230025324A06
:103230002370BB01D3180293002E2CD02F4B1B6898
:103240000393FF233B401C0000930834039B64015D
:103250001C19A379DB0921D0294B2A49186804F0ED
:10326000C3FC294B1721584304F0BEFC274BE279DD
:10327000920713D4DA5D002A01D10138F7D2012276
:10328000DA55009B5A011D4B9B189A69920B9203C9
:103290009A6101256D42280005B0F0BD00221B4B4C
:1032A0003400DA553F2E00D93F24220001990298BC
:1032B00007F0DAFD009BA1045A01104B890C9B1802
:1032C000029A2D195A619A69361B920B92030A438E
:1032D0009A61009B039A08335B01D3180222DA71CA
:1032E0005979823A0A435A71019B1B190193A3E74A
:1032F0002C0800209D030020A80300203408002093
:103300003800002040420F00701101009F03002090
:1033100070B50D001C000D4EAB01F6181100300009
:10332000220007F0A1FDEDB209496D014D196E6152
:10333000AB69084A20001340AB61AB69A2049B0B48
:10334000920C9B031343AB6170BDC046A8030020E1
:1033500034080020FF3F00F0F7B5104B01901B78B8
:103360000F001500002B0CD10D4B16001C78002C03
:1033700009D00C4E0C4834880019641907F074FD0C
:1033800034802800FEBD002EFBD03A193300002106
:103390000198FFF7BDFF2418361AF4E7280700202C
:1033A000290800202A08002029070020F8B500205D
:1033B00000AF0E001500012A26DDD31D6A46DB088A
:1033C000DB00D31A9D46080008F081FE6C460323FB
:1033D000002101304000207063705A1ED2B2954225
:1033E0000BDD3078002808D00136A0549D4203D070
:1033F000E1540233DBB2F0E72A0021000348FFF773
:10340000ABFF431E9841C0B2BD46F8BD7C0300200F
:10341000F0B50027012687B01E4B009102A91E704F
:1034200005000297FFF75EFC03AC0190092239000A
:10343000200007F034FD09232370022363709E33BC
:10344000E3715A332372029B6671093363806B46C2
:103450001B7923710F4B1F70009B092B07D11A009A
:1034600021002800FFF778FF012007B0F0BD0A4BCC
:1034700009221E70094E2100280002973780FFF7AD
:103480006BFF02A92800FFF72DFC034B32881F7049
:103490000349E6E728070020290800202A08002021
:1034A0002907002070B5CE7892B005000C00022EDE
:1034B00008D1C9882B48FFF7ABFF431E9841C0B223
:1034C00012B070BD02F034F8210002F001F80028BB
:1034D00003D0C317181AC00FF2E7012E0BD1E288F0
:1034E0002149112A10DCD2B2002A0DD02800FFF7A2
:1034F00033FF0120E4E7032EE2D1A378002B05D1AE
:10350000E2881A49032AEEDD0A78EFE7022B05D19B
:10351000A27917492800FFF749FFD1E7012B02D113
:10352000A2791449F6E7032BCAD1134B01A91868F5
:10353000FFF7D0F9114B03A91868FFF7CBF9104B2F
:1035400005A91868FFF7C6F90E4B07A91868FFF719
:10355000C1F901F0EDFF09A901F0CAFFA27901A9A3
:10356000D8E7C0467C030020B6F00000A2F00000BF
:1035700094F00000A6F000000CA0800040A08000A5
:1035800044A0800048A0800073B5060048780D0074
:103590000B2811D804F01EFB061D102E1043487096
:1035A0004C4F696C097801AA002907D102231170D8
:1035B00051703000FFF7ACFE012076BD0023137080
:1035C00053702E4B1B78012B00D113700223002166
:1035D000EFE78A780023012A04D101AA13705370FF
:1035E000274BEFE7254A1370264A93699B0B9B03F1
:1035F0009361E1E78C78012C06D10021204B01AAD0
:103600001C7011702300D4E7002C08D101201B4B43
:103610001C4A187093699B0B9B039361CDE7A978B3
:103620003000FFF711FCC7E73000FFF73BFFC4E7AE
:103630000123154ACBE70B780020DB06BDD1300013
:10364000FFF7BCFC2A200221AA780F4BFF301A603A
:103650000C4A13681C5C21434A241954FF34195D39
:103660002938FF3801431955D4E70123074AAEE74B
:103670008A78064B1A60B7E700209EE79E03002079
:10368000A6030020340800202C0800203008002069
:103690004C4BF7B51C780700002C00D091E04A4E47
:1036A00033689B8B1B070ED521002000FFF724F900
:1036B000326810231100FF31887A03438B72434B29
:1036C0001C600823938333689A8B52071FD504220A
:1036D0009A833F4A1378002B0AD01378013BDBB260
:1036E00013701378002B03D10121152000F0F0F99D
:1036F000384A1378002B0AD01378013BDBB21370E1
:103700001378002B03D10121142000F0E1F9336874
:10371000FF331A7AD20620D510221A725979303224
:103720000A435A7160232C4938000A781A4235D16D
:10373000FFF72AFF002834D0802233685242FF333B
:1037400099790A439A713368FF331A7A520604D57D
:1037500040221A72597A0A435A72336807251C8C20
:1037600001239C43E4B20193E9B2002C29D0002D3F
:1037700027D023002B41019A13420DD02B00326831
:1037800008335B01D318DA79D20711D4DB799B07B0
:103790000ED4019BAB409C43013DE5E7FFF778FB6E
:1037A000C8E720220D4BCDE703681B689847F0E778
:1037B0000B4BAA00D0580028F6D13800FFF7A8FA22
:1037C000E7E7F7BD29080020340800202C08002076
:1037D0009D0300209C03002068050020FF0000419D
:1037E0008003002010B50248FFF752FF10BDC0460D
:1037F0007C0300208222024BD2051A607047C0462B
:1038000034080020C0201A491A4B1B4A10B54B60DF
:10381000136A00061B021B0A0343136200240723DA
:103820008C600B608021136A09061B021B0A0B4384
:1038300006211362114BDA69186A014319620821E3
:10384000186A01431962D96911430D4A0A43DA61C2
:1038500020001A21013400F037F9242CF8D100F0AF
:103860009FF8052000F03CF800F016F810BDC046A7
:1038700010E000E07FBB000000ED00E0000400402D
:10388000FF170000914202D002D98A1AD040704737
:10389000521A9040FBE700000C490D4B4A681A424F
:1038A000FCD140230B4A536051681942FCD03F229F
:1038B000094B99681142FCD102225A70C22292002F
:1038C0009A81DA810122054B1A7070470018004076
:1038D000FD070000FC1800400030004239090020BC
:1038E00010B52A4B04001B78002B04D10122284B71
:1038F0001A7000F055F8032C06D10721200000F0C3
:1039000051F9002809D010BD042CF6D0002C2BD181
:10391000204A2149D3690B40D3610F211F4B0C4032
:103920009A788A4314439C701A8C5205FCD11978FA
:1039300002320A431A701A8C5205FCD1197E0232E7
:103940000A431A761A8C5205FCD19A79D207FCD513
:1039500002219A8C1A788A431A701A8C5205FCD16B
:103960000B4B01321A70CEE7052CD6D9094B0A4908
:10397000DA69063C0A40F021DA61DA6924040903B5
:103980000C401443DC610024C7E7C046380900201E
:103990003A09002000140040FFFFF0FF000C004334
:1039A0001E4B07211B6810B51A00DB080A401202E3
:1039B0000B4013431A4A938513001A8C5205FCD10D
:1039C00018490432C8690243CA61402216490A6094
:1039D00008681042FCD007225A7019325A811A8C9A
:1039E0005205FCD13F325A731A8C5205FCD1C022C9
:1039F00052011A811A8C5205520DFBD11A731A8C7E
:103A00005205FCD1094B01321A70094B1B78002B6F
:103A100002D10520FFF764FF10BDC0462060800082
:103A2000000C004300140040F81800403809002042
:103A30003A09002010B51F4B04001B78002B01D160
:103A4000FFF7AEFF0521200000F0ACF803000020D6
:103A5000834228D10C3044431748184B0019417A4F
:103A60001F201A89014082430A431A811A8C520589
:103A7000FCD1197802320A431A701A8C5205FCD113
:103A8000197E02320A431A761A8C5205FCD19A79B1
:103A9000D207FCD50221988C1A7880B28A431A701A
:103AA0001A8C5205FCD1064B1A68064B1968FFF7B1
:103AB000E9FE10BD38090020CCF20000000C0043E4
:103AC000400000203C00002010B500F06BF810BD55
:103AD000F7B50C224243254D0190535D042B2FD0A6
:103AE0000027AA185278DB01214ED418A419267891
:103AF000204CF6B21C59BC4204D0013797407C1EC2
:103B0000A741FFB21B4C1C192469A446002460463F
:103B1000A04204D001349440601E8441E4B2002FDE
:103B200017D101980C3778432D18686801290DD1F9
:103B3000012C06D1410706D4D3180D4A9B181E70DC
:103B4000F7BD0107F8D504210E43F5E704218E43A4
:103B5000F2E7012904D19140064A9B189961EFE7E9
:103B600001219140034A9B185961E9E7CCF200001A
:103B700040280040002800400C23584307490023F8
:103B8000425C042A06D0064BD201D2180918136AE7
:103B90004A78D340012018407047C046CCF200005C
:103BA00000280040F7B50500232800D96BE00C235E
:103BB00043437F4FDA5DFB18D8785C7801909878A2
:103BC0005B68042A5FD019267642B4468444664670
:103BD000012E01D9884256D1CB40DB0701D41A28E7
:103BE00051D1081F172863D803F0F4FF36476464E7
:103BF0006262626250505D0C0C626262626262904C
:103C0000924D624D0623002A00D18FE0694DD0010C
:103C1000201840190578042028404D1F022D01D995
:103C200002252843019D2D0701D54025284372B662
:103C3000D201002901D01A293ED10123A3405E49B7
:103C400051184B608B61042398435A4BA218D21829
:103C5000107062B60020FEBD0C235D437F19BB7A55
:103C6000122B10D00023002A60D0524DD001201812
:103C70004019057804202840D2E70C235D437F19C2
:103C80007B7A162B4FD101204042E4E70C235D43A1
:103C90007F193B7A802BF6D0062301980340581EEB
:103CA00083410433AFE70123019803400233DAE78D
:103CB0000923A8E70123A6E78D1E012D0CD80123B7
:103CC000A3403D4D55196B60032903D16B6104235B
:103CD0001843BAE7AB61FAE7012904D1A140364B9A
:103CE000D3189960AFE76108344D51184919E507B9
:103CF00008D50F260D781B0135402B43DBB20B7026
:103D00000123E5E70F260D78B543F6E70723AAE779
:103D10000823A8E72748D301E3181B1818780423C1
:103D20001840033B7EE7002AF4D10123022C02D085
:103D3000052C00D06AE7062900D167E7651F6842B5
:103D400045411F48475D002F00D15FE7002702264D
:103D500047551C480778B7430770A027BF00013FAD
:103D6000FDD13F2786683E42FCD1164E2F1DB4463A
:103D70007F00BC446646B7880226B7436646B780D4
:103D80000F4F3E78002E03D17F78002F00D13DE702
:103D900002270678374307703F2786683E42FCD1EA
:103DA00001277D1BAF40C5792F42FCD02EE7C046CE
:103DB000CCF200004028004000280040302800409D
:103DC0003B0900200030004270477047704770B5D3
:103DD0000C002426050032000021200007F05FF8C7
:103DE000EB68266063600D23A360FEF73BFC0022B6
:103DF00020611100A86801F091FD6061012070BD93
:103E000070B50C002426050032000021200007F0C8
:103E100046F8EB68266063600C23A360FEF722FC83
:103E200000212061A86801F0C9FD6061012070BD1A
:103E300010B5040000F0B0FE200010BD10B5040065
:103E400000F0AAFE200010BD70B50400150001F0BE
:103E5000ADFC074B25750833A361049B200063620A
:103E6000044B24620833A362059B2463636370BD23
:103E7000E0F00000FCF0000010B501F0ABFC10BD5C
:103E800010B5027D0C00152A07D0162A0DD008495E
:103E90000B2A04D00B22074901E00B22064920001F
:103EA00008F02DF90023E37210BD0B220349F6E759
:103EB000C8F00000DAF00000CEF00000D4F00000FE
:103EC000037D152B06D0162B04D00B2B02D1024BF1
:103ED0004B627047014BFBE740420F0080841E009D
:103EE00070B50C00050028220021200006F0D7FF45
:103EF0002100A868FFF7C4FF0123E360EB682100FD
:103F000023610D23A8686361FFF7DAFFAB681A7DB0
:103F1000152A0BD0162A0FD000230B2A0ED1E361ED
:103F20008023084ADB05A261236270BD064BA361B2
:103F3000064BE361064BF7E7064BF8E7A361E36145
:103F4000F2E7C046000048420000A042000020C244
:103F5000CDCCCC3D0000FA4270B50C000500282203
:103F60000021200006F09BFF2100A868FFF788FFD2
:103F70000123E360EB68210023610C23A8686361DF
:103F8000FFF79EFFAB681B7D152B0AD0162B08D0C0
:103F90000B2B0CD1084BA361084BE361084B236248
:103FA00070BD084BA3610023E361074BF7E70023D3
:103FB000A361E361F3E7C0460000A0420000A04116
:103FC0000000A0400000C842CDCCCC3D10B504009C
:103FD00002C001F007FE20002168443001F002FE1B
:103FE00010BD70B50D1C04000430161C01F017FE46
:103FF000291C281C04F09EFB311C051C301C04F0FD
:1040000099FB011C281C04F013F8011C200044300B
:1040100001F005FE70BD70B5FE2600250400B60552
:104020002A1C311C043001F0B5FD20002A1C311C73
:10403000443001F0AFFD311C2000FFF7C7FF2A1C00
:10404000291C2000FFF7CDFF200070BD70B50D1CAE
:104050000400043001F0D6FD291C281C04F06AFB82
:10406000011C2000443001F0CDFD70BD70B504008E
:10407000443001F0DBFD0434051C200001F0D6FDC6
:10408000061C200001F0D2FD011C301C04F052FB84
:10409000011C281C04F06EFC0021041C03F06AFFC4
:1040A000002800D00024201C70BD10B5FFF7DEFFF3
:1040B00003F064FB10BD000013B50A4C200001F0B2
:1040C000C5FE6A460123D3701371FA23DB00D38047
:1040D00000232000694693705370137001F05EFE58
:1040E00016BDC0463D09002010B5024801F00CFE87
:1040F00010BDC0463D09002070B50C4CC2B0200078
:1041000001F0B0FD0600200001F0B2FD0500200026
:1041100001F0B4FD2B0002000549009602A807F04B
:1041200095FF02A800F0ECF842B070BD3D090020F8
:1041300053F1000070B50C4CC2B0200001F092FDAC
:104140000600200001F094FD0500200001F096FD1E
:104150002B0002000549009602A807F077FF02A88D
:1041600000F0B8F842B070BD3D09002018F1000021
:1041700070B50C4CC2B0200001F092FD060020008A
:1041800001F082FD0500200001F084FD2B000200FB
:104190000549009602A807F059FF02A800F0B0F800
:1041A00042B070BD3D0900202FF1000010B502485B
:1041B00001F04AFD10BDC0463D090020072800DD82
:1041C0000720C343DB171840014B18607047C046F7
:1041D00044000020F8B50E4E1700306001F03AF9A7
:1041E000002308240B4D2B70306801F035F90028AE
:1041F0000AD1FA20013CC000FEF76AFA002CF3D184
:104200003800FFF7DBFFF8BD01232B70F8E7C0464D
:10421000400900203E0900200EB400B50C4BC2B08E
:104220001B78002B10D00B4B1B6883420CDBFFF775
:1042300081FF44AA439902A8019208F071FA064B43
:1042400002A9186800F0FEFC42B008BC03B0184791
:104250003E0900204400002040090020F0B51F0066
:10426000164BC1B01B780C001600002B24D0144B49
:104270001B68834220DBFFF75DFF124D002C08D046
:1042800011492200684607F0E1FE6946286800F0FF
:10429000B4FC3400A31BBB420ADA22780B496846FF
:1042A00007F0D4FE6946286800F0A7FC0134F1E766
:1042B0000749286800F0C6FC41B0F0BD3E09002067
:1042C000440000204009002075F1000079F1000051
:1042D0007EF40000074B10B51B780100002B07D0BF
:1042E000054B1B68062B03DD044B186800F085FCAA
:1042F00010BDC0463E0900204400002040090020B7
:10430000074B10B51B780100002B07D0054B1B682D
:10431000062B03DD044B186800F094FC10BDC0466A
:104320003E0900204400002040090020074B10B542
:104330001B780100002B08D0054B1B68062B04DD01
:10434000044B0A22186800F0DCFC10BD3E09002076
:10435000440000204009002013B500206B46DC1DFE
:10436000D87107F077FF201A16BD000010B50121A3
:10437000014801F057FF10BD48090020F0B5C7B053
:104380000C000500144903A801F03AF9002306AE19
:10439000009301332100FF3332001048802701F0E1
:1043A000F7FD02247F00315DFF2909D103A9280010
:1043B00001F0D0F803A801F0DBF8280047B0F0BD09
:1043C00003A8013401F07DF9BC42ECD10449280076
:1043D00001F016F9EEE7C0467EF40000480900201F
:1043E000C2F20000F0B5144985B00500002401F0C8
:1043F00007F90327114B1022195D01A801F024F9D8
:1044000001A9280001F04AF901A801F0B1F8230040
:10441000661C3B40032B05D10F2C06D00849280011
:1044200001F042F93400102EE4D1280001F083F9A4
:10443000280005B0F0BDC0467EF40000440D002009
:1044400083040100F0B587B004930CAB03921C4FBA
:1044500004CB3D781B781B4C01936B01E41802914F
:10446000060001002000059207F029FE029BA360D0
:10447000039BE360049B2361059B63610E9BA36127
:10448000019B012B0CD0002323773B7832000133B2
:104490000D4907203B70FFF7BFFE280007B0F0BDB5
:1044A0006B461B790E9A237708492B00300002F0E7
:1044B000B9FB0749020060770720FFF7ADFEE4E78C
:1044C00044090020500A00205DF20000E14700008E
:1044D00049F2000010B543010248C01883689847AC
:1044E00010BDC046500A002070B50D000221040026
:1044F00002F0E1FAC0B2002816D10100200002F05B
:10450000B2FAC0B200280FD1280007F0E0FD290060
:104510000200200002F0B3FAC0B2002804D1012149
:10452000200002F0A0FAC0B270BD0000F0B5A7B044
:104530001F002CAB01911C7806A90500160002A8EB
:10454000802202F07FFA1C496401091902A8FFF7D2
:10455000CBFF002803D06323180027B0F0BD310043
:104560003A0002A802F08BFA061EF4D102A802F06B
:1045700076FAC7B2040039B2280002F0AFFE032376
:104580000028E9D0E4B2220006A906F06DFC019BE8
:104590000A491F700720FFF73FFE230006AA0849BB
:1045A0000720FFF75BFEFFF7D7FE06490200072052
:1045B000FFF732FE3300CFE7500A00207FF1000002
:1045C00043F7000092F10000F0B50600A9B04C36A8
:1045D000059205000F0005AA0B2130001C0002F017
:1045E000C5FA0390002804D08423BB7000233B64E9
:1045F0003EE0039A0F21300002F0B8FA0290002842
:1046000001D18523F1E7AD78012D00D081E06A4624
:10461000127B02AB544902989A7502F057FA039044
:10462000002828D102AB1635ED186B461B7B6201C2
:104630002B704E4B29009B181B6908A89847162120
:104640002B7802A80094091808AA386DFFF76EFFAE
:104650000400039D02AB9B7D220045490720FFF724
:10466000DBFD002C4FD1002D43D043233C64BB70B5
:10467000002029B0F0BD3F49029802F027FA0290CD
:1046800000286AD102000621300002F06FFA061EEF
:1046900018D002F02DFA002803D0012809D00424F4
:1046A0000EE0324B64011C19607F02F00BFB04002A
:1046B000D0E72E4B64011C19607F02F017FB040049
:1046C000029DC7E7172502ABED18284B62019B1826
:1046D00028702900DB6808A8984716212B7802A8C3
:1046E0000094091808AA386DFFF720FF3500040070
:1046F000B0E702AB9B7D02223B643B003C331A7067
:104700004523BB70B4E7042C01D0142C29D1862397
:104710006BE7032D00D074E71726144B64011C19B6
:10472000636908AC0493029B20009D7802ABF618E5
:10473000029B357059682A0007F0E1FC6B461B7B31
:10474000310063552000049B9847002803D144237F
:104750003864BB708CE7012801D1A12345E7042808
:10476000D5D0A02341E7C04610F20000500A002037
:1047700019F2000014F20000F7B5060000244C36D0
:1047800001AA07000D0030000B21019402F0EEF9A0
:10479000300001AA0B2102F0E9F90600A04217D06F
:1047A0000D4B1B789C4211DA0C496301C91830008B
:1047B00002F08CF9002806D12300019A2900380064
:1047C000FFF702FFFEBD0134E4B2E9E78423AB70DA
:1047D00000202864F6E7C04644090020500A002063
:1047E000F0B50F25A7B002ABED1800230F0016009F
:1047F0000B4C2B705301E418220003900949072049
:10480000FFF70AFDE368290006A898472B7806AA57
:10481000009639000398FFF789FE27B0F0BDC04627
:10482000500A002073F2000084238B700023632061
:104830000B64704700B591B01549684607F03FFC1E
:104840001449684607F024FC6846FFF759FD1249F1
:10485000684607F034FC1149684607F019FC6846C1
:10486000FFF74EFD0E4B0F4A0F49684607F0EEFB6F
:104870006846FFF745FD0D48FFF742FDFFF76CFD69
:104880000B4902000720FFF7C7FC11B000BDC0466E
:10489000ABF10000C9F10000CFF10000DCF1000035
:1048A000E2F10000EEF10000F7F100007EF40000FC
:1048B00092F1000007B50122194B01001A70002285
:1048C000184B19481A70914228D11849103207F034
:1048D00016FC08204042FFF7EFFBE12107224902C6
:1048E0001348FFF777FC01210920FFF7EDF80121BC
:1048F0000920FFF7EDF80023FA2201930D4BD200B7
:104900005A2100930C48FF2302F092FC02F05EFC57
:104910003220FDF7DDFEFFF78DFF07BD1022D6E741
:1049200049000020440900209C000020A3F1000061
:104930001C0D00207EF400008C0B002010B5034AF3
:104940000A21034801F0A0FA10BDC046540D002012
:10495000480900207FB50500164901A800F050FE67
:10496000154E300000F018FDC4B22E2C15D0FF2CCF
:10497000F7D0210001A800F0A4FE242C09D10F4992
:10498000280000F03DFE01A800F0F2FD280004B070
:1049900070BD232CE5D10A49F2E7210001A800F0FF
:1049A00090FE002101A800F08CFE01A9280000F073
:1049B000D1FDE8E77EF400001C0D00209FF100000F
:1049C000A1F1000010B586B06846FFF7C3FF1A4991
:1049D000684600F080FE194C00280FD0012103A882
:1049E000FFF7CCFC03A9200000F022F903A800F097
:1049F000BFFD684600F0BCFD06B010BD104968461A
:104A000000F069FE002803D003A8FFF7EBFCE9E7FC
:104A1000FFF7ACFC01236A4619000A4801F0DAFAF4
:104A2000002804D00849200000F00CF9E1E707490C
:104A3000200000F0E2F8DCE79FF100001C0D0020F0
:104A4000A1F10000480900208FF2000098F2000058
:104A5000F8B5144E3378002B22D0134D134928009B
:104A600000F0F0F8FA270021114801F05FFA052460
:104A7000BF00280000F068FC00280AD0280000F0E1
:104A80008BFC0C4BC1B22800197000F0E5F8FFF761
:104A900099FF3800013CFDF71BFE002CE9D1347072
:104AA000F8BDC046480000201C0D00209FF2000009
:104AB000480900204C0A002010B5024800F016FBFF
:104AC00010BDC046D00A002010B5024800F00EFB11
:104AD00010BDC0468C0B002010B5024800F006FB4C
:104AE00010BDC046480C0020F7B584211A4FC905F7
:104AF000380000F00AF91949194800F006F9194977
:104B0000194800F002F9194D1949280000F0FDF884
:104B1000184E1949300000F0F8F81849184800F00C
:104B2000F4F80124002331000326019322000094AD
:104B3000144800F0ADFA3900009601940A230B22C4
:104B4000114800F0A5FA00962900019412231322BF
:104B50000E4800F09DFAF7BD040D0020000400424D
:104B6000080D0020000800420C0D0020100D002050
:104B7000000C0042140D002000100042000400430D
:104B8000180D0020D00A00208C0B0020480C0020BB
:104B900010B506F043F910BD10B506F049F910BD87
:104BA000F7B506000D000C008B180193019B671BE5
:104BB0009C4207D0336821781B6830009847013445
:104BC0000028F3D13800FEBD70B505000C00081EAA
:104BD00007D007F07CFA2B6802005B6821002800F0
:104BE000984770BD10B5FFF7EFFF10BD10B5036813
:104BF0008A685B680968984710BD10B5FFF7E4FF45
:104C000010BD10B503681B68984710BD10B5024968
:104C1000FFF7DAFF10BDC0467CF4000070B5040059
:104C2000FFF7D2FF05002000FFF7F0FF401970BD2D
:104C300070B50500FFF7DAFF04002800FFF7E6FF74
:104C4000201870BD70B50400FFF7BEFF05002000FE
:104C5000FFF7DCFF401970BD70B50500FFF7D1FF0D
:104C600004002800FFF7D2FF201870BDF0B5160031
:104C700000228DB002AB053301900D00DA77012ED2
:104C800000DC0A260BAC2800310003F033F80F00DB
:104C9000CBB228003100009302F0A6FFFBB23733FD
:104CA0000500013CDBB2092F02D8009B3033DBB298
:104CB0002370002DE7D121000198FFF785FF0DB08B
:104CC000F0BDF8B506000C00151E04D10368C9B28A
:104CD0001B689847F8BDD2B20A2D0DD12A000029D1
:104CE0000ADA2D21FFF78DFF614207002A0030000C
:104CF000FFF7BCFF3818EDE721003000FFF7B6FFE3
:104D0000E8E710B5FFF7DDFF10BD01607047F0B5B3
:104D100005AC25780468981E471EB841266892079E
:104D2000000632430243072022600140AD01626861
:104D300029430020022B00D0580311430143616036
:104D4000F0BD10B5C0240368A40318681205224002
:104D50000243C020090480020140114319605A68CF
:104D60001043586010BD0122036819680A431A6095
:104D70001A68D207FCD4DA69D207F9D47047022244
:104D8000036819680A431A60DA699207FCD470470D
:104D900003681A7ED20702D41A7E9207FCD57047A8
:104DA000002203685A8370470368187E4007C00FCB
:104DB00070470368187EC0097047802302685B4211
:104DC000117E0B43137670470368187EC007C00F2F
:104DD00070470368188DC0B2704703681A7ED20707
:104DE000FCD589B2012019857047012203689A75A4
:104DF0007047012203681A757047000070B50125DD
:104E000004684B082B402940206809075B070B43C7
:104E100003432360044B5100186802F0E5FE01389B
:104E2000C0B2207370BDC0464C0000200122036850
:104E300019680A431A601A68D207FCD4DA69D207E3
:104E4000F9D470470222036819680A431A60DA69C4
:104E50009207FCD470470368DA699207FCD40221F8
:104E60001A688A431A6070470268936A5B0A5B0299
:104E700019439162137E5B07FCD5906AC0B27047FC
:104E80008422036830B5D205934211D0214A93425F
:104E900034D0214A934234D0204A934234D0204A1D
:104EA000934234D01F4A934227D10D23182201E0A8
:104EB000082312220121032599401B48C0240160C8
:104EC00099082B40AB40FC359D4089000918A4008F
:104ED00008599200A843C0259D402B0003430B5165
:104EE000124BD1184023CB6711490868114908605B
:104EF0000E495218D16F1942FCD030BD092313223C
:104F0000D8E70A231422D5E70B231522D2E70C2376
:104F10001622CFE70004004200080042000C0042C5
:104F2000001000420004004300E100E004180040CB
:104F3000380000204C000020F8B516001D00026863
:104F4000184B04000F009A4200D101262000FFF701
:104F500097FF2000FFF707FF1C22BB0013407207DA
:104F60002468120C134323608423A375012F18D1E6
:104F70001021012E00D008390B4B69431868C0007E
:104F800002F032FE0722A3890240DB045203DB0C4D
:104F90001343A3810304A089DB0C400B4003184397
:104FA000A081F8BD000400434C000020F7B50700C5
:104FB000019308AB1E780D001400FFF737FF38008F
:104FC000FFF75EFFC022240592031440B2070C26AF
:104FD00007211643019A34430A40C026110080225B
:104FE000B6022D043B683540920225430A431D60FA
:104FF0005A60F7BD0120704710B50368014A1B6A6B
:10500000984710BD1304000010B504000069FFF7B5
:10501000AAFE2000143002F01DFA20005C3002F0DD
:1050200019FA10BD10B5143002F028FA10BD10B5F1
:10503000040020005C3002F021FA0028F9D1206938
:10504000FFF7A6FE10BD10B55C3002F01DFA10BDD2
:1050500070B5050004001435280002F0FFF92300A4
:10506000A8331B780600FF2B0AD0280002F00CFAA8
:105070000A2805DD2300B434B0331B6822681A60A7
:10508000300070BD10B5143002F00CFA10BD0000F5
:10509000F7B51D0008AB1B780400009309AB1B7823
:1050A0001600019300234360FA239B0083600E4B9C
:1050B0000F0008330360143002F0B6F920005C30B2
:1050C00002F0B2F96A4623001278A43327619A707D
:1050D0006A4612791E70DA7022005D70FF23A832D2
:1050E000200013701374FEBD80F4000070B504003E
:1050F0000069FFF759FE002819D025002069FFF745
:1051000068FE14350100280002F099F92300A83345
:105110001B78FF2B0BD0280002F0B6F9092806DC1B
:1051200023002200AC33B4321B6812681A60206975
:10513000FFF74AFE00280DD025005C35280002F05C
:105140009DF9002812D0280002F088F9C1B2206928
:10515000FFF743FE2069FFF72CFE002805D02069E9
:10516000FFF72BFE2069FFF71BFE70BD2069FFF7DC
:1051700040FEEFE7F8B5040000690E002500FFF7D8
:1051800023FE5C35002820D13F27280002F094F947
:1051900000282DD0EFF31083012213420CD1EFF33E
:1051A00005833B40F1D0103B5BB2002B17DB9B0823
:1051B000C033144A9B009B582069FFF705FE002866
:1051C000E3D02000FFF792FFDFE7280002F056F956
:1051D0000028D9D131002069FFF7FFFD0FE00F2231
:1051E0001340083B9B08084A9B009B181B68E3E799
:1051F0002800310002F023F92069FFF7F6FD0120B5
:10520000F8BDC04600E100E01CED00E0F0200140E8
:105210003039484248417047F0231B011940802330
:1052200006209B0099420AD00133FF330130994296
:1052300005D0802302385B00994200D000207047DF
:105240000F2001400020012903D00239481E81416E
:10525000481C70470300F0B50400A43385B01878EB
:105260000F000E211500FEF79DFC2300A5331878D2
:105270000E21FEF797FC2300A73303931B78022B24
:1052800007D12300B8331878FF2802D00E21FEF78B
:1052900089FC2600A8363078FF281AD00121FEF7B5
:1052A00013FC0C2133781F4A594320008B5C5218A1
:1052B000517801221C4EDB01AC309E1906601B4860
:1052C0008A401B1821002000B431B03003600A600E
:1052D0001A6001223B0011002069FFF72DFE290012
:1052E0002000FFF799FF290006002000FFF7A8FF24
:1052F000290007002000FFF789FF3B0000903100E4
:1053000020690122FFF703FD2300A6331A78039BCF
:1053100020691978FFF715FD2069FFF730FD05B00A
:10532000F0BDC046CCF20000182800401428004010
:105330003F20704713B56B460268D9710733546834
:1053400019000122A04716BD10B502210069FDF722
:1053500047FE10BD10B503210069FDF757FE10BDD3
:1053600010B5130004000A0000690321FDF748FF8F
:10537000002801D10123636010BD000010B5054C69
:1053800023685A1C04D103685B69984703002060B6
:10539000180010BD98000020074B0200186810B5D7
:1053A000411C03D0012252421A6010BD0221106933
:1053B000FDF718FFF9E7C0469800002010B5037804
:1053C0003A220233037002490248FDF7C5FF10BDBF
:1053D0005C0000207C03002010B5017803004278B7
:1053E0000020A12908D1212A05D11A3A16491748C7
:1053F000FDF7B2FF012010BD2129FCD1202A11D1D7
:10540000193A11491148FDF745FE96220E4BD2007C
:105410001968914203D10124D87904400ED0FDF7D8
:10542000BBF90EE0222A03D19A78074BDA71ECE738
:10543000232AE0D15A88064B1A60DCE7FA20FDF7F0
:10544000A5F90020D7E7C046540000207C030020C7
:10545000500000207047000010B5FDF703F9F42359
:10546000FF330024984207D9044B0A20DC79631EDD
:105470009C41E4B2FDF72CF9200010BD540000203F
:10548000FA220021054B92009A60054A59600832C1
:105490001A60044A19761A617047C0461C0D002034
:1054A000B4F400007C03002070B50E0000254468B1
:1054B000002C0BD0236831005B682000984700283F
:1054C00002DB2D18E468F3E701256D42280070BD6A
:1054D00070B50D004468002C08D0236829009B6833
:1054E00020009847002802D1E468F4E7200070BD4E
:1054F00070B50D004468002C07D0236829002000F7
:10550000DB689847E4682D18F5E72C7070BD70B51E
:105510000D004468002C08D0236829001B68200077
:105520009847002802D1E468F4E7200070BD00002D
:105530000121064A10B5136805480B4005D1022425
:105540000470241944704360116010BD380D0020B0
:105550003C0D0020002303600A68436002604A6833
:10556000836042608A6882600B604B608B6070472A
:1055700010B50400006805F05BFC200010BD10B5FC
:1055800004000068002801D005F052FC00232360CD
:10559000A360636010BD70B504000D0000680131A8
:1055A00006F038FD031E01D0012028C470BD036839
:1055B00010B50400002B04D043688B4201D30120B6
:1055C00010BD2000FFF7E7FF0028F9D0A368002BEB
:1055D000F5D122681370F2E770B50E0011000400D7
:1055E0001500FFF7E4FF002804D12000FFF7C7FFF4
:1055F000200070BDA5603100206806F060FDF7E76F
:10560000002370B504000D0003604360836099427D
:1056100007D0080006F05BFD290002002000FFF71C
:10562000DBFF200070BD70B504000D1E09D008001E
:1056300006F04DFD290002002000FFF7CDFF2000FD
:1056400070BDFFF79CFFFAE71FB5040000230800B8
:1056500023606360A36001A901F0E2FE01A92000BC
:10566000FFF7E1FF200004B010BDF8B504000F1EE5
:1056700002D100263000F8BD0126002AFAD0836846
:10568000D5182900FFF793FF0028F2D02368A268FD
:105690003900981806F013FDA560EBE710B58A688D
:1056A0000968FFF7E2FF10BD70B505000C00081E89
:1056B00006D006F00CFD210002002800FFF7D5FF00
:1056C00070BD07B5002201AB19705A701900013284
:1056D000FFF7CBFF0EBD836810B5002B07D101206B
:1056E000002903D00B7858425841C0B210BD0029A0
:1056F00002D103681B78F6E7006806F0D6FC0300C9
:10570000F1E770B50D00002A06D0002904D08468A6
:105710009C4202D800230B7070BD013AE41A9442F7
:1057200000D9140001682200C918280006F0E7FC1F
:1057300000232B55F0E710B50468002C07D0207823
:10574000002804D006F090FD20700134F7E710BD6A
:105750001FB50E4B00221B6800930D4B1B68019375
:105760000C4B1B6802930C4B1B68039303006946A8
:10577000895804320C0E1C700C0C5C700C0A9C7066
:10578000D9700433102AF2D104B010BD0CA08000EF
:1057900040A0800044A0800048A0800010B50248CE
:1057A000FFF7D6FF10BDC046440D0020074B10B5D3
:1057B0000400417182710649186802F015FAFA2353
:1057C0009B005843E060200010BDC0463800002018
:1057D00040420F0010B5040002214079FEF774F931
:1057E000014BA36010BDC04630F8FFFF70B5050047
:1057F0000E0000246879FEF7BFF9B04204D1EA68D0
:10580000631C944202D30024200070BD1C00F1E709
:1058100070B5D0B00D000400FCF724FF002D07D1B7
:10582000A3683D4AC31A934202D8207C50B070BD91
:105830000025A060012160792571E570A570657073
:105840002570FEF745F9FA20FCF742FF6079012147
:10585000FEF73AF960792900FEF73AF91420FCF7CF
:1058600037FF72B601216079FEF732F9A0239B0061
:10587000013BFDD102216079FEF726F9A023013B0F
:10588000FDD129002000FFF7B1FFA84203D100207D
:10589000207462B6CAE701212000FFF7A7FF0028A5
:1058A000F5D0A026760000212000FFF79FFF6B4671
:1058B0000121E8502000FFF799FF2B0008356B44C9
:1058C0005860B542EFD162B6002201216846D3008C
:1058D000C0586B445E68002801D0002E02D1002021
:1058E0002074A3E7D510635D5B00DBB2B04210D338
:1058F00001326355282AE9D16178237822795B182F
:10590000A1785B18E1785B18DBB29A42E7D10120FD
:10591000E6E70B43ECE7C046CF070000F8B50D0003
:1059200011000400FFF774FF002807D0A379DAB252
:105930000B2A05D002D3153B012B13D9194810E0CF
:10594000A07803F03BFA002D0BD005F025F8164A9D
:10595000164B04F0BDF90022154B03F075FA05F063
:105960006DF8F8BD7F20A678304003F0D7F9872185
:10597000C90502F0DFFE071CE07803F0CFF9391CFF
:1059800002F056FB05F008F80A4A0B4B04F0A0F9A8
:1059900076B205F053F8002ED5DA80231B06C01826
:1059A000D1E7C0460000C07FCDCCCCCCCCCCFC3FF6
:1059B000000040409A9999999999B93F70B5002192
:1059C0000400FFF725FF002807D0A379DAB20B2ADD
:1059D00005D002D3153B012B05D90E4802E02078F3
:1059E00003F0ECF970BD207803F0E8F98721C905D0
:1059F00002F0A0FE051C607803F090F9291C02F06B
:105A000017FB04F0C9FF044A044B04F061F905F0E8
:105A100015F8E7E70000C07F9A9999999999B93FDD
:105A200010B50400081C04F0B7FF084A084B04F046
:105A30004FF902000B000020064903F015FD04F0A9
:105A4000FDFF054902F076FE606010BD182D44543C
:105A5000FB2119400000F03F0024744970B5040098
:105A60001D1C0170111CFFF7DBFFE56025616561FE
:105A7000FCF7FEFDE06170BDD0B50400007803289E
:105A800035D802F0A7F81902041EE068D0BD60689E
:105A900004F082FF0022174B03F0E6FC0600E068EA
:105AA0000F0004F079FF02000B003000390004F011
:105AB0000FF904F0C3FFE9E7E168606902F05AFFFB
:105AC000E4E7E168606902F055FF04F065FF060055
:105AD00060680F0004F060FF0022064B03F0C4FC76
:105AE00002000B003000390003F0BEFCE1E70020AB
:105AF000CCE7C04680842E41F8B504000E1CFCF7AC
:105B0000B7FDE3690500C01A03F008F9E368011C5A
:105B10002361A061E5616661606802F01BFCA06022
:105B200004F03AFF02000B000020184903F09CFC2F
:105B300001F0A2FD04F082FF051C04F02DFF02001D
:105B40000B000020124904F043FB060060690F00BF
:105B500004F022FF02000B003000390004F0B8F816
:105B600006000F00281C216902F0E4FD04F014FF78
:105B700002000B003000390003F066F904F05EFF0C
:105B8000E0602000FFF778FFF8BDC0460000F0BFDE
:105B90000000F03FF7B5FE2600270400B605151CEF
:105BA0003B1C321C01910121FFF758FF20003B1CD8
:105BB000321C20300121FFF751FF0849019802F003
:105BC000C9FB074902F0B6FD60606062656125614E
:105BD000E56065632563E5622000FEBD3D0A574030
:105BE0000024744910B50400081C044902F0B2FBFB
:105BF000034902F09FFD6060606210BD3D0A57409E
:105C00000024744910B50400FFF776FF2034011C0E
:105C10002000FFF771FF2000FFF72EFF10BD41614C
:105C20000161C16041630163C162704710B52030FA
:105C3000FFF722FF10BD0000024B1869431E984178
:105C4000C0B270470020004000230370704700007E
:105C500010B5FFF7F1FF0028FBD1014B986910BD8B
:105C60000020004010B5FFF7F3FF3F23184010BDA0
:105C700010B5FFF7EDFF0005800E10BD10B5FFF762
:105C8000E7FFC003C00E10BD10B5FFF7E1FF8002B3
:105C9000C00E10BD10B5FFF7DBFF8001000F10BD77
:105CA00010B5FFF7D5FF800E10BD0000C888094B66
:105CB000CA78C018830608795204800510430A7810
:105CC00010438A78120310434A7892011043184314
:105CD0007047C04630F8FFFFFA2010B51F248B0E26
:105CE000C0001B18480C2040D0703F20D3808B018F
:105CF0001B0F13710B0B234093708B090340014062
:105D00005370117010BD000030B58DB00500FFF765
:105D10009FFF01AC010022002800FFF7DDFFE388B0
:105D2000094A03A89B1808932379013B0793E3785A
:105D30000693A3780593637804932378039305F07F
:105D400083F90DB030BDC04694F8FFFF10B5FFF7E2
:105D500073FF0028FBD10221054B064A1A819A8164
:105D60001A888A431A80FFF767FF0028FBD110BD0D
:105D700000200040FF81FFFF10B5FFF75DFF002806
:105D8000FBD10223044A11880B431380FFF754FF11
:105D90000028FBD110BDC0460020004070B50500B2
:105DA000FFF784FF0600FFF747FF0028FBD10B4CED
:105DB0002800FFF7CBFFA661FFF73EFF0028FBD1CD
:105DC00080222388120213432380FFF735FF002827
:105DD000FBD12800FFF7D0FF70BDC0460020004077
:105DE0001FB50E4B0400994200D2190001A8019181
:105DF00004F00EFF037B02A9CB700369084A01334C
:105E00000B7143699B18CB80037A8B7003794B70BD
:105E1000036820000B70FFF7C1FF1FBD80436D3882
:105E20006C07000010B5FFF791FFFFF705FF002892
:105E3000FBD10123044A11880B431380FFF7FCFEBA
:105E40000028FBD110BDC04600200040802310B5C3
:105E5000094A5B00516904000B4353610422074B5C
:105E60001A61FFF7DFFF064A064B20001A80FFF792
:105E700083FF0123237010BD000400400010004088
:105E8000088BFFFF00200040F8B5254B1600FF22CD
:105E9000036000230D00522142748274C2740275A3
:105EA000421C43710371037243778377C377D377BF
:105EB0002A3211700531517000220400194F836796
:105EC000C3670263390012229C3004F0CDFF20002A
:105ED000390048221431B03004F0C6FF20003900E8
:105EE00009225C31F83004F0BFFF3900A01C653195
:105EF000FF30032204F0B8FF0B4BE6609E420CD14A
:105F00000A232800637525740121FDF7DDFD207C3F
:105F10000121FDF7DDFD2000F8BD0B23F1E7C046B0
:105F200000093D00D8F40000540D002070B5437DF9
:105F300004000D000B2B02D0C06800F0BFFC237AD8
:105F4000002B07D11B226270643A2370A270E370A9
:105F5000237163712900200000F0E4FB050020009C
:105F600000F0A0FA00232000A37700F095FB2800A2
:105F700070BD000010B5054C002901D1207810BD7E
:105F80002178012200F06EFCF8E7C046D00E002018
:105F9000F7B51E0008AB1B78170001930A00330009
:105FA0000321040000F0E2FA051E10D0019B0B2132
:105FB000002B00D10321200000F0AAF920003300BB
:105FC0003A00032100F0FEF9200000F06BFA2800EF
:105FD000FEBD0000F0B589B09668040010006A4666
:105FE00000AF7B60731CFB610733DB08DB00D31A57
:105FF0009D467961FB60721C00236946FFF781FBB7
:10600000200000F061FA051E02D00023BB6174E09D
:1060100004227969200000F02FF90028F5D0721DC4
:106020007969200000F0A4F90028EED07C49200016
:1060300000F058FA0028E8D00121200000F078FA9A
:106040000028E2D00221200000F062F9FA6926005F
:10605000EA402C36D2B231782000083500F0ACF995
:10606000202DF3D10121207CFDF732FD200000F02E
:1060700019FA7B69FA69043319002000BB6000F04B
:10608000FBF80028C1D06649200000F02BFA002858
:10609000BBD00121200000F04BFAB8610028B4D039
:1060A00080253B7D6D00ED1AFB69ADB2AB4228D86F
:1060B000207C0021FDF70CFD31780222200000F049
:1060C0007BF9200000F0FCF80025FB69AB420AD9FF
:1060D000FB6820005A5D23002C331978013500F04D
:1060E0006BF9ADB2F1E7207C0121FDF7F1FC7B6893
:1060F000002B4FD1200000F0D5F9BD46B86909B09A
:10610000F0BDBB8B7B6100233B617B69AB4200DC54
:106110001D00207C0021FDF7DBFC23002C331978C7
:106120000222200000F048F9200000F0C9F8002603
:10613000AE420CDA3A69FB6820009B189A5D230096
:106140002C331978013600F037F9B6B2F0E7207C2D
:106150000121FDF7BDFCA36F31495B19A3673B69C2
:1061600020005B199BB23B617B695D1BABB27B611D
:1061700000F0B8F9002800D147E70121200000F025
:10618000D7F9002800D140E780257B696D00002BFE
:10619000BBD1ACE76B46224920007B6100F0A2F93D
:1061A000B861002838D06A46BB68207CA367FB69C9
:1061B00000210733DB08DB00D31A9D46FDF788FC7E
:1061C00023002C3319780322200000F0F5F820007A
:1061D0006E4600F075F80025FB69AB420AD9230032
:1061E0002B3319780022200000F0E6F870550135B5
:1061F000EDB2F1E7200000F055F90023FA699A4268
:1062000007D9FA68F15CD25C914205D10133DBB267
:10621000F4E77B699D4670E77B699D46F5E6C046DD
:1062200000CA9A3B030070B554331D7804000A007D
:10623000002D05D12A000C2100F014FB280070BDB0
:106240008023EF215B0200F091F9051EF6D02300B8
:1062500055331978200000F05BF8200000F022F997
:10626000A16D200000F03EF90500E7E710B5C06819
:1062700000F06CFB10BD0000F8B50F000021050018
:106280001600FFF777FEF72303400020032B08D00A
:10629000EC6B844206D109482200012101F02AF961
:1062A0002000F8BDBE19B44204D8361BEE67AF67B4
:1062B0000120F6E70023EB67F9E7C046D00E002087
:1062C00010B5C37F0400002B04D003007B33197882
:1062D000FFF7CCFF23007A3319782000FFF7C6FFC1
:1062E0002300793319782000FFF7C0FF23007833AB
:1062F00019782000FFF7BAFF012010BD10B5016822
:1063000004004268C06800F0F1FA0120607710BD17
:1063100070B5437F04000D00002B01D1FFF7EEFFA5
:10632000207C0021FDF7D4FB0B2D15D005D8022DC4
:1063300009D0032D07D0290016E0522D03D0D82D07
:1063400001D0202DF7D129002000FFF78FFF20007A
:10635000FFF7B6FF012070BD29002000FFF786FF80
:106360002000FFF7ADFFEE212000FFF77FFFF1E7F0
:1063700070B50321040016000025FFF7C9FFB542E0
:1063800012D00021E06800F0E1FAFF280AD0207C5A
:106390000121FDF79DFB07480022072101F0AAF823
:1063A000002070BD0135EAE7207C0121FDF790FB5C
:1063B0000120F6E7D00E002010B51100C06800F0F3
:1063C000C5FA10BD10B50C0011001A00022C01D046
:1063D000032C02D1C06800F0BEFA10BD70B50400F5
:1063E0000521FFF795FF0021E06800F0AFFA251DB9
:1063F000E877207C0121FDF76BFBE87F70BD70B56D
:1064000004001521FFF784FF0021E06800F09EFAE8
:10641000A51DE877207C0121FDF75AFBE87F70BDC0
:1064200070B506000124FFF7EAFF20420ED1B72124
:106430003000FFF76DFF307C2100FDF749FB300095
:10644000FFF7DDFF2040051E02D0F477200070BD6D
:1064500002000D21024801F04DF82C00F6E7C0467D
:10646000D00E002070B505000124FFF7C8FF2042C0
:1064700012D0E9212800FFF74BFF287C2100FDF70F
:1064800027FB2800FFF7BBFF204007D000220E218A
:10649000034801F02FF80024200070BDE877FBE7E7
:1064A000D00E002010B504000121007CFDF710FB88
:1064B000E37F002B02D02000FFF7D4FFE06800F05C
:1064C00031FA0023637710BD10B5847F002C04D00F
:1064D00000220F21024801F00DF8200010BDC04637
:1064E000D00E0020F8B506000C002023013BFDD1A2
:1064F000FCF7BEF8012705003000FFF76FFF331DE2
:10650000DB7F3B4201D10120F8BDFCF7B1F8401B15
:10651000A042F1D3FCF7ACF8401B8442F3D8034807
:106520000022042100F0E6FF0020EDE7D00E00205D
:1065300070B504000D000621FFF7EAFE207C012162
:10654000FDF7C6FA2000FFF749FF0224044009D1F5
:10655000002D05D022000621034800F0CBFF2500C6
:10656000280070BD0125FBE7D00E0020F8B51E0005
:10657000030037331B7804000F001500EF2B14D0F5
:10658000022F1BD0EF2F37D02000FFF79DFF0028F0
:1065900012D1320029002000FFF76EFE00280BD038
:1065A0001B492000FFF79EFF07E01A4B9A42E7D9EC
:1065B000FFF736FF0028E3D10020F8BD2000FFF7E9
:1065C00083FF0028F8D1320029002000FFF754FE95
:1065D0000028F1D0320029002000FFF7C9FE002872
:1065E000EAD00B492000FFF77DFF0028E4D001210D
:1065F0002000FFF79DFFE0E72000FFF765FF002880
:10660000DAD1320029002000FFF736FEE7E7C04666
:1066100000CA9A3BFFFFFF0010B504000421FFF7FA
:1066200077FE207C0121FDF753FA012010BD000008
:1066300070B517490400FFF755FF051E25D09F21AF
:106640002000FFF765FE26000021E06800F07EF9DB
:10665000373630700021E06800F078F923003833D5
:1066600018700021E06800F071F9230039331870C8
:10667000207C0121FDF72CFA3478002C05D1220072
:106680000B21044800F036FF2500280070BDC046ED
:1066900000CA9A3BD00E0020030070B538331B7837
:1066A0000400252B1CD1FFF799FE231DDD7F3C2321
:1066B000502120009D43FFF72BFE207C0121FDF798
:1066C00007FA01212000FFF723FE29002000FFF731
:1066D000CDFD207C0121FDF7FBF90125280070BDCF
:1066E0000125262BFAD10E49FFF7FCFE051EF5D039
:1066F00001212000FFF71CFFA023013BFDD19821C1
:106700002000FFF705FE207C0121FDF7E1F9C823F9
:106710009B00013BFDD12000FFF77EFFDEE7C04676
:1067200000CA9A3B0200F8B5012364321370103A94
:106730001370083A1370083A13700300202245338F
:106740001A7032321A7286321A74414B00228364F4
:10675000404B05000365404B6535836503005C33A2
:106760001A7060232B703D4B0400836603000132D6
:106770007233FF321A800E00FFF75AFF2300A21C6B
:1067800037331978FF32C1331878884227D1230074
:10679000012235331A70230022003833FF321B7870
:1067A0009078984205D0D078984202D012799A42D7
:1067B00001D1C7232B70230035331D78002D32D033
:1067C00027003937C22911D13B78132B0BD0142B5A
:1067D0001BD000220221224800F08CFE06E001338B
:1067E0009342D1D1D7E78023DB03E36300233A78D8
:1067F00019009C31615C91420AD12C339B001B59DA
:106800003434A3600123237012E080231B04ECE7DF
:106810000133122BECD1E36B002B08D1002E0FD0EB
:10682000E6633434EFE736342578002D02D00125B5
:106830002800F8BD2A000221094800F05BFEF7E7B6
:1068400032000321064800F055FE3500F0E7C0464F
:1068500000CA9A3B0050D6DC004059730000DD0EA0
:10686000D00E002010B5024800F044FE10BDC04616
:10687000D00E0020437A002B04D18372C372C36010
:1068800001334372704730B5040085B002AD006833
:1068900002910392FEF7DFFA6B79227AE179009395
:1068A00020680023FEF782FB2979029A2068FEF710
:1068B000A5FA2068FEF7C6FA05B030BD10B5040091
:1068C000FFF7D8FF20790E21FDF76CF9A0790E2192
:1068D000FDF768F960790E21FDF764F9024B20009D
:1068E00006CBFFF7D0FF10BD640D002007B5837AFB
:1068F00000910192002B07D09A070AD5EFF310827E
:1069000053425341C37272B60099019AFFF7BBFF1D
:1069100007BDDB07F8D58389014AD360F4E7C04699
:1069200000240040837A002B05D09A0704D5C37A4F
:10693000002B00D062B67047DB07FCD5C368024A63
:106940009BB21361F7E7C0460024004010B5006811
:10695000FEF78AFA10BD70B506000C008D18AC4227
:1069600006D021783000FFF7F1FF20700134F6E700
:1069700070BD0000094B0A4A1A6000225A711A7150
:10698000084B5A72084A1A6023221A71023A9A7105
:10699000013A5A711F3ADA711A727047640D002079
:1069A00000093D00540D0020180D0020F7B5844665
:1069B0000D00019216BAD3B20024172A0AD9130087
:1069C000183BE72B11D9531E1C49FF3B8B420FD8B4
:1069D00019230224A96868680F19B8420BD2012351
:1069E0000124EB6064422000FEBD18230124F1E77E
:1069F0001A230424EEE760464F1C1843AF6008706A
:106A0000002CF0D0022C0ED0042C15D00823012C21
:106A1000E6D1220001A9A86804F026FAAB681C1987
:106A2000AC600024DFE70649130292B20B40120A61
:106A30001A4392B20192ECE70196EAE7FFFE0000EA
:106A400000FFFF0070B505000C00160000211022A9
:106A500004F025FA2C60AC60A4196C6070BD8368EA
:106A60000068181A7047002310B50A00994201DA2D
:106A7000CA43203301001800FFF798FF10BDF8B596
:106A800004000F00010060201500FFF78FFF061EB5
:106A900007D1A06863681B1A9D4204DD0123013EF3
:106AA000E3603000F8BD2A00390004F0DDF9A36886
:106AB0005D19A560F5E710B50A000100A020FFF7F9
:106AC00075FF10BD4368186800BA704770B50300C1
:106AD0000C00012000290AD05D8858682A0005F0C2
:106AE000FDFA002803D1200005F0F1FA281A70BD44
:106AF00010B542880300042A06D92021144B154AF8
:106B0000FF31154804F042F8013A0020032A06D864
:106B1000100001F05FF802050C195B68187810BDD1
:106B20005B681B88180A1B02184380B2F7E75B6892
:106B30000A491B6818021A040A40000E1043FF227B
:106B4000120213401843EAE71800FFF7BBFFE6E71D
:106B500040F5000088F500005AF5000000FFFF0036
:106B6000014B18607047C0466C0D002007B5002827
:106B700006D183210E4B0F4A49000F4804F006F856
:106B8000006801AB0190002A04D01368002B0AD1E1
:106B9000106013001868002808D002888A4205D0C7
:106BA00082681A60F6E79B681360F2E70EBDC04684
:106BB000D6F5000033F60000D9F50000F8B5040062
:106BC0000F00002806D14C21124B134AFF31134805
:106BD00003F0DCFF0C250068002812D003888668CB
:106BE000BB4206D12368984206D1266004F020F902
:106BF00000253000F0E713009A689042FBD19E60B8
:106C0000F4E7002D04D03A0005490720FDF704FB06
:106C10002800F8BDD6F5000007F60000D9F5000001
:106C2000B5F50000F7B534248446114D114E28788F
:106C30000F0060430092104962463018019305F03E
:106C400005FA2B786A465C43009B3619B362330021
:106C5000127931331A703200002330323762F36216
:106C60001370FDF741FA70622878431C2B70FEBD4B
:106C7000700D0020740D002071F60000F8B5342569
:106C80000D4C0E4E23780F006B4302000C49F01898
:106C900005F0DCF93C2324786C4334192200A3620C
:106CA000002331321370013A27621370E362FDF75B
:106CB0001BFA6062F8BDC046700D0020740D002004
:106CC00071F6000010B50400FDF70EFA34235C43A2
:106CD000054B01211B191A00303211700A2258622B
:106CE000DA62002010BDC046740D002034214143FB
:106CF000074B10B55B1819000024303102000C70EE
:106D00005C62DC6203490720FDF786FA200010BDB3
:106D1000740D00207DF60000F0B5060000224C3610
:106D200087B005000C00300006210392FFF71EFF1C
:106D3000002804D0200006214C30FFF73FFF03AAB3
:106D40000B213000FFF712FF03AA0B213000FFF7E1
:106D50000DFF071E00D194E08149FFF7B7FE0190B7
:106D6000002800D07EE0039B300004AA0B2104938E
:106D7000FFF7FCFE061E05D08423A370019B23644D
:106D8000002517E0AB78012B24D1FDF7ADF9050004
:106D9000020074490720FDF73FFA2DBA0421206D47
:106DA000059500F09BFA002807D103256E4A136869
:106DB00001331360280007B0F0BD042505A92A009F
:106DC00004F052F823002A223C3325641A7045232C
:106DD000A370D5E7032B41D16969286D00F08EFAC5
:106DE0002F6D3B88002B06D03B799A1F012A02D8D1
:106DF0007A79082A01D08623EAE73500062BD9D113
:106E00003A1D043359490720FDF728FAFF21FA7982
:106E1000BB7912021A433B7A09021B041A437B7A9C
:106E200007201B0613431A061E0E16431A0A0A40B1
:106E30001643FF221B02120413401E4332004C492A
:106E4000FDF7EAF931004B48FEF7CAFFFDF790F96C
:106E5000FDF752F94423A3702564ABE7A123206416
:106E6000A3708DE744493800FFF730FE002808D1B1
:106E7000039B05AA0B2130000593FFF777FE021E46
:106E800001D084234FE030000F21FFF76FFEAB7875
:106E90000600012B51D13949FFF718FE051E3BD1E1
:106EA0002821206D00F01AFA2F4B002814D11A68FF
:106EB000033501321A6028232A0031490720FDF7E3
:106EC000ABF9002D34D12823236423002A223C333C
:106ED0001A704523A3706DE7082202701C324270BD
:106EE0001A6812BA42605A6812BA82609A6812BA74
:106EF000C260DA6812BA02611A6912BA42615A694A
:106F000012BA82619A6912BAC261DA691B6A12BA4C
:106F10001BBA02624362CEE71A493000FFF7D6FD82
:106F2000002803D0A123A370002595E70425C2E71C
:106F3000A023042DF7D18623F5E7032BF2D10F49C7
:106F4000FFF7C4FD0028EDD00E493000FFF7BEFD6D
:106F50000028E7D104220C490730FDF75DF9EAE784
:106F600010F7000015F700007C0E002035F7000038
:106F70004BF700003D09002066F700006CF70000A9
:106F80007DF7000075F700009CF70000F0B5454B59
:106F900087B01B680D000393002305938B708278E4
:106FA000012A00D079E04C3005AA0B210400FFF73C
:106FB000DDFD002800D173E005AA0B212000FFF7BA
:106FC000D5FD002800D16BE03749FFF77FFD002891
:106FD00066D105AA0B212000FFF7C8FD00285FD16C
:106FE0000223324E00931836009B039A93424ADAEA
:106FF000306805F06CF80400B068231D002803D049
:1070000005F065F80534231801936B46286D0421BB
:10701000595E00F063F9041E07D1254A1368013355
:107020001360A023AB70632035E00222214903F0F6
:107030001BFF3768380005F04AF80290029AA01C3E
:10704000390003F011FF3E22029BE3189A70B268E8
:10705000002A0CD03B22DA70B768380005F037F808
:107060000200029839000430201803F0FDFE019B55
:107070000C36E4182C23013C23701933AB70009BB1
:1070800001330093B0E72B0028223C331A702B6D9C
:107090001B882B64002007B0F0BDA1228A70F9E79D
:1070A0008423BFE7480E002008F700004C0E0020A4
:1070B0007C0E00200DF7000030B5837891B00C00F5
:1070C000012B2BD11649684604F0F9FF1549684693
:1070D00004F0DEFF684604F0FAFF01B2206D00F014
:1070E000FDF8051E08D1104A136801331360A02370
:1070F0000020A37011B030BD684604F0E8FF694677
:107100000200280003F0B0FE684604F0E0FF230010
:1071100000223C3320641A704523E9E78323E7E724
:10712000ABF10000C9F100007C0E0020032330B554
:10713000074C25689D4209DC6B1C23600C246C43C2
:10714000044BE0501B1959609A600023180030BDB1
:10715000480E00204C0E002010B500240D4B0E4AA6
:107160000E490F481C60FFF7E1FF22000D490E4851
:10717000FFF7DCFF0D4A0E490E48FFF7D7FF0E4B15
:107180000E4A1B780E480F49012B00D00E49FFF71D
:10719000CDFF10BD480E002095F60000B97000002C
:1071A0007EF400008D6F0000A7F60000B3F600002B
:1071B000196D0000D8F6000049000020DCF6000040
:1071C0009C000020794700002948000070B500F0BD
:1071D00051F8041E05D10320114A136801331360CE
:1071E00070BD142100F07AF814220E4903F03CFE21
:1071F0000D4D2868002801D000F066F80B490720E3
:107200002C60FDF709F800210920FCF761FC012042
:10721000FBF75EFA09200121FCF75AFC0020DFE7AA
:107220007C0E0020C9F70000440E0020ADF70000DE
:10723000F8B50F0015001E000400FFF78DFF3800A1
:10724000FFF78EFC07990698FFF718FD320029001A
:10725000200000F06DF8002803D002490320FCF75D
:10726000DBFFF8BDDDF70000014B18607047C0463A
:10727000A00E002070B50E4D07202B680D491C1D77
:107280002200FCF7C9FF200003F0C8FD002805D14B
:10729000094B0A4A4A210A4803F078FC0023094AAC
:1072A00003802B68438013680133136070BDC046B0
:1072B000A00E0020F9F70000C0F2000040F8000026
:1072C00015F80000A80E002010B503F0B1FD024A29
:1072D00013680133136010BDA40E0020064B10B5D7
:1072E00004881B68611802000020994202DC101D0E
:1072F0000019118010BDC046A00E002010B5002856
:1073000011D0028813008A4205DB4C42A24202DB04
:10731000002909DB0B00D21A92B2191D0280411814
:10732000043003F0AAFD10BD52180280FBE70000F4
:10733000F7B51C4C0191266815006327002E06D175
:10734000FF2A06D9FF2318490720FCF765FF3800FC
:10735000FEBD0127110000F073F9144B019A3100B2
:107360001A602000202203F09AFD28002760656043
:10737000A5602773FFF778FFFFF77CFFA061002867
:1073800005D10B4B0B4A64210B4803F0FFFB38007F
:1073900000F066F96073380000F062F93700A073FE
:1073A000D5E7C046B00E00204EF80000AC0E00201D
:1073B000A6F80000DBF80000AFF80000F0B58DB0D3
:1073C00007000E1E019221D01300023B03AD222BB9
:1073D00010D900261AE03800019900F08BFC380023
:1073E0000C00019900F000FC0700092C11D8303482
:1073F0002C7001352B00002FEDD103AAAA42EAD050
:10740000320003A98B4206D80023137030000DB060
:10741000F0BD5734ECE7013B197811700132F0E709
:1074200010B5FFF7CBFF10BD10B5402200210400BE
:1074300003F035FD002320002364636410BD3F2268
:10744000036C01331340426C9A4202D0026C8154A7
:10745000036470470023036443647047426C036C09
:107460009A4208D03F21436CC25C436C01330B400D
:1074700043641000704701204042FBE7036C406CFE
:10748000181A00D540307047026C436C9A4204DBF6
:10749000036C406CC01A3F307047436C006C181A84
:1074A0000138F9E7426C036C9A4202D0436CC05C2D
:1074B000704701204042FBE703003F22006C5B6CF9
:1074C00001301040C01A43425841C0B27047704763
:1074D00010B5054C05492000FDF784FB0449200048
:1074E000FDF79CFB10BDC0461C0D002030FE0000C7
:1074F00063FE000070B506000D003170002A14D044
:107500002E4C14294CD8080000F064FB0B181A1CF0
:107510001E24262C32363810343A3C3E4042444633
:10752000480027492000FDF779FB70BD2549200060
:10753000FDF774FB3000FFF7CBFFF6E72249F1E7D8
:107540002249F4E72249EDE722492000FDF766FBD6
:107550002149E7E72149E5E721492000FDF75EFBE6
:107560002049E4E720492000FDF758FB1F49D9E7EF
:107570001F49D7E71F49D5E71F49D3E71F49D6E77A
:107580001F49CFE71F49CDE71F49CBE71F49C9E78F
:107590001F49C7E71F49C5E71F49C3E71F49C1E79F
:1075A0001F492000FDF73AFB2B000A3B012BC1D9F4
:1075B00004239D43022DBDD0B7E7C0461C0D00201B
:1075C000F3F8000012F9000043F9000082F900000E
:1075D000C0F9000055FA000063FA000093FA0000B9
:1075E000DDFA0000FFFA000042FB000065FB00002E
:1075F0009FFB0000EEFB00002BFC00004FFC000096
:1076000075FC000099FC0000BEFC0000E2FC0000DC
:1076100008FD000052FD00009FFD0000EEFD00008F
:1076200022FE000010B5034A0349044800F01DF88B
:1076300010BDC04600000020CF740000D00E002016
:1076400010B50C009621044B090218600368DB6931
:107650009847024B1C6010BDD80E0020D40E0020AD
:10766000430001201843C0B270470B0010B5010061
:10767000180003F0A9FA10BDF0B54746CE4680B514
:107680008BB004000D0000F0CBF8344B0600984698
:107690001B780F005BB2013338D02000290000F0C6
:1076A0008DFA002832D02E4A2E4B2000290000F0FF
:1076B0003BFC8146002830D12B4A2C4B200029006E
:1076C00000F01EFC002821D004230093284B002248
:1076D00001934B46089300230692079343461B7879
:1076E0006E465BB20494059502940395022B30D04C
:1076F000300000F06DFA00282BD0336A002B03D045
:1077000003F070FA336A0360F769B6693000390034
:107710000BB00CBC90469946F0BD03230093144B6C
:107720006E4601930023089343461B780494059505
:107730005BB202940395002B05D1E0220D4B12069B
:1077400006920793D4E700200B4906900791022B7D
:10775000CED103F047FA22230360CEE7AC0000202D
:10776000EF39FAFE422E864051302DD5104987C0A0
:10777000F0FE0000FFFFEF470000F07FF0B50025AE
:107780008DB0041C00F0BEF9234B061C5D576B1C2A
:107790000BD0211C201C01F089FA071E05D1002105
:1077A000201C00F0E7FB002802D1301C0DB0F0BD1A
:1077B00001230293194B201C03930A9703F0ECF862
:1077C000002206900791049005910023002D15D00A
:1077D0001000190001F048FE08900991022D0FD108
:1077E00003F000FA212303600A9B0193002B0DD1C3
:1077F0000898099903F022F9061CD6E70892099324
:1078000002A800F0E5F90028EED1E9E703F0EAF973
:107810000A9B01930360EBE7AC000020F4FE00003C
:10782000F0B5D64600B54B000E00CC0F954984B09C
:1078300007005B088B420ED993498B4200D884E045
:107840003203120B024300D0F7E03100002C78D055
:107850000020002175E08D4A934200D9B6E08C4AA1
:10786000934200D8CAE000239A463A003300380019
:10787000310002F02DFA04000D00864A864B02F01A
:1078800027FA864A864B02F0A3FC22002B0002F066
:107890001FFA844A844B01F0D7FA22002B0002F031
:1078A00017FA824A824B02F093FC22002B0002F06E
:1078B0000FFA804A804B01F0C7FA22002B0002F039
:1078C00007FA02000B003800310002F081FC534639
:1078D00004000D000200002B00D1B4E00B003800C2
:1078E000310002F0F5F90F008021060022002B0084
:1078F0000020C90502F06CFC02000B0030003900CA
:1079000001F0B2FD02000B000298039902F060FC46
:10791000009A019B02F05CFC0B000200674900200A
:1079200002F056FC664B9A4500DB7AE0FA24A4008C
:107930005444240563181900B82300225B0402F0A4
:10794000C7F904B004BC9246F0BD5E4A5E4B3100FC
:1079500000F0EAFA002869D15C4A5D4B380031003A
:1079600000F0CEFA002800D072E75A4BE4001C1950
:10797000594A5A4B3800310002F0AAF9226863686C
:1079800001F062FA02F05AFF824602F08BFF544A7D
:10799000544B04000D0002F09BF902000B0038006C
:1079A000310002F015FC504A009001914F4B20002D
:1079B000290002F08DF902900391029A039B00982E
:1079C000019902F005FC07000E004EE7484A934279
:1079D000CBD8484BE5005B191A685B68310002F0B0
:1079E000F7FB454B009001915B191A685B680292A6
:1079F000039301231B1B1B1B9A46DEE73F4A404BA8
:107A0000310001F021FA00222C4B00F08DFA002801
:107A100000D128E70022294B3800310001F014FA88
:107A20008FE754462405631819008AE7334A344B1C
:107A30001000190002F04CF983E702003300310016
:107A400001F002FA7DE70B003800310002F040F946
:107A50008023009001910022DB052000290002F024
:107A6000B7FB02000B000098019901F0FDFC3A0001
:107A7000330002F0ADFB02000B0000200F4902F0C2
:107A8000A7FB5EE7412E8640FFFFEF7F422ED63FE9
:107A9000FFFF2F3ED0A4BE726937663EF16BD2C5A0
:107AA00041BDBB3E2CDE25AF6A56113F93BDBE16CD
:107AB0006CC1663F3E5555555555C53F0000F03FDA
:107AC00003FCFFFFEF39FAFE422E864051302DD5E0
:107AD000104987C000FF0000FE822B654715F73F65
